{
  "_format": "hh-sol-artifact-1",
  "contractName": "OperatorWhitelist",
  "sourceName": "contracts/utils/OperatorWhitelist.sol",
  "abi": [
    {
      "inputs": [
        {
          "internalType": "address",
          "name": "_serviceRegistry",
          "type": "address"
        }
      ],
      "stateMutability": "nonpayable",
      "type": "constructor"
    },
    {
      "inputs": [
        {
          "internalType": "address",
          "name": "sender",
          "type": "address"
        },
        {
          "internalType": "address",
          "name": "owner",
          "type": "address"
        }
      ],
      "name": "OwnerOnly",
      "type": "error"
    },
    {
      "inputs": [
        {
          "internalType": "uint256",
          "name": "numValues1",
          "type": "uint256"
        },
        {
          "internalType": "uint256",
          "name": "numValues2",
          "type": "uint256"
        }
      ],
      "name": "WrongArrayLength",
      "type": "error"
    },
    {
      "inputs": [],
      "name": "ZeroAddress",
      "type": "error"
    },
    {
      "anonymous": false,
      "inputs": [
        {
          "indexed": true,
          "internalType": "address",
          "name": "serviceOwner",
          "type": "address"
        },
        {
          "indexed": true,
          "internalType": "uint256",
          "name": "serviceId",
          "type": "uint256"
        }
      ],
      "name": "OperatorsWhitelistCheckSet",
      "type": "event"
    },
    {
      "anonymous": false,
      "inputs": [
        {
          "indexed": true,
          "internalType": "address",
          "name": "serviceOwner",
          "type": "address"
        },
        {
          "indexed": true,
          "internalType": "uint256",
          "name": "serviceId",
          "type": "uint256"
        },
        {
          "indexed": false,
          "internalType": "address[]",
          "name": "operators",
          "type": "address[]"
        },
        {
          "indexed": false,
          "internalType": "bool[]",
          "name": "statuses",
          "type": "bool[]"
        },
        {
          "indexed": false,
          "internalType": "bool",
          "name": "setCheck",
          "type": "bool"
        }
      ],
      "name": "OperatorsWhitelistUpdated",
      "type": "event"
    },
    {
      "anonymous": false,
      "inputs": [
        {
          "indexed": true,
          "internalType": "address",
          "name": "serviceOwner",
          "type": "address"
        },
        {
          "indexed": true,
          "internalType": "uint256",
          "name": "serviceId",
          "type": "uint256"
        },
        {
          "indexed": false,
          "internalType": "bool",
          "name": "setCheck",
          "type": "bool"
        }
      ],
      "name": "SetOperatorsCheck",
      "type": "event"
    },
    {
      "inputs": [
        {
          "internalType": "uint256",
          "name": "serviceId",
          "type": "uint256"
        },
        {
          "internalType": "address",
          "name": "operator",
          "type": "address"
        }
      ],
      "name": "isOperatorWhitelisted",
      "outputs": [
        {
          "internalType": "bool",
          "name": "status",
          "type": "bool"
        }
      ],
      "stateMutability": "view",
      "type": "function"
    },
    {
      "inputs": [
        {
          "internalType": "uint256",
          "name": "",
          "type": "uint256"
        },
        {
          "internalType": "address",
          "name": "",
          "type": "address"
        }
      ],
      "name": "mapServiceIdOperators",
      "outputs": [
        {
          "internalType": "bool",
          "name": "",
          "type": "bool"
        }
      ],
      "stateMutability": "view",
      "type": "function"
    },
    {
      "inputs": [
        {
          "internalType": "uint256",
          "name": "",
          "type": "uint256"
        }
      ],
      "name": "mapServiceIdOperatorsCheck",
      "outputs": [
        {
          "internalType": "bool",
          "name": "",
          "type": "bool"
        }
      ],
      "stateMutability": "view",
      "type": "function"
    },
    {
      "inputs": [],
      "name": "serviceRegistry",
      "outputs": [
        {
          "internalType": "address",
          "name": "",
          "type": "address"
        }
      ],
      "stateMutability": "view",
      "type": "function"
    },
    {
      "inputs": [
        {
          "internalType": "uint256",
          "name": "serviceId",
          "type": "uint256"
        },
        {
          "internalType": "bool",
          "name": "setCheck",
          "type": "bool"
        }
      ],
      "name": "setOperatorsCheck",
      "outputs": [],
      "stateMutability": "nonpayable",
      "type": "function"
    },
    {
      "inputs": [
        {
          "internalType": "uint256",
          "name": "serviceId",
          "type": "uint256"
        },
        {
          "internalType": "address[]",
          "name": "operators",
          "type": "address[]"
        },
        {
          "internalType": "bool[]",
          "name": "statuses",
          "type": "bool[]"
        },
        {
          "internalType": "bool",
          "name": "setCheck",
          "type": "bool"
        }
      ],
      "name": "setOperatorsStatuses",
      "outputs": [],
      "stateMutability": "nonpayable",
      "type": "function"
    }
  ],
  "bytecode": "0x60a060405234801561001057600080fd5b506040516109da3803806109da83398101604081905261002f91610067565b6001600160a01b0381166100565760405163d92e233d60e01b815260040160405180910390fd5b6001600160a01b0316608052610097565b60006020828403121561007957600080fd5b81516001600160a01b038116811461009057600080fd5b9392505050565b6080516109146100c66000396000818160fa015281816101b0015281816103b401526104a701526109146000f3fe608060405234801561001057600080fd5b50600436106100725760003560e01c8063bb4f56f011610050578063bb4f56f0146100e2578063cbcf252a146100f5578063ecc4060c1461013457600080fd5b806345131adb1461007757806356a7b6071461008c5780635c2f6ef4146100b4575b600080fd5b61008a6100853660046106bc565b610157565b005b61009f61009a36600461079a565b610398565b60405190151581526020015b60405180910390f35b61009f6100c236600461079a565b600160209081526000928352604080842090915290825290205460ff1681565b61008a6100f03660046107ca565b61048e565b61011c7f000000000000000000000000000000000000000000000000000000000000000081565b6040516001600160a01b0390911681526020016100ab565b61009f6101423660046107f6565b60006020819052908152604090205460ff1681565b8251158061016757508151835114155b1561019757825182516040516308151c1160e41b8152600481019290925260248201526044015b60405180910390fd5b6040516331a9108f60e11b8152600481018590526000907f00000000000000000000000000000000000000000000000000000000000000006001600160a01b031690636352211e90602401602060405180830381865afa1580156101ff573d6000803e3d6000fd5b505050506040513d601f19601f82011682018060405250810190610223919061080f565b90506001600160a01b038116331461025f5760405163521eb56d60e11b81526001600160a01b038216600482015233602482015260440161018e565b6000858152602081905260408120805460ff19168415151790555b845181101561034a5760006001600160a01b03168582815181106102a0576102a0610833565b60200260200101516001600160a01b0316036102cf5760405163d92e233d60e01b815260040160405180910390fd5b8381815181106102e1576102e1610833565b602002602001015160016000888152602001908152602001600020600087848151811061031057610310610833565b6020908102919091018101516001600160a01b03168252810191909152604001600020805460ff191691151591909117905560010161027a565b5084336001600160a01b03167f468d072a954ba60f48b97590cdedbb50ed040a6c0b7419e7e26e8c30f0d4698986868660405161038993929190610849565b60405180910390a35050505050565b6040516331a9108f60e11b8152600481018390526001906000907f00000000000000000000000000000000000000000000000000000000000000006001600160a01b031690636352211e90602401602060405180830381865afa158015610403573d6000803e3d6000fd5b505050506040513d601f19601f82011682018060405250810190610427919061080f565b9050826001600160a01b0316816001600160a01b031614158015610459575060008481526020819052604090205460ff165b156104875760008481526001602090815260408083206001600160a01b038716845290915290205460ff1691505b5092915050565b6040516331a9108f60e11b8152600481018390526000907f00000000000000000000000000000000000000000000000000000000000000006001600160a01b031690636352211e90602401602060405180830381865afa1580156104f6573d6000803e3d6000fd5b505050506040513d601f19601f8201168201806040525081019061051a919061080f565b90506001600160a01b03811633146105565760405163521eb56d60e11b81526001600160a01b038216600482015233602482015260440161018e565b60008381526020818152604091829020805460ff19168515159081179091559151918252849133917f23b65c8cb3df8015266b5a426d083d4b0c7ac26d5acba4be838cf8e01626742c910160405180910390a3505050565b634e487b7160e01b600052604160045260246000fd5b604051601f8201601f1916810167ffffffffffffffff811182821017156105ed576105ed6105ae565b604052919050565b600067ffffffffffffffff82111561060f5761060f6105ae565b5060051b60200190565b6001600160a01b038116811461062e57600080fd5b50565b8035801515811461064157600080fd5b919050565b600082601f83011261065757600080fd5b8135602061066c610667836105f5565b6105c4565b8083825260208201915060208460051b87010193508684111561068e57600080fd5b602086015b848110156106b1576106a481610631565b8352918301918301610693565b509695505050505050565b600080600080608085870312156106d257600080fd5b8435935060208086013567ffffffffffffffff808211156106f257600080fd5b818801915088601f83011261070657600080fd5b8135610714610667826105f5565b81815260059190911b8301840190848101908b83111561073357600080fd5b938501935b8285101561075a57843561074b81610619565b82529385019390850190610738565b97505050604088013592508083111561077257600080fd5b505061078087828801610646565b92505061078f60608601610631565b905092959194509250565b600080604083850312156107ad57600080fd5b8235915060208301356107bf81610619565b809150509250929050565b600080604083850312156107dd57600080fd5b823591506107ed60208401610631565b90509250929050565b60006020828403121561080857600080fd5b5035919050565b60006020828403121561082157600080fd5b815161082c81610619565b9392505050565b634e487b7160e01b600052603260045260246000fd5b606080825284519082018190526000906020906080840190828801845b8281101561088b5781516001600160a01b031684529284019290840190600101610866565b5050508381038285015285518082528683019183019060005b818110156108c25783511515835292840192918401916001016108a4565b5050851515604086015292506108d6915050565b94935050505056fea2646970667358221220ae8ea13d8cf91cfed013e4627907de3b1a62a9543b8e745ba1cebcbd3758261164736f6c63430008170033",
  "linkReferences": {},
  "deployedLinkReferences": {}
}