{
  "_format": "hh-sol-artifact-1",
  "contractName": "ServiceRegistryL2",
  "sourceName": "contracts/ServiceRegistryL2.sol",
  "abi": [
    {
      "inputs": [
        {
          "internalType": "string",
          "name": "_name",
          "type": "string"
        },
        {
          "internalType": "string",
          "name": "_symbol",
          "type": "string"
        },
        {
          "internalType": "string",
          "name": "_baseURI",
          "type": "string"
        }
      ],
      "stateMutability": "nonpayable",
      "type": "constructor"
    },
    {
      "inputs": [
        {
          "internalType": "address",
          "name": "operator",
          "type": "address"
        }
      ],
      "name": "AgentInstanceRegistered",
      "type": "error"
    },
    {
      "inputs": [
        {
          "internalType": "uint256",
          "name": "serviceId",
          "type": "uint256"
        }
      ],
      "name": "AgentInstancesSlotsFilled",
      "type": "error"
    },
    {
      "inputs": [
        {
          "internalType": "uint256",
          "name": "agentId",
          "type": "uint256"
        }
      ],
      "name": "AgentNotFound",
      "type": "error"
    },
    {
      "inputs": [
        {
          "internalType": "uint256",
          "name": "agentId",
          "type": "uint256"
        },
        {
          "internalType": "uint256",
          "name": "serviceId",
          "type": "uint256"
        }
      ],
      "name": "AgentNotInService",
      "type": "error"
    },
    {
      "inputs": [
        {
          "internalType": "uint256",
          "name": "componentId",
          "type": "uint256"
        }
      ],
      "name": "ComponentNotFound",
      "type": "error"
    },
    {
      "inputs": [],
      "name": "HashExists",
      "type": "error"
    },
    {
      "inputs": [
        {
          "internalType": "uint256",
          "name": "sent",
          "type": "uint256"
        },
        {
          "internalType": "uint256",
          "name": "expected",
          "type": "uint256"
        },
        {
          "internalType": "uint256",
          "name": "serviceId",
          "type": "uint256"
        }
      ],
      "name": "IncorrectAgentBondingValue",
      "type": "error"
    },
    {
      "inputs": [
        {
          "internalType": "uint256",
          "name": "sent",
          "type": "uint256"
        },
        {
          "internalType": "uint256",
          "name": "expected",
          "type": "uint256"
        },
        {
          "internalType": "uint256",
          "name": "serviceId",
          "type": "uint256"
        }
      ],
      "name": "IncorrectRegistrationDepositValue",
      "type": "error"
    },
    {
      "inputs": [
        {
          "internalType": "address",
          "name": "sender",
          "type": "address"
        },
        {
          "internalType": "address",
          "name": "manager",
          "type": "address"
        }
      ],
      "name": "ManagerOnly",
      "type": "error"
    },
    {
      "inputs": [
        {
          "internalType": "address",
          "name": "provided",
          "type": "address"
        },
        {
          "internalType": "address",
          "name": "expected",
          "type": "address"
        },
        {
          "internalType": "uint256",
          "name": "serviceId",
          "type": "uint256"
        }
      ],
      "name": "OnlyOwnServiceMultisig",
      "type": "error"
    },
    {
      "inputs": [
        {
          "internalType": "address",
          "name": "operator",
          "type": "address"
        },
        {
          "internalType": "uint256",
          "name": "serviceId",
          "type": "uint256"
        }
      ],
      "name": "OperatorHasNoInstances",
      "type": "error"
    },
    {
      "inputs": [
        {
          "internalType": "uint256",
          "name": "provided",
          "type": "uint256"
        },
        {
          "internalType": "uint256",
          "name": "max",
          "type": "uint256"
        }
      ],
      "name": "Overflow",
      "type": "error"
    },
    {
      "inputs": [
        {
          "internalType": "address",
          "name": "sender",
          "type": "address"
        },
        {
          "internalType": "address",
          "name": "owner",
          "type": "address"
        }
      ],
      "name": "OwnerOnly",
      "type": "error"
    },
    {
      "inputs": [],
      "name": "Paused",
      "type": "error"
    },
    {
      "inputs": [],
      "name": "ReentrancyGuard",
      "type": "error"
    },
    {
      "inputs": [
        {
          "internalType": "uint256",
          "name": "serviceId",
          "type": "uint256"
        }
      ],
      "name": "ServiceMustBeInactive",
      "type": "error"
    },
    {
      "inputs": [
        {
          "internalType": "address",
          "name": "token",
          "type": "address"
        },
        {
          "internalType": "address",
          "name": "from",
          "type": "address"
        },
        {
          "internalType": "address",
          "name": "to",
          "type": "address"
        },
        {
          "internalType": "uint256",
          "name": "value",
          "type": "uint256"
        }
      ],
      "name": "TransferFailed",
      "type": "error"
    },
    {
      "inputs": [
        {
          "internalType": "address",
          "name": "multisig",
          "type": "address"
        }
      ],
      "name": "UnauthorizedMultisig",
      "type": "error"
    },
    {
      "inputs": [
        {
          "internalType": "uint256",
          "name": "agentId",
          "type": "uint256"
        }
      ],
      "name": "WrongAgentId",
      "type": "error"
    },
    {
      "inputs": [
        {
          "internalType": "uint256",
          "name": "numValues1",
          "type": "uint256"
        },
        {
          "internalType": "uint256",
          "name": "numValues2",
          "type": "uint256"
        }
      ],
      "name": "WrongArrayLength",
      "type": "error"
    },
    {
      "inputs": [
        {
          "internalType": "uint256",
          "name": "serviceId",
          "type": "uint256"
        }
      ],
      "name": "WrongOperator",
      "type": "error"
    },
    {
      "inputs": [
        {
          "internalType": "uint256",
          "name": "state",
          "type": "uint256"
        },
        {
          "internalType": "uint256",
          "name": "serviceId",
          "type": "uint256"
        }
      ],
      "name": "WrongServiceState",
      "type": "error"
    },
    {
      "inputs": [
        {
          "internalType": "uint256",
          "name": "currentThreshold",
          "type": "uint256"
        },
        {
          "internalType": "uint256",
          "name": "minThreshold",
          "type": "uint256"
        },
        {
          "internalType": "uint256",
          "name": "maxThreshold",
          "type": "uint256"
        }
      ],
      "name": "WrongThreshold",
      "type": "error"
    },
    {
      "inputs": [],
      "name": "ZeroAddress",
      "type": "error"
    },
    {
      "inputs": [],
      "name": "ZeroValue",
      "type": "error"
    },
    {
      "anonymous": false,
      "inputs": [
        {
          "indexed": true,
          "internalType": "uint256",
          "name": "serviceId",
          "type": "uint256"
        }
      ],
      "name": "ActivateRegistration",
      "type": "event"
    },
    {
      "anonymous": false,
      "inputs": [
        {
          "indexed": true,
          "internalType": "address",
          "name": "owner",
          "type": "address"
        },
        {
          "indexed": true,
          "internalType": "address",
          "name": "spender",
          "type": "address"
        },
        {
          "indexed": true,
          "internalType": "uint256",
          "name": "id",
          "type": "uint256"
        }
      ],
      "name": "Approval",
      "type": "event"
    },
    {
      "anonymous": false,
      "inputs": [
        {
          "indexed": true,
          "internalType": "address",
          "name": "owner",
          "type": "address"
        },
        {
          "indexed": true,
          "internalType": "address",
          "name": "operator",
          "type": "address"
        },
        {
          "indexed": false,
          "internalType": "bool",
          "name": "approved",
          "type": "bool"
        }
      ],
      "name": "ApprovalForAll",
      "type": "event"
    },
    {
      "anonymous": false,
      "inputs": [
        {
          "indexed": false,
          "internalType": "string",
          "name": "baseURI",
          "type": "string"
        }
      ],
      "name": "BaseURIChanged",
      "type": "event"
    },
    {
      "anonymous": false,
      "inputs": [
        {
          "indexed": true,
          "internalType": "uint256",
          "name": "serviceId",
          "type": "uint256"
        },
        {
          "indexed": true,
          "internalType": "address",
          "name": "multisig",
          "type": "address"
        }
      ],
      "name": "CreateMultisigWithAgents",
      "type": "event"
    },
    {
      "anonymous": false,
      "inputs": [
        {
          "indexed": true,
          "internalType": "uint256",
          "name": "serviceId",
          "type": "uint256"
        },
        {
          "indexed": false,
          "internalType": "bytes32",
          "name": "configHash",
          "type": "bytes32"
        }
      ],
      "name": "CreateService",
      "type": "event"
    },
    {
      "anonymous": false,
      "inputs": [
        {
          "indexed": true,
          "internalType": "uint256",
          "name": "serviceId",
          "type": "uint256"
        }
      ],
      "name": "DeployService",
      "type": "event"
    },
    {
      "anonymous": false,
      "inputs": [
        {
          "indexed": true,
          "internalType": "address",
          "name": "sender",
          "type": "address"
        },
        {
          "indexed": false,
          "internalType": "uint256",
          "name": "amount",
          "type": "uint256"
        }
      ],
      "name": "Deposit",
      "type": "event"
    },
    {
      "anonymous": false,
      "inputs": [
        {
          "indexed": true,
          "internalType": "address",
          "name": "drainer",
          "type": "address"
        },
        {
          "indexed": false,
          "internalType": "uint256",
          "name": "amount",
          "type": "uint256"
        }
      ],
      "name": "Drain",
      "type": "event"
    },
    {
      "anonymous": false,
      "inputs": [
        {
          "indexed": true,
          "internalType": "address",
          "name": "drainer",
          "type": "address"
        }
      ],
      "name": "DrainerUpdated",
      "type": "event"
    },
    {
      "anonymous": false,
      "inputs": [
        {
          "indexed": true,
          "internalType": "address",
          "name": "manager",
          "type": "address"
        }
      ],
      "name": "ManagerUpdated",
      "type": "event"
    },
    {
      "anonymous": false,
      "inputs": [
        {
          "indexed": false,
          "internalType": "uint256",
          "name": "amount",
          "type": "uint256"
        },
        {
          "indexed": true,
          "internalType": "address",
          "name": "operator",
          "type": "address"
        },
        {
          "indexed": true,
          "internalType": "uint256",
          "name": "serviceId",
          "type": "uint256"
        }
      ],
      "name": "OperatorSlashed",
      "type": "event"
    },
    {
      "anonymous": false,
      "inputs": [
        {
          "indexed": true,
          "internalType": "address",
          "name": "operator",
          "type": "address"
        },
        {
          "indexed": true,
          "internalType": "uint256",
          "name": "serviceId",
          "type": "uint256"
        }
      ],
      "name": "OperatorUnbond",
      "type": "event"
    },
    {
      "anonymous": false,
      "inputs": [
        {
          "indexed": true,
          "internalType": "address",
          "name": "owner",
          "type": "address"
        }
      ],
      "name": "OwnerUpdated",
      "type": "event"
    },
    {
      "anonymous": false,
      "inputs": [
        {
          "indexed": true,
          "internalType": "address",
          "name": "receiver",
          "type": "address"
        },
        {
          "indexed": false,
          "internalType": "uint256",
          "name": "amount",
          "type": "uint256"
        }
      ],
      "name": "Refund",
      "type": "event"
    },
    {
      "anonymous": false,
      "inputs": [
        {
          "indexed": true,
          "internalType": "address",
          "name": "operator",
          "type": "address"
        },
        {
          "indexed": true,
          "internalType": "uint256",
          "name": "serviceId",
          "type": "uint256"
        },
        {
          "indexed": true,
          "internalType": "address",
          "name": "agentInstance",
          "type": "address"
        },
        {
          "indexed": false,
          "internalType": "uint256",
          "name": "agentId",
          "type": "uint256"
        }
      ],
      "name": "RegisterInstance",
      "type": "event"
    },
    {
      "anonymous": false,
      "inputs": [
        {
          "indexed": true,
          "internalType": "uint256",
          "name": "serviceId",
          "type": "uint256"
        }
      ],
      "name": "TerminateService",
      "type": "event"
    },
    {
      "anonymous": false,
      "inputs": [
        {
          "indexed": true,
          "internalType": "address",
          "name": "from",
          "type": "address"
        },
        {
          "indexed": true,
          "internalType": "address",
          "name": "to",
          "type": "address"
        },
        {
          "indexed": true,
          "internalType": "uint256",
          "name": "id",
          "type": "uint256"
        }
      ],
      "name": "Transfer",
      "type": "event"
    },
    {
      "anonymous": false,
      "inputs": [
        {
          "indexed": true,
          "internalType": "uint256",
          "name": "serviceId",
          "type": "uint256"
        },
        {
          "indexed": false,
          "internalType": "bytes32",
          "name": "configHash",
          "type": "bytes32"
        }
      ],
      "name": "UpdateService",
      "type": "event"
    },
    {
      "inputs": [],
      "name": "CID_PREFIX",
      "outputs": [
        {
          "internalType": "string",
          "name": "",
          "type": "string"
        }
      ],
      "stateMutability": "view",
      "type": "function"
    },
    {
      "inputs": [],
      "name": "VERSION",
      "outputs": [
        {
          "internalType": "string",
          "name": "",
          "type": "string"
        }
      ],
      "stateMutability": "view",
      "type": "function"
    },
    {
      "inputs": [
        {
          "internalType": "address",
          "name": "serviceOwner",
          "type": "address"
        },
        {
          "internalType": "uint256",
          "name": "serviceId",
          "type": "uint256"
        }
      ],
      "name": "activateRegistration",
      "outputs": [
        {
          "internalType": "bool",
          "name": "success",
          "type": "bool"
        }
      ],
      "stateMutability": "payable",
      "type": "function"
    },
    {
      "inputs": [
        {
          "internalType": "address",
          "name": "spender",
          "type": "address"
        },
        {
          "internalType": "uint256",
          "name": "id",
          "type": "uint256"
        }
      ],
      "name": "approve",
      "outputs": [],
      "stateMutability": "nonpayable",
      "type": "function"
    },
    {
      "inputs": [
        {
          "internalType": "address",
          "name": "owner",
          "type": "address"
        }
      ],
      "name": "balanceOf",
      "outputs": [
        {
          "internalType": "uint256",
          "name": "",
          "type": "uint256"
        }
      ],
      "stateMutability": "view",
      "type": "function"
    },
    {
      "inputs": [],
      "name": "baseURI",
      "outputs": [
        {
          "internalType": "string",
          "name": "",
          "type": "string"
        }
      ],
      "stateMutability": "view",
      "type": "function"
    },
    {
      "inputs": [
        {
          "internalType": "address",
          "name": "newDrainer",
          "type": "address"
        }
      ],
      "name": "changeDrainer",
      "outputs": [],
      "stateMutability": "nonpayable",
      "type": "function"
    },
    {
      "inputs": [
        {
          "internalType": "address",
          "name": "newManager",
          "type": "address"
        }
      ],
      "name": "changeManager",
      "outputs": [],
      "stateMutability": "nonpayable",
      "type": "function"
    },
    {
      "inputs": [
        {
          "internalType": "address",
          "name": "multisig",
          "type": "address"
        },
        {
          "internalType": "bool",
          "name": "permission",
          "type": "bool"
        }
      ],
      "name": "changeMultisigPermission",
      "outputs": [
        {
          "internalType": "bool",
          "name": "success",
          "type": "bool"
        }
      ],
      "stateMutability": "nonpayable",
      "type": "function"
    },
    {
      "inputs": [
        {
          "internalType": "address",
          "name": "newOwner",
          "type": "address"
        }
      ],
      "name": "changeOwner",
      "outputs": [],
      "stateMutability": "nonpayable",
      "type": "function"
    },
    {
      "inputs": [
        {
          "internalType": "address",
          "name": "serviceOwner",
          "type": "address"
        },
        {
          "internalType": "bytes32",
          "name": "configHash",
          "type": "bytes32"
        },
        {
          "internalType": "uint32[]",
          "name": "agentIds",
          "type": "uint32[]"
        },
        {
          "components": [
            {
              "internalType": "uint32",
              "name": "slots",
              "type": "uint32"
            },
            {
              "internalType": "uint96",
              "name": "bond",
              "type": "uint96"
            }
          ],
          "internalType": "struct AgentParams[]",
          "name": "agentParams",
          "type": "tuple[]"
        },
        {
          "internalType": "uint32",
          "name": "threshold",
          "type": "uint32"
        }
      ],
      "name": "create",
      "outputs": [
        {
          "internalType": "uint256",
          "name": "serviceId",
          "type": "uint256"
        }
      ],
      "stateMutability": "nonpayable",
      "type": "function"
    },
    {
      "inputs": [
        {
          "internalType": "address",
          "name": "serviceOwner",
          "type": "address"
        },
        {
          "internalType": "uint256",
          "name": "serviceId",
          "type": "uint256"
        },
        {
          "internalType": "address",
          "name": "multisigImplementation",
          "type": "address"
        },
        {
          "internalType": "bytes",
          "name": "data",
          "type": "bytes"
        }
      ],
      "name": "deploy",
      "outputs": [
        {
          "internalType": "address",
          "name": "multisig",
          "type": "address"
        }
      ],
      "stateMutability": "nonpayable",
      "type": "function"
    },
    {
      "inputs": [],
      "name": "drain",
      "outputs": [
        {
          "internalType": "uint256",
          "name": "amount",
          "type": "uint256"
        }
      ],
      "stateMutability": "nonpayable",
      "type": "function"
    },
    {
      "inputs": [],
      "name": "drainer",
      "outputs": [
        {
          "internalType": "address",
          "name": "",
          "type": "address"
        }
      ],
      "stateMutability": "view",
      "type": "function"
    },
    {
      "inputs": [
        {
          "internalType": "uint256",
          "name": "unitId",
          "type": "uint256"
        }
      ],
      "name": "exists",
      "outputs": [
        {
          "internalType": "bool",
          "name": "",
          "type": "bool"
        }
      ],
      "stateMutability": "view",
      "type": "function"
    },
    {
      "inputs": [
        {
          "internalType": "uint256",
          "name": "serviceId",
          "type": "uint256"
        }
      ],
      "name": "getAgentInstances",
      "outputs": [
        {
          "internalType": "uint256",
          "name": "numAgentInstances",
          "type": "uint256"
        },
        {
          "internalType": "address[]",
          "name": "agentInstances",
          "type": "address[]"
        }
      ],
      "stateMutability": "view",
      "type": "function"
    },
    {
      "inputs": [
        {
          "internalType": "uint256",
          "name": "serviceId",
          "type": "uint256"
        }
      ],
      "name": "getAgentParams",
      "outputs": [
        {
          "internalType": "uint256",
          "name": "numAgentIds",
          "type": "uint256"
        },
        {
          "components": [
            {
              "internalType": "uint32",
              "name": "slots",
              "type": "uint32"
            },
            {
              "internalType": "uint96",
              "name": "bond",
              "type": "uint96"
            }
          ],
          "internalType": "struct AgentParams[]",
          "name": "agentParams",
          "type": "tuple[]"
        }
      ],
      "stateMutability": "view",
      "type": "function"
    },
    {
      "inputs": [
        {
          "internalType": "uint256",
          "name": "",
          "type": "uint256"
        }
      ],
      "name": "getApproved",
      "outputs": [
        {
          "internalType": "address",
          "name": "",
          "type": "address"
        }
      ],
      "stateMutability": "view",
      "type": "function"
    },
    {
      "inputs": [
        {
          "internalType": "uint256",
          "name": "serviceId",
          "type": "uint256"
        },
        {
          "internalType": "uint256",
          "name": "agentId",
          "type": "uint256"
        }
      ],
      "name": "getInstancesForAgentId",
      "outputs": [
        {
          "internalType": "uint256",
          "name": "numAgentInstances",
          "type": "uint256"
        },
        {
          "internalType": "address[]",
          "name": "agentInstances",
          "type": "address[]"
        }
      ],
      "stateMutability": "view",
      "type": "function"
    },
    {
      "inputs": [
        {
          "internalType": "address",
          "name": "operator",
          "type": "address"
        },
        {
          "internalType": "uint256",
          "name": "serviceId",
          "type": "uint256"
        }
      ],
      "name": "getOperatorBalance",
      "outputs": [
        {
          "internalType": "uint256",
          "name": "balance",
          "type": "uint256"
        }
      ],
      "stateMutability": "view",
      "type": "function"
    },
    {
      "inputs": [
        {
          "internalType": "uint256",
          "name": "serviceId",
          "type": "uint256"
        }
      ],
      "name": "getPreviousHashes",
      "outputs": [
        {
          "internalType": "uint256",
          "name": "numHashes",
          "type": "uint256"
        },
        {
          "internalType": "bytes32[]",
          "name": "configHashes",
          "type": "bytes32[]"
        }
      ],
      "stateMutability": "view",
      "type": "function"
    },
    {
      "inputs": [
        {
          "internalType": "uint256",
          "name": "serviceId",
          "type": "uint256"
        }
      ],
      "name": "getService",
      "outputs": [
        {
          "components": [
            {
              "internalType": "uint96",
              "name": "securityDeposit",
              "type": "uint96"
            },
            {
              "internalType": "address",
              "name": "multisig",
              "type": "address"
            },
            {
              "internalType": "bytes32",
              "name": "configHash",
              "type": "bytes32"
            },
            {
              "internalType": "uint32",
              "name": "threshold",
              "type": "uint32"
            },
            {
              "internalType": "uint32",
              "name": "maxNumAgentInstances",
              "type": "uint32"
            },
            {
              "internalType": "uint32",
              "name": "numAgentInstances",
              "type": "uint32"
            },
            {
              "internalType": "enum ServiceRegistryL2.ServiceState",
              "name": "state",
              "type": "uint8"
            },
            {
              "internalType": "uint32[]",
              "name": "agentIds",
              "type": "uint32[]"
            }
          ],
          "internalType": "struct ServiceRegistryL2.Service",
          "name": "service",
          "type": "tuple"
        }
      ],
      "stateMutability": "view",
      "type": "function"
    },
    {
      "inputs": [
        {
          "internalType": "address",
          "name": "",
          "type": "address"
        },
        {
          "internalType": "address",
          "name": "",
          "type": "address"
        }
      ],
      "name": "isApprovedForAll",
      "outputs": [
        {
          "internalType": "bool",
          "name": "",
          "type": "bool"
        }
      ],
      "stateMutability": "view",
      "type": "function"
    },
    {
      "inputs": [],
      "name": "manager",
      "outputs": [
        {
          "internalType": "address",
          "name": "",
          "type": "address"
        }
      ],
      "stateMutability": "view",
      "type": "function"
    },
    {
      "inputs": [
        {
          "internalType": "address",
          "name": "",
          "type": "address"
        }
      ],
      "name": "mapAgentInstanceOperators",
      "outputs": [
        {
          "internalType": "address",
          "name": "",
          "type": "address"
        }
      ],
      "stateMutability": "view",
      "type": "function"
    },
    {
      "inputs": [
        {
          "internalType": "uint256",
          "name": "",
          "type": "uint256"
        },
        {
          "internalType": "uint256",
          "name": "",
          "type": "uint256"
        }
      ],
      "name": "mapConfigHashes",
      "outputs": [
        {
          "internalType": "bytes32",
          "name": "",
          "type": "bytes32"
        }
      ],
      "stateMutability": "view",
      "type": "function"
    },
    {
      "inputs": [
        {
          "internalType": "address",
          "name": "",
          "type": "address"
        }
      ],
      "name": "mapMultisigs",
      "outputs": [
        {
          "internalType": "bool",
          "name": "",
          "type": "bool"
        }
      ],
      "stateMutability": "view",
      "type": "function"
    },
    {
      "inputs": [
        {
          "internalType": "uint256",
          "name": "",
          "type": "uint256"
        },
        {
          "internalType": "uint256",
          "name": "",
          "type": "uint256"
        }
      ],
      "name": "mapOperatorAndServiceIdAgentInstances",
      "outputs": [
        {
          "internalType": "address",
          "name": "instance",
          "type": "address"
        },
        {
          "internalType": "uint32",
          "name": "agentId",
          "type": "uint32"
        }
      ],
      "stateMutability": "view",
      "type": "function"
    },
    {
      "inputs": [
        {
          "internalType": "uint256",
          "name": "",
          "type": "uint256"
        }
      ],
      "name": "mapOperatorAndServiceIdOperatorBalances",
      "outputs": [
        {
          "internalType": "uint96",
          "name": "",
          "type": "uint96"
        }
      ],
      "stateMutability": "view",
      "type": "function"
    },
    {
      "inputs": [
        {
          "internalType": "uint256",
          "name": "",
          "type": "uint256"
        },
        {
          "internalType": "uint256",
          "name": "",
          "type": "uint256"
        }
      ],
      "name": "mapServiceAndAgentIdAgentInstances",
      "outputs": [
        {
          "internalType": "address",
          "name": "",
          "type": "address"
        }
      ],
      "stateMutability": "view",
      "type": "function"
    },
    {
      "inputs": [
        {
          "internalType": "uint256",
          "name": "",
          "type": "uint256"
        }
      ],
      "name": "mapServiceAndAgentIdAgentParams",
      "outputs": [
        {
          "internalType": "uint32",
          "name": "slots",
          "type": "uint32"
        },
        {
          "internalType": "uint96",
          "name": "bond",
          "type": "uint96"
        }
      ],
      "stateMutability": "view",
      "type": "function"
    },
    {
      "inputs": [
        {
          "internalType": "uint256",
          "name": "",
          "type": "uint256"
        }
      ],
      "name": "mapServices",
      "outputs": [
        {
          "internalType": "uint96",
          "name": "securityDeposit",
          "type": "uint96"
        },
        {
          "internalType": "address",
          "name": "multisig",
          "type": "address"
        },
        {
          "internalType": "bytes32",
          "name": "configHash",
          "type": "bytes32"
        },
        {
          "internalType": "uint32",
          "name": "threshold",
          "type": "uint32"
        },
        {
          "internalType": "uint32",
          "name": "maxNumAgentInstances",
          "type": "uint32"
        },
        {
          "internalType": "uint32",
          "name": "numAgentInstances",
          "type": "uint32"
        },
        {
          "internalType": "enum ServiceRegistryL2.ServiceState",
          "name": "state",
          "type": "uint8"
        }
      ],
      "stateMutability": "view",
      "type": "function"
    },
    {
      "inputs": [],
      "name": "name",
      "outputs": [
        {
          "internalType": "string",
          "name": "",
          "type": "string"
        }
      ],
      "stateMutability": "view",
      "type": "function"
    },
    {
      "inputs": [],
      "name": "owner",
      "outputs": [
        {
          "internalType": "address",
          "name": "",
          "type": "address"
        }
      ],
      "stateMutability": "view",
      "type": "function"
    },
    {
      "inputs": [
        {
          "internalType": "uint256",
          "name": "id",
          "type": "uint256"
        }
      ],
      "name": "ownerOf",
      "outputs": [
        {
          "internalType": "address",
          "name": "owner",
          "type": "address"
        }
      ],
      "stateMutability": "view",
      "type": "function"
    },
    {
      "inputs": [
        {
          "internalType": "address",
          "name": "operator",
          "type": "address"
        },
        {
          "internalType": "uint256",
          "name": "serviceId",
          "type": "uint256"
        },
        {
          "internalType": "address[]",
          "name": "agentInstances",
          "type": "address[]"
        },
        {
          "internalType": "uint32[]",
          "name": "agentIds",
          "type": "uint32[]"
        }
      ],
      "name": "registerAgents",
      "outputs": [
        {
          "internalType": "bool",
          "name": "success",
          "type": "bool"
        }
      ],
      "stateMutability": "payable",
      "type": "function"
    },
    {
      "inputs": [
        {
          "internalType": "address",
          "name": "from",
          "type": "address"
        },
        {
          "internalType": "address",
          "name": "to",
          "type": "address"
        },
        {
          "internalType": "uint256",
          "name": "id",
          "type": "uint256"
        }
      ],
      "name": "safeTransferFrom",
      "outputs": [],
      "stateMutability": "nonpayable",
      "type": "function"
    },
    {
      "inputs": [
        {
          "internalType": "address",
          "name": "from",
          "type": "address"
        },
        {
          "internalType": "address",
          "name": "to",
          "type": "address"
        },
        {
          "internalType": "uint256",
          "name": "id",
          "type": "uint256"
        },
        {
          "internalType": "bytes",
          "name": "data",
          "type": "bytes"
        }
      ],
      "name": "safeTransferFrom",
      "outputs": [],
      "stateMutability": "nonpayable",
      "type": "function"
    },
    {
      "inputs": [
        {
          "internalType": "address",
          "name": "operator",
          "type": "address"
        },
        {
          "internalType": "bool",
          "name": "approved",
          "type": "bool"
        }
      ],
      "name": "setApprovalForAll",
      "outputs": [],
      "stateMutability": "nonpayable",
      "type": "function"
    },
    {
      "inputs": [
        {
          "internalType": "string",
          "name": "bURI",
          "type": "string"
        }
      ],
      "name": "setBaseURI",
      "outputs": [],
      "stateMutability": "nonpayable",
      "type": "function"
    },
    {
      "inputs": [
        {
          "internalType": "address[]",
          "name": "agentInstances",
          "type": "address[]"
        },
        {
          "internalType": "uint96[]",
          "name": "amounts",
          "type": "uint96[]"
        },
        {
          "internalType": "uint256",
          "name": "serviceId",
          "type": "uint256"
        }
      ],
      "name": "slash",
      "outputs": [
        {
          "internalType": "bool",
          "name": "success",
          "type": "bool"
        }
      ],
      "stateMutability": "nonpayable",
      "type": "function"
    },
    {
      "inputs": [],
      "name": "slashedFunds",
      "outputs": [
        {
          "internalType": "uint96",
          "name": "",
          "type": "uint96"
        }
      ],
      "stateMutability": "view",
      "type": "function"
    },
    {
      "inputs": [
        {
          "internalType": "bytes4",
          "name": "interfaceId",
          "type": "bytes4"
        }
      ],
      "name": "supportsInterface",
      "outputs": [
        {
          "internalType": "bool",
          "name": "",
          "type": "bool"
        }
      ],
      "stateMutability": "view",
      "type": "function"
    },
    {
      "inputs": [],
      "name": "symbol",
      "outputs": [
        {
          "internalType": "string",
          "name": "",
          "type": "string"
        }
      ],
      "stateMutability": "view",
      "type": "function"
    },
    {
      "inputs": [
        {
          "internalType": "address",
          "name": "serviceOwner",
          "type": "address"
        },
        {
          "internalType": "uint256",
          "name": "serviceId",
          "type": "uint256"
        }
      ],
      "name": "terminate",
      "outputs": [
        {
          "internalType": "bool",
          "name": "success",
          "type": "bool"
        },
        {
          "internalType": "uint256",
          "name": "refund",
          "type": "uint256"
        }
      ],
      "stateMutability": "nonpayable",
      "type": "function"
    },
    {
      "inputs": [
        {
          "internalType": "uint256",
          "name": "id",
          "type": "uint256"
        }
      ],
      "name": "tokenByIndex",
      "outputs": [
        {
          "internalType": "uint256",
          "name": "unitId",
          "type": "uint256"
        }
      ],
      "stateMutability": "view",
      "type": "function"
    },
    {
      "inputs": [
        {
          "internalType": "uint256",
          "name": "unitId",
          "type": "uint256"
        }
      ],
      "name": "tokenURI",
      "outputs": [
        {
          "internalType": "string",
          "name": "",
          "type": "string"
        }
      ],
      "stateMutability": "view",
      "type": "function"
    },
    {
      "inputs": [],
      "name": "totalSupply",
      "outputs": [
        {
          "internalType": "uint256",
          "name": "",
          "type": "uint256"
        }
      ],
      "stateMutability": "view",
      "type": "function"
    },
    {
      "inputs": [
        {
          "internalType": "address",
          "name": "from",
          "type": "address"
        },
        {
          "internalType": "address",
          "name": "to",
          "type": "address"
        },
        {
          "internalType": "uint256",
          "name": "id",
          "type": "uint256"
        }
      ],
      "name": "transferFrom",
      "outputs": [],
      "stateMutability": "nonpayable",
      "type": "function"
    },
    {
      "inputs": [
        {
          "internalType": "address",
          "name": "operator",
          "type": "address"
        },
        {
          "internalType": "uint256",
          "name": "serviceId",
          "type": "uint256"
        }
      ],
      "name": "unbond",
      "outputs": [
        {
          "internalType": "bool",
          "name": "success",
          "type": "bool"
        },
        {
          "internalType": "uint256",
          "name": "refund",
          "type": "uint256"
        }
      ],
      "stateMutability": "nonpayable",
      "type": "function"
    },
    {
      "inputs": [
        {
          "internalType": "address",
          "name": "serviceOwner",
          "type": "address"
        },
        {
          "internalType": "bytes32",
          "name": "configHash",
          "type": "bytes32"
        },
        {
          "internalType": "uint32[]",
          "name": "agentIds",
          "type": "uint32[]"
        },
        {
          "components": [
            {
              "internalType": "uint32",
              "name": "slots",
              "type": "uint32"
            },
            {
              "internalType": "uint96",
              "name": "bond",
              "type": "uint96"
            }
          ],
          "internalType": "struct AgentParams[]",
          "name": "agentParams",
          "type": "tuple[]"
        },
        {
          "internalType": "uint32",
          "name": "threshold",
          "type": "uint32"
        },
        {
          "internalType": "uint256",
          "name": "serviceId",
          "type": "uint256"
        }
      ],
      "name": "update",
      "outputs": [
        {
          "internalType": "bool",
          "name": "success",
          "type": "bool"
        }
      ],
      "stateMutability": "nonpayable",
      "type": "function"
    }
  ],
  "bytecode": "0x60806040526001600a553480156200001657600080fd5b5060405162005b6e38038062005b6e833981016040819052620000399162000150565b8282600062000049838262000272565b50600162000058828262000272565b50600891506200006b9050828262000272565b5050600680546001600160a01b03191633179055506200033e9050565b634e487b7160e01b600052604160045260246000fd5b600082601f830112620000b057600080fd5b81516001600160401b0380821115620000cd57620000cd62000088565b604051601f8301601f19908116603f01168101908282118183101715620000f857620000f862000088565b81604052838152602092508660208588010111156200011657600080fd5b600091505b838210156200013a57858201830151818301840152908201906200011b565b6000602085830101528094505050505092915050565b6000806000606084860312156200016657600080fd5b83516001600160401b03808211156200017e57600080fd5b6200018c878388016200009e565b94506020860151915080821115620001a357600080fd5b620001b1878388016200009e565b93506040860151915080821115620001c857600080fd5b50620001d7868287016200009e565b9150509250925092565b600181811c90821680620001f657607f821691505b6020821081036200021757634e487b7160e01b600052602260045260246000fd5b50919050565b601f8211156200026d576000816000526020600020601f850160051c81016020861015620002485750805b601f850160051c820191505b81811015620002695782815560010162000254565b5050505b505050565b81516001600160401b038111156200028e576200028e62000088565b620002a6816200029f8454620001e1565b846200021d565b602080601f831160018114620002de5760008415620002c55750858301515b600019600386901b1c1916600185901b17855562000269565b600085815260208120601f198616915b828110156200030f57888601518255948401946001909101908401620002ee565b50858210156200032e5787850151600019600388901b60f8161c191681555b5050505050600190811b01905550565b615820806200034e6000396000f3fe6080604052600436106103345760003560e01c806370a08231116101b0578063a60e4c3c116100ec578063dff7672411610095578063ef0e239b1161006f578063ef0e239b14610af7578063f908bc7714610b24578063fbdeb3d714610b44578063ffa1ad7414610b6457600080fd5b8063dff7672414610a96578063e23f6fb414610aa9578063e985e9c514610abc57600080fd5b8063c87b56dd116100c6578063c87b56dd14610a36578063cbf994f814610a56578063ccc9305d14610a7657600080fd5b8063a60e4c3c146109c8578063a6f9dae1146109f6578063b88d4fde14610a1657600080fd5b80638a2bd86f116101595780639890220b116101335780639890220b1461093c578063a22cb46514610951578063a3fbbaae14610971578063a5d059ca1461099157600080fd5b80638a2bd86f146108c25780638da5cb5b1461090757806395d89b411461092757600080fd5b80637c5e63e01161018a5780637c5e63e01461084d57806382694b1d1461088257806386a2bdd4146108a257600080fd5b806370a08231146107c9578063718934d8146107e957806373b8b6a21461082d57600080fd5b806342842e0e1161027f57806355f804b3116102285780636352211e116102025780636352211e1461070a57806363dd76151461072a5780636c0360eb146107945780636f99f15c146107a957600080fd5b806355f804b3146106a357806357838e85146106c35780635e4507fa146106ea57600080fd5b80634eb780da116102595780634eb780da1461062d5780634f558e79146106635780634f6ccce71461068357600080fd5b806342842e0e146105cd578063481c6a75146105ed5780634d486f851461060d57600080fd5b806318160ddd116102e157806323b872dd116102bb57806323b872dd146104d057806342144854146104f05780634236aff81461053e57600080fd5b806318160ddd146104505780631de286ba1461047457806321e4f7bb146104a257600080fd5b8063095ea7b311610312578063095ea7b3146103de57806310c6aa191461040057806317351f7e1461042057600080fd5b806301ffc9a71461033957806306fdde031461036e578063081812fc14610390575b600080fd5b34801561034557600080fd5b5061035961035436600461492f565b610b95565b60405190151581526020015b60405180910390f35b34801561037a57600080fd5b50610383610be7565b60405161036591906149a3565b34801561039c57600080fd5b506103c66103ab3660046149b6565b6004602052600090815260409020546001600160a01b031681565b6040516001600160a01b039091168152602001610365565b3480156103ea57600080fd5b506103fe6103f93660046149e4565b610c75565b005b34801561040c57600080fd5b506103fe61041b366004614a10565b610d5c565b34801561042c57600080fd5b5061035961043b366004614a10565b60126020526000908152604090205460ff1681565b34801561045c57600080fd5b5061046660095481565b604051908152602001610365565b34801561048057600080fd5b5061049461048f3660046149b6565b610e15565b604051610365929190614a2d565b3480156104ae57600080fd5b506104c26104bd366004614a97565b611062565b604051610365929190614afe565b3480156104dc57600080fd5b506103fe6104eb366004614b1f565b611146565b3480156104fc57600080fd5b5061052661050b3660046149b6565b6010602052600090815260409020546001600160601b031681565b6040516001600160601b039091168152602001610365565b34801561054a57600080fd5b506105ba6105593660046149b6565b6013602052600090815260409020805460018201546002909201546001600160601b03821692600160601b928390046001600160a01b031692909163ffffffff808216926401000000008304821692600160401b8104909216910460ff1687565b6040516103659796959493929190614b98565b3480156105d957600080fd5b506103fe6105e8366004614b1f565b611320565b3480156105f957600080fd5b506007546103c6906001600160a01b031681565b34801561061957600080fd5b506104c26106283660046149b6565b611415565b34801561063957600080fd5b506103c6610648366004614a10565b6011602052600090815260409020546001600160a01b031681565b34801561066f57600080fd5b5061035961067e3660046149b6565b611567565b34801561068f57600080fd5b5061046661069e3660046149b6565b611589565b3480156106af57600080fd5b506103fe6106be366004614cbb565b6115ce565b3480156106cf57600080fd5b50600b546103c690600160601b90046001600160a01b031681565b3480156106f657600080fd5b506103c6610705366004614a97565b611677565b34801561071657600080fd5b506103c66107253660046149b6565b6116af565b34801561073657600080fd5b506107706107453660046149b6565b600e6020526000908152604090205463ffffffff81169064010000000090046001600160601b031682565b6040805163ffffffff90931683526001600160601b03909116602083015201610365565b3480156107a057600080fd5b50610383611714565b3480156107b557600080fd5b50600b54610526906001600160601b031681565b3480156107d557600080fd5b506104666107e4366004614a10565b611721565b3480156107f557600080fd5b50610809610804366004614a97565b611795565b604080516001600160a01b03909316835263ffffffff909116602083015201610365565b34801561083957600080fd5b50610359610848366004614db7565b6117db565b34801561085957600080fd5b506103836040518060400160405280600981526020016806630313730313232360bc1b81525081565b34801561088e57600080fd5b5061035961089d366004614e81565b611c2a565b3480156108ae57600080fd5b506104666108bd366004614a97565b611cc3565b3480156108ce57600080fd5b506104666108dd3660046149e4565b60a01b6001600160a01b03909116176000908152601060205260409020546001600160601b031690565b34801561091357600080fd5b506006546103c6906001600160a01b031681565b34801561093357600080fd5b50610383611cf4565b34801561094857600080fd5b50610466611d01565b34801561095d57600080fd5b506103fe61096c366004614e81565b611e5f565b34801561097d57600080fd5b506103fe61098c366004614a10565b611ecb565b34801561099d57600080fd5b506109b16109ac3660046149e4565b611f7c565b604080519215158352602083019190915201610365565b3480156109d457600080fd5b506109e86109e33660046149b6565b61240e565b604051610365929190614ebf565b348015610a0257600080fd5b506103fe610a11366004614a10565b612472565b348015610a2257600080fd5b506103fe610a31366004614f0f565b612523565b348015610a4257600080fd5b50610383610a513660046149b6565b612608565b348015610a6257600080fd5b50610359610a713660046150b5565b612682565b348015610a8257600080fd5b506109b1610a913660046149e4565b612c06565b610359610aa436600461514e565b612f60565b610359610ab73660046149e4565b61354f565b348015610ac857600080fd5b50610359610ad73660046151ce565b600560209081526000928352604080842090915290825290205460ff1681565b348015610b0357600080fd5b50610b17610b123660046149b6565b6136ce565b6040516103659190615233565b348015610b3057600080fd5b506103c6610b3f3660046152cf565b61384e565b348015610b5057600080fd5b50610466610b5f366004615343565b613c1f565b348015610b7057600080fd5b50610383604051806040016040528060058152602001640312e302e360dc1b81525081565b60006301ffc9a760e01b6001600160e01b031983161480610bc657506380ac58cd60e01b6001600160e01b03198316145b80610be15750635b5e139f60e01b6001600160e01b03198316145b92915050565b60008054610bf4906153d4565b80601f0160208091040260200160405190810160405280929190818152602001828054610c20906153d4565b8015610c6d5780601f10610c4257610100808354040283529160200191610c6d565b820191906000526020600020905b815481529060010190602001808311610c5057829003601f168201915b505050505081565b6000818152600260205260409020546001600160a01b031633811480610cbe57506001600160a01b038116600090815260056020908152604080832033845290915290205460ff165b610d005760405162461bcd60e51b815260206004820152600e60248201526d1393d517d055551213d49256915160921b60448201526064015b60405180910390fd5b60008281526004602052604080822080546001600160a01b0319166001600160a01b0387811691821790925591518593918516917f8c5be1e5ebec7d5bd14f71427d1e84f3dd0314c0f7b2291e5b200ac8c7c3b92591a4505050565b6006546001600160a01b03163314610d9c5760065460405163521eb56d60e11b81523360048201526001600160a01b039091166024820152604401610cf7565b6001600160a01b038116610dc35760405163d92e233d60e01b815260040160405180910390fd5b600b80546001600160601b0316600160601b6001600160a01b038416908102919091179091556040517f8d1e8547016120917daad7f81c42b48f7fee379badc48f1889f0f43bb619472590600090a250565b600081815260136020908152604080832081516101008101835281546001600160601b03811682526001600160a01b03600160601b918290041694820194909452600182015492810192909252600281015463ffffffff808216606085810191909152640100000000830482166080860152600160401b830490911660a0850152938593929160c084019160ff9104166005811115610eb657610eb6614b60565b6005811115610ec757610ec7614b60565b815260200160038201805480602002602001604051908101604052809291908181526020018280548015610f4657602002820191906000526020600020906000905b82829054906101000a900463ffffffff1663ffffffff1681526020019060040190602082600301049283019260010382029150808411610f095790505b50505050508152505090508060e001515192508267ffffffffffffffff811115610f7257610f72614bf3565b604051908082528060200260200182016040528015610fb757816020015b6040805180820190915260008082526020820152815260200190600190039081610f905790505b50915060005b8381101561105b57600085905060208360e001518381518110610fe257610fe261540e565b60209081029190910181015163ffffffff90811690921b929092176000818152600e845260409081902081518083019092525492831681526401000000009092046001600160601b03169282019290925284518590849081106110475761104761540e565b602090810291909101015250600101610fbd565b5050915091565b602081811b83176000818152600f909252604090912054906060908267ffffffffffffffff81111561109657611096614bf3565b6040519080825280602002602001820160405280156110bf578160200160208202803683370190505b50915060005b8381101561113d576000828152600f602052604090208054829081106110ed576110ed61540e565b9060005260206000200160009054906101000a90046001600160a01b031683828151811061111d5761111d61540e565b6001600160a01b03909216602092830291909101909101526001016110c5565b50509250929050565b6000818152600260205260409020546001600160a01b038481169116146111af5760405162461bcd60e51b815260206004820152600a60248201527f57524f4e475f46524f4d000000000000000000000000000000000000000000006044820152606401610cf7565b6001600160a01b0382166111f95760405162461bcd60e51b81526020600482015260116024820152701253959053125117d49150d25412515395607a1b6044820152606401610cf7565b336001600160a01b038416148061123357506001600160a01b038316600090815260056020908152604080832033845290915290205460ff165b8061125457506000818152600460205260409020546001600160a01b031633145b6112915760405162461bcd60e51b815260206004820152600e60248201526d1393d517d055551213d49256915160921b6044820152606401610cf7565b6001600160a01b0380841660008181526003602090815260408083208054600019019055938616808352848320805460010190558583526002825284832080546001600160a01b03199081168317909155600490925284832080549092169091559251849392917fddf252ad1be2c89b69c2b068fc378daa952ba7f163c4a11628f55a4df523b3ef91a4505050565b61132b838383611146565b6001600160a01b0382163b1561141057604051630a85bd0160e11b8082523360048301526001600160a01b03858116602484015260448301849052608060648401526000608484015290919084169063150b7a029060a4016020604051808303816000875af11580156113a2573d6000803e3d6000fd5b505050506040513d601f19601f820116820180604052508101906113c69190615424565b6001600160e01b031916146114105760405162461bcd60e51b815260206004820152601060248201526f155394d0519157d49150d2541251539560821b6044820152606401610cf7565b505050565b600081815260136020908152604080832081516101008101835281546001600160601b03811682526001600160a01b03600160601b918290041694820194909452600182015492810192909252600281015463ffffffff808216606085810191909152640100000000830482166080860152600160401b830490911660a0850152938593929160c084019160ff91041660058111156114b6576114b6614b60565b60058111156114c7576114c7614b60565b81526020016003820180548060200260200160405190810160405280929190818152602001828054801561154657602002820191906000526020600020906000905b82829054906101000a900463ffffffff1663ffffffff16815260200190600401906020826003010492830192600103820291508084116115095790505b505050505081525050905061155b8185613f1c565b91508151925050915091565b60008082118015610be15750600954611581906001615457565b821092915050565b6000611596826001615457565b90506009548111156115c957600954604051637ae5968560e01b8152610cf7918391600401918252602082015260400190565b919050565b6006546001600160a01b0316331461160e5760065460405163521eb56d60e11b81523360048201526001600160a01b039091166024820152604401610cf7565b805160000361163057604051637c946ed760e01b815260040160405180910390fd5b600861163c82826154ba565b507f5411e8ebf1636d9e83d5fc4900bf80cbac82e8790da2a4c94db4895e889eedf68160405161166c91906149a3565b60405180910390a150565b600f602052816000526040600020818154811061169357600080fd5b6000918252602090912001546001600160a01b03169150829050565b6000818152600260205260409020546001600160a01b0316806115c95760405162461bcd60e51b815260206004820152600a60248201527f4e4f545f4d494e544544000000000000000000000000000000000000000000006044820152606401610cf7565b60088054610bf4906153d4565b60006001600160a01b0382166117795760405162461bcd60e51b815260206004820152600c60248201527f5a45524f5f4144445245535300000000000000000000000000000000000000006044820152606401610cf7565b506001600160a01b031660009081526003602052604090205490565b600d60205281600052604060002081815481106117b157600080fd5b6000918252602090912001546001600160a01b0381169250600160a01b900463ffffffff16905082565b600081815260136020908152604080832081516101008101835281546001600160601b0381168252600160601b908190046001600160a01b031694820194909452600182015492810192909252600281015463ffffffff8082166060850152640100000000820481166080850152600160401b82041660a0840152849360c08401910460ff16600581111561187257611872614b60565b600581111561188357611883614b60565b81526020016003820180548060200260200160405190810160405280929190818152602001828054801561190257602002820191906000526020600020906000905b82829054906101000a900463ffffffff1663ffffffff16815260200190600401906020826003010492830192600103820291508084116118c55790505b50505050508152505090506004600581111561192057611920614b60565b8160c00151600581111561193657611936614b60565b14611975578060c00151600581111561195157611951614b60565b604051633c053f9d60e21b8152600481019190915260248101849052604401610cf7565b83518551146119a457845184516040516308151c1160e41b815260048101929092526024820152604401610cf7565b80602001516001600160a01b0316336001600160a01b0316146119f85760208101516040516379f91cd360e01b81523360048201526001600160a01b03909116602482015260448101849052606401610cf7565b845160005b81811015611c1d57600060116000898481518110611a1d57611a1d61540e565b6020908102919091018101516001600160a01b03908116835282820193909352604091820160009081205490931660a08a901b81178085526010909252919092205489519193506001600160601b03169081908a9086908110611a8257611a8261540e565b60200260200101516001611a96919061557a565b6001600160601b03161115611af057600b8054829190600090611ac39084906001600160601b031661557a565b92506101000a8154816001600160601b0302191690836001600160601b0316021790555060009050611b74565b888481518110611b0257611b0261540e565b6020908102919091010151600b8054600090611b289084906001600160601b031661557a565b92506101000a8154816001600160601b0302191690836001600160601b03160217905550888481518110611b5e57611b5e61540e565b602002602001015181611b7191906155a1565b90505b600082815260106020526040902080546bffffffffffffffffffffffff19166001600160601b038316179055885188906001600160a01b038516907fa2e524bd0f71903485fbb3d6d50cb305f61005ceea2047c3ac92aa7e0d104306908c9088908110611be357611be361540e565b6020026020010151604051611c0791906001600160601b0391909116815260200190565b60405180910390a35050508060010190506119fd565b5060019695505050505050565b6006546000906001600160a01b03163314611c6d5760065460405163521eb56d60e11b81523360048201526001600160a01b039091166024820152604401610cf7565b6001600160a01b038316611c945760405163d92e233d60e01b815260040160405180910390fd5b506001600160a01b03919091166000908152601260205260409020805460ff1916911515919091179055600190565b600c6020528160005260406000208181548110611cdf57600080fd5b90600052602060002001600091509150505481565b60018054610bf4906153d4565b60006001600a541115611d27576040516345f5ce8b60e11b815260040160405180910390fd5b6002600a55600b54600160601b90046001600160a01b03163314611d7957600b5460405163312d21ff60e11b8152336004820152600160601b9091046001600160a01b03166024820152604401610cf7565b50600b546001600160601b03168015611e5757600b80546bffffffffffffffffffffffff19169055604051600090339083908381818185875af1925050503d8060008114611de3576040519150601f19603f3d011682016040523d82523d6000602084013e611de8565b606091505b5050905080611e205760405163cd3f165960e01b81526000600482015230602482015233604482015260648101839052608401610cf7565b60405182815233907ff36f4d6622e16a536bbb049064af779cdd483a0b388d347d3752a65f1058bf5b9060200160405180910390a2505b6001600a5590565b3360008181526005602090815260408083206001600160a01b03871680855290835292819020805460ff191686151590811790915590519081529192917f17307eab39ab6107e8899845ad3d59bd9653f200f220920489ca2b5937696c31910160405180910390a35050565b6006546001600160a01b03163314611f0b5760065460405163521eb56d60e11b81523360048201526001600160a01b039091166024820152604401610cf7565b6001600160a01b038116611f325760405163d92e233d60e01b815260040160405180910390fd5b600780546001600160a01b0319166001600160a01b0383169081179091556040517f2c1c11af44aa5608f1dca38c00275c30ea091e02417d36e70e9a1538689c433d90600090a250565b6000806001600a541115611fa3576040516345f5ce8b60e11b815260040160405180910390fd5b6002600a556007546001600160a01b03163314611fe85760075460405163312d21ff60e11b81523360048201526001600160a01b039091166024820152604401610cf7565b6001600160a01b03841661200f5760405163d92e233d60e01b815260040160405180910390fd5b600083815260136020526040902060056002820154600160601b900460ff16600581111561203f5761203f614b60565b14612088576002810154600160601b900460ff16600581111561206457612064614b60565b604051633c053f9d60e21b8152600481019190915260248101859052604401610cf7565b60a084901b6001600160a01b038616176000818152600d6020908152604080832080548251818502810185019093528083529192909190849084015b8282101561211057600084815260209081902060408051808201909152908401546001600160a01b0381168252600160a01b900463ffffffff16818301528252600190920191016120c4565b505082519293505050600081900361214d5760405163df2ddd7360e01b81526001600160a01b038916600482015260248101889052604401610cf7565b808460020160088282829054906101000a900463ffffffff1661217091906155c1565b92506101000a81548163ffffffff021916908363ffffffff1602179055508360020160089054906101000a900463ffffffff1663ffffffff166000036121c65760028401805460ff60601b1916600160601b1790555b60005b8181101561228457600088905060208483815181106121ea576121ea61540e565b60209081029190910181015181015163ffffffff1690911b919091176000818152600e9092526040909120546122319064010000000090046001600160601b031688615457565b9650601160008584815181106122495761224961540e565b602090810291909101810151516001600160a01b0316825281019190915260400160002080546001600160a01b0319169055506001016121c9565b506000838152600d6020526040812061229c916147e6565b6000838152601060205260409020546001600160601b0316808611156122c957806001600160601b031695505b85156123c25760008481526010602052604080822080546bffffffffffffffffffffffff19169055516001600160a01b038b169088908381818185875af1925050503d8060008114612337576040519150601f19603f3d011682016040523d82523d6000602084013e61233c565b606091505b505090508061237d5760405163cd3f165960e01b8152600060048201523060248201526001600160a01b038b16604482015260648101889052608401610cf7565b896001600160a01b03167fbb28353e4598c3b9199101a66e0989549b659a59a54d2c27fbb183f1932c8e6d886040516123b891815260200190565b60405180910390a2505b60405188906001600160a01b038b16907f5ebf7fe30be09f0f03b9195632508d95c8b67bf010c93abda67f70d5d9599d1e90600090a350506001600a8190559793965092945050505050565b6000818152600c60209081526040808320805482518185028101850190935280835260609383018282801561246257602002820191906000526020600020905b81548152602001906001019080831161244e575b5050505050905080519150915091565b6006546001600160a01b031633146124b25760065460405163521eb56d60e11b81523360048201526001600160a01b039091166024820152604401610cf7565b6001600160a01b0381166124d95760405163d92e233d60e01b815260040160405180910390fd5b600680546001600160a01b0319166001600160a01b0383169081179091556040517f4ffd725fc4a22075e9ec71c59edf9c38cdeb588a91b24fc5b61388c5be41282b90600090a250565b61252e858585611146565b6001600160a01b0384163b1561260157604051630a85bd0160e11b808252906001600160a01b0386169063150b7a02906125749033908a908990899089906004016155de565b6020604051808303816000875af1158015612593573d6000803e3d6000fd5b505050506040513d601f19601f820116820180604052508101906125b79190615424565b6001600160e01b031916146126015760405162461bcd60e51b815260206004820152601060248201526f155394d0519157d49150d2541251539560821b6044820152606401610cf7565b5050505050565b6000818152601360205260408120600101546060915060086040518060400160405280600981526020016806630313730313232360bc1b81525061264b83614057565b612658608085901b614057565b60405160200161266b9493929190615632565b604051602081830303815290604052915050919050565b6007546000906001600160a01b031633146126c55760075460405163312d21ff60e11b81523360048201526001600160a01b039091166024820152604401610cf7565b60006126d0836116af565b9050876001600160a01b0316816001600160a01b0316146127175760405163521eb56d60e11b81526001600160a01b03808a16600483015282166024820152604401610cf7565b600083815260136020908152604080832081516101008101835281546001600160601b03811682526001600160a01b03600160601b918290041694820194909452600182015492810192909252600281015463ffffffff8082166060850152640100000000820481166080850152600160401b82041660a08401529192909160c084019160ff91041660058111156127b1576127b1614b60565b60058111156127c2576127c2614b60565b81526020016003820180548060200260200160405190810160405280929190818152602001828054801561284157602002820191906000526020600020906000905b82829054906101000a900463ffffffff1663ffffffff16815260200190600401906020826003010492830192600103820291508084116128045790505b50505050508152505090506001600581111561285f5761285f614b60565b8160c00151600581111561287557612875614b60565b14612890578060c00151600581111561206457612064614b60565b61289b888888614227565b63ffffffff85166060820152600060808201819052875167ffffffffffffffff8111156128ca576128ca614bf3565b6040519080825280602002602001820160405280156128f3578160200160208202803683370190505b5090506000885167ffffffffffffffff81111561291257612912614bf3565b60405190808252806020026020018201604052801561295757816020015b60408051808201909152600080825260208201528152602001906001900390816129305790505b5090506000805b8a51811015612a82578981815181106129795761297961540e565b60200260200101516000015163ffffffff166000036129ee57600088905060208c83815181106129ab576129ab61540e565b60209081029190910181015163ffffffff1690911b919091176000908152600e9091526040902080546fffffffffffffffffffffffffffffffff19169055612a7a565b8a8181518110612a0057612a0061540e565b6020026020010151848381518110612a1a57612a1a61540e565b602002602001019063ffffffff16908163ffffffff1681525050898181518110612a4657612a4661540e565b6020026020010151838381518110612a6057612a6061540e565b60200260200101819052508180612a76906156c4565b9250505b60010161295e565b5060408401518b8114612ab9576000888152600c602090815260408083208054600181018255908452919092200182905585018c90525b612ac6858585858c61432f565b6000888152601360209081526040918290208751918801516001600160a01b0316600160601b9081026001600160601b03909316929092178155918701516001830155606087015160028301805460808a015160a08b015163ffffffff908116600160401b026bffffffff0000000000000000199282166401000000000267ffffffffffffffff199094169190951617919091179081168317825560c08a01518a9594909360ff60601b19166cffffffffff0000000000000000199092169190911790836005811115612b9b57612b9b614b60565b021790555060e08201518051612bbb916003840191602090910190614807565b50506040518d81528991507fff312ce131c4d73ac90ece91266be7090486c5e15f78b7ea2b108c36dfd475299060200160405180910390a25060019c9b505050505050505050505050565b6000806001600a541115612c2d576040516345f5ce8b60e11b815260040160405180910390fd5b6002600a556007546001600160a01b03163314612c725760075460405163312d21ff60e11b81523360048201526001600160a01b039091166024820152604401610cf7565b6000612c7d846116af565b9050846001600160a01b0316816001600160a01b031614612cc45760405163521eb56d60e11b81526001600160a01b03808716600483015282166024820152604401610cf7565b600084815260136020526040902060016002820154600160601b900460ff166005811115612cf457612cf4614b60565b1480612d1f575060056002820154600160601b900460ff166005811115612d1d57612d1d614b60565b145b15612d68576002810154600160601b900460ff166005811115612d4457612d44614b60565b604051633c053f9d60e21b8152600481019190915260248101869052604401610cf7565b6002810154600160401b900463ffffffff1615612da25760028101805460ff60601b19166c05000000000000000000000000179055612db8565b60028101805460ff60601b1916600160601b1790555b60005b6003820154811015612e3d5760008690506020836003018381548110612de357612de361540e565b90600052602060002090600891828204019190066004029054906101000a900463ffffffff1663ffffffff16901b81179050600f60008281526020019081526020016000206000612e3491906148b6565b50600101612dbb565b5080546040516001600160601b0390911693506000906001600160a01b0388169085908381818185875af1925050503d8060008114612e98576040519150601f19603f3d011682016040523d82523d6000602084013e612e9d565b606091505b5050905080612ede5760405163cd3f165960e01b8152600060048201523060248201526001600160a01b038816604482015260648101859052608401610cf7565b866001600160a01b03167fbb28353e4598c3b9199101a66e0989549b659a59a54d2c27fbb183f1932c8e6d85604051612f1991815260200190565b60405180910390a260405186907fe45f5b9540df4f71b7e044809fa318806328c1ea2388a70c7373d97ccf8a0faa90600090a250506001600a819055959194509092505050565b6007546000906001600160a01b03163314612fa35760075460405163312d21ff60e11b81523360048201526001600160a01b039091166024820152604401610cf7565b8151835114612fd257825182516040516308151c1160e41b815260048101929092526024820152604401610cf7565b6000848152601360205260409020600280820154600160601b900460ff16600581111561300157613001614b60565b14613026576002810154600160601b900460ff166005811115612d4457612d44614b60565b83516000805b82811015613115576000889050602087838151811061304d5761304d61540e565b60209081029190910181015163ffffffff90811690921b929092176000818152600e845260408082208151808301909252549384168082526401000000009094046001600160601b03169481019490945290929190036130ee578783815181106130b9576130b961540e565b60200260200101518a6040516332832be560e21b8152600401610cf792919063ffffffff929092168252602082015260400190565b6020810151613106906001600160601b031685615457565b9350505080600101905061302c565b5080341461314657604051637ebbcab960e11b81523460048201526024810182905260448101889052606401610cf7565b6001600160a01b038881166000908152601160205260409020541615613182576040516322ddebd960e21b815260048101889052602401610cf7565b60a087901b6001600160a01b0389161760005b838110156134705760008882815181106131b1576131b161540e565b6020026020010151905060008883815181106131cf576131cf61540e565b60200260200101519050816001600160a01b03168c6001600160a01b03160361320e576040516322ddebd960e21b8152600481018c9052602401610cf7565b6001600160a01b038281166000908152601160205260409020541615613265576001600160a01b038281166000908152601160205260409081902054905163631695bd60e01b815291166004820152602401610cf7565b60008b905060208a858151811061327e5761327e61540e565b60209081029190910181015163ffffffff90811690921b929092176000818152600e8452604080822054600f909552902054909290911690036132d7576040516304ad100760e21b8152600481018d9052602401610cf7565b6000818152600f602090815260408083208054600181810183559185528385200180546001600160a01b03808a166001600160a01b031990921682179092558a8652600d8552838620845180860190955290845263ffffffff8089168587019081528254948501835591875294909520925192909101805494518416600160a01b0277ffffffffffffffffffffffffffffffffffffffffffffffff19909516929091169190911792909217909155600289018054600160401b90049091169060086133a1836156dd565b91906101000a81548163ffffffff021916908363ffffffff160217905550508c60116000856001600160a01b03166001600160a01b0316815260200190815260200160002060006101000a8154816001600160a01b0302191690836001600160a01b03160217905550826001600160a01b03168c8e6001600160a01b03167f6835389a6da5341647f18cbe0a89c56f473f4c17bfaee6e6d07d61f1928e0b7c8560405161345a919063ffffffff91909116815260200190565b60405180910390a4505050806001019050613195565b50600284015463ffffffff64010000000082048116600160401b90920416036134b25760028401805460ff60601b19166c030000000000000000000000001790555b600081815260106020526040812080543492906134d99084906001600160601b031661557a565b92506101000a8154816001600160601b0302191690836001600160601b03160217905550886001600160a01b03167fe1fffcc4923d04b559f4d29a8bfc6cda04eb5b0d3c460751c2402c5c5cc9109c3460405161353891815260200190565b60405180910390a250600198975050505050505050565b6007546000906001600160a01b031633146135925760075460405163312d21ff60e11b81523360048201526001600160a01b039091166024820152604401610cf7565b600061359d836116af565b9050836001600160a01b0316816001600160a01b0316146135e45760405163521eb56d60e11b81526001600160a01b03808616600483015282166024820152604401610cf7565b600083815260136020526040902060016002820154600160601b900460ff16600581111561361457613614614b60565b1461363557604051635960d22f60e11b815260048101859052602401610cf7565b80546001600160601b0316341461367a578054604051631c30abbb60e31b81523460048201526001600160601b03909116602482015260448101859052606401610cf7565b60028101805460ff60601b19166c0200000000000000000000000017905560405184907fa48b531f972c0e4aca57afcc5c099c52a7bd21bc5e2a1b733eec3be9e88da97a90600090a2506001949350505050565b6137166040805161010081018252600080825260208201819052918101829052606081018290526080810182905260a081018290529060c08201908152602001606081525090565b60008281526013602090815260409182902082516101008101845281546001600160601b0381168252600160601b908190046001600160a01b031693820193909352600182015493810193909352600281015463ffffffff8082166060860152640100000000820481166080860152600160401b82041660a0850152909160c08401910460ff1660058111156137ae576137ae614b60565b60058111156137bf576137bf614b60565b81526020016003820180548060200260200160405190810160405280929190818152602001828054801561383e57602002820191906000526020600020906000905b82829054906101000a900463ffffffff1663ffffffff16815260200190600401906020826003010492830192600103820291508084116138015790505b5050505050815250509050919050565b60006001600a541115613874576040516345f5ce8b60e11b815260040160405180910390fd5b6002600a556007546001600160a01b031633146138b95760075460405163312d21ff60e11b81523360048201526001600160a01b039091166024820152604401610cf7565b60006138c4856116af565b9050856001600160a01b0316816001600160a01b03161461390b5760405163521eb56d60e11b81526001600160a01b03808816600483015282166024820152604401610cf7565b6001600160a01b03841660009081526012602052604090205460ff1661394e5760405162a2307960e51b81526001600160a01b0385166004820152602401610cf7565b600085815260136020526040902060036002820154600160601b900460ff16600581111561397e5761397e614b60565b146139c7576002810154600160601b900460ff1660058111156139a3576139a3614b60565b604051633c053f9d60e21b8152600481019190915260248101879052604401610cf7565b604080516101008101825282546001600160601b0381168252600160601b908190046001600160a01b03166020830152600184015492820192909252600283015463ffffffff8082166060840152640100000000820481166080840152600160401b82041660a0830152600092613af49291859160c08401910460ff166005811115613a5557613a55614b60565b6005811115613a6657613a66614b60565b815260200160038201805480602002602001604051908101604052809291908181526020018280548015613ae557602002820191906000526020600020906000905b82829054906101000a900463ffffffff1663ffffffff1681526020019060040190602082600301049283019260010382029150808411613aa85790505b50505050508152505088613f1c565b6002830154604051631e731b7560e31b81529192506001600160a01b0388169163f398dba891613b3191859163ffffffff16908a90600401615700565b6020604051808303816000875af1158015613b50573d6000803e3d6000fd5b505050506040513d601f19601f82011682018060405250810190613b74919061573b565b82546001600160601b0316600160601b6001600160a01b03831690810291909117845560028401805460ff60601b19166c040000000000000000000000001790556040519195509088907f2d53f895cd5faf3cddba94a25c2ced2105885b5b37450ff430ffa3cbdf332c7490600090a360405187907fa133ed72c03a7d008deaae618a61613c4fd41c67bba1cad1a6bc0a1c5a9c156e90600090a250506001600a5550949350505050565b60006001600a541115613c45576040516345f5ce8b60e11b815260040160405180910390fd5b6002600a556007546001600160a01b03163314613c8a5760075460405163312d21ff60e11b81523360048201526001600160a01b039091166024820152604401610cf7565b6001600160a01b038616613cb15760405163d92e233d60e01b815260040160405180910390fd5b613cbc858585614227565b60005b8451811015613d4657838181518110613cda57613cda61540e565b60200260200101516000015163ffffffff1660001480613d205750838181518110613d0757613d0761540e565b6020026020010151602001516001600160601b03166000145b15613d3e57604051637c946ed760e01b815260040160405180910390fd5b600101613cbf565b505060095480613d55816156c4565b915050613da06040805161010081018252600080825260208201819052918101829052606081018290526080810182905260a081018290529060c08201908152602001606081525090565b63ffffffff8316606082015260408101869052600160c082018181525050613dcc81868688518661432f565b6000828152601360209081526040918290208351918401516001600160a01b0316600160601b9081026001600160601b039093169290921781559183015160018301556060830151600283018054608086015160a087015163ffffffff908116600160401b026bffffffff0000000000000000199282166401000000000267ffffffffffffffff199094169190951617919091179081168317825560c0860151869594909360ff60601b19166cffffffffff0000000000000000199092169190911790836005811115613ea157613ea1614b60565b021790555060e08201518051613ec1916003840191602090910190614807565b5050506009829055613ed387836145dc565b817fb34c1e02384201736eb4693b9b173306cb41bff12f15894dea5773088e9a3b1c87604051613f0591815260200190565b60405180910390a2506001600a5595945050505050565b60608260a0015163ffffffff1667ffffffffffffffff811115613f4157613f41614bf3565b604051908082528060200260200182016040528015613f6a578160200160208202803683370190505b5090506000805b8460e001515181101561404f57600084905060208660e001518381518110613f9b57613f9b61540e565b602002602001015163ffffffff16901b8117905060005b6000828152600f6020526040902054811015614045576000828152600f60205260409020805482908110613fe857613fe861540e565b9060005260206000200160009054906101000a90046001600160a01b03168585815181106140185761401861540e565b6001600160a01b03909216602092830291909101909101528361403a816156c4565b945050600101613fb2565b5050600101613f71565b505092915050565b7aff00000000000000ff00000000000000ff00000000000000ff00006bffffffff0000000000000000604083901c9081167bffffffff00000000000000000000000000000000000000000000000084161760201c6fffffffff000000000000000000000000919091166001600160e01b031984161717601081901c9182167eff00000000000000ff00000000000000ff00000000000000ff000000000000821617600890811c7bff00000000000000ff00000000000000ff00000000000000ff000000939093167fff00000000000000ff00000000000000ff00000000000000ff000000000000009290921691909117919091179081901c7e0f000f000f000f000f000f000f000f000f000f000f000f000f000f000f000f167f0f000f000f000f000f000f000f000f000f000f000f000f000f000f000f000f00600492831c1617906141c3827f0606060606060606060606060606060606060606060606060606060606060606615457565b901c7f0f0f0f0f0f0f0f0f0f0f0f0f0f0f0f0f0f0f0f0f0f0f0f0f0f0f0f0f0f0f0f0f1660276141f39190615758565b61421d827f3030303030303030303030303030303030303030303030303030303030303030615457565b610be19190615457565b600083900361424957604051637c946ed760e01b815260040160405180910390fd5b8151158061425957508051825114155b1561428457815181516040516308151c1160e41b815260048101929092526024820152604401610cf7565b6000805b83518110156126015761429c826001615457565b8482815181106142ae576142ae61540e565b602002602001015163ffffffff161015614302578381815181106142d4576142d461540e565b6020026020010151604051632ab10b0b60e21b8152600401610cf7919063ffffffff91909116815260200190565b8381815181106143145761431461540e565b602090810291909101015163ffffffff169150600101614288565b60008267ffffffffffffffff81111561434a5761434a614bf3565b604051908082528060200260200182016040528015614373578160200160208202803683370190505b5060e087015260005b838110156144f9578581815181106143965761439661540e565b60200260200101518760e0015182815181106143b4576143b461540e565b63ffffffff90921660209283029190910182015286518491908890849081106143df576143df61540e565b602002602001015163ffffffff16901b811790508582815181106144055761440561540e565b6020908102919091018101516000838152600e8352604090208151815492909301516001600160601b0316640100000000026fffffffffffffffffffffffffffffffff1990921663ffffffff90931692909217179055855186908390811061446f5761446f61540e565b6020026020010151600001518860800181815161448c919061576f565b63ffffffff1690525085516001600160601b038416908790849081106144b4576144b461540e565b6020026020010151602001516001600160601b031611156144f0578582815181106144e1576144e161540e565b60200260200101516020015192505b5060010161437c565b506001600160601b0381168652608086015160009061451990600261578c565b61452490600161576f565b63ffffffff1690506145376003826157c2565b600003614550576145496003826157d6565b9050614569565b61455b6003826157d6565b614566906001615457565b90505b80876060015163ffffffff1610806145945750866080015163ffffffff16876060015163ffffffff16115b156145d3576060870151608088015160405163eb3a8ba360e01b815263ffffffff92831660048201526024810184905291166044820152606401610cf7565b50505050505050565b6145e682826146cc565b6001600160a01b0382163b156146c857604051630a85bd0160e11b80825233600483015260006024830181905260448301849052608060648401526084830152906001600160a01b0384169063150b7a029060a4016020604051808303816000875af115801561465a573d6000803e3d6000fd5b505050506040513d601f19601f8201168201806040525081019061467e9190615424565b6001600160e01b031916146146c85760405162461bcd60e51b815260206004820152601060248201526f155394d0519157d49150d2541251539560821b6044820152606401610cf7565b5050565b6001600160a01b0382166147165760405162461bcd60e51b81526020600482015260116024820152701253959053125117d49150d25412515395607a1b6044820152606401610cf7565b6000818152600260205260409020546001600160a01b03161561477b5760405162461bcd60e51b815260206004820152600e60248201527f414c52454144595f4d494e5445440000000000000000000000000000000000006044820152606401610cf7565b6001600160a01b038216600081815260036020908152604080832080546001019055848352600290915280822080546001600160a01b0319168417905551839291907fddf252ad1be2c89b69c2b068fc378daa952ba7f163c4a11628f55a4df523b3ef908290a45050565b508054600082559060005260206000209081019061480491906148d4565b50565b828054828255906000526020600020906007016008900481019282156148a65791602002820160005b8382111561487457835183826101000a81548163ffffffff021916908363ffffffff1602179055509260200192600401602081600301049283019260010302614830565b80156148a45782816101000a81549063ffffffff0219169055600401602081600301049283019260010302614874565b505b506148b2929150614904565b5090565b50805460008255906000526020600020908101906148049190614904565b5b808211156148b257805477ffffffffffffffffffffffffffffffffffffffffffffffff191681556001016148d5565b5b808211156148b25760008155600101614905565b6001600160e01b03198116811461480457600080fd5b60006020828403121561494157600080fd5b813561494c81614919565b9392505050565b60005b8381101561496e578181015183820152602001614956565b50506000910152565b6000815180845261498f816020860160208601614953565b601f01601f19169290920160200192915050565b60208152600061494c6020830184614977565b6000602082840312156149c857600080fd5b5035919050565b6001600160a01b038116811461480457600080fd5b600080604083850312156149f757600080fd5b8235614a02816149cf565b946020939093013593505050565b600060208284031215614a2257600080fd5b813561494c816149cf565b6000604080830185845260206040602086015281865180845260608701915060208801935060005b81811015614a89578451805163ffffffff1684528401516001600160601b0316848401529383019391850191600101614a55565b509098975050505050505050565b60008060408385031215614aaa57600080fd5b50508035926020909101359150565b60008151808452602080850194506020840160005b83811015614af35781516001600160a01b031687529582019590820190600101614ace565b509495945050505050565b828152604060208201526000614b176040830184614ab9565b949350505050565b600080600060608486031215614b3457600080fd5b8335614b3f816149cf565b92506020840135614b4f816149cf565b929592945050506040919091013590565b634e487b7160e01b600052602160045260246000fd5b60068110614b9457634e487b7160e01b600052602160045260246000fd5b9052565b6001600160601b03881681526001600160a01b03871660208201526040810186905263ffffffff85811660608301528481166080830152831660a082015260e08101614be760c0830184614b76565b98975050505050505050565b634e487b7160e01b600052604160045260246000fd5b6040805190810167ffffffffffffffff81118282101715614c2c57614c2c614bf3565b60405290565b604051601f8201601f1916810167ffffffffffffffff81118282101715614c5b57614c5b614bf3565b604052919050565b600067ffffffffffffffff831115614c7d57614c7d614bf3565b614c90601f8401601f1916602001614c32565b9050828152838383011115614ca457600080fd5b828260208301376000602084830101529392505050565b600060208284031215614ccd57600080fd5b813567ffffffffffffffff811115614ce457600080fd5b8201601f81018413614cf557600080fd5b614b1784823560208401614c63565b600067ffffffffffffffff821115614d1e57614d1e614bf3565b5060051b60200190565b600082601f830112614d3957600080fd5b81356020614d4e614d4983614d04565b614c32565b8083825260208201915060208460051b870101935086841115614d7057600080fd5b602086015b84811015614d95578035614d88816149cf565b8352918301918301614d75565b509695505050505050565b80356001600160601b03811681146115c957600080fd5b600080600060608486031215614dcc57600080fd5b833567ffffffffffffffff80821115614de457600080fd5b614df087838801614d28565b9450602091508186013581811115614e0757600080fd5b86019050601f81018713614e1a57600080fd5b8035614e28614d4982614d04565b81815260059190911b82018301908381019089831115614e4757600080fd5b928401925b82841015614e6c57614e5d84614da0565b82529284019290840190614e4c565b96999698505050506040949094013593505050565b60008060408385031215614e9457600080fd5b8235614e9f816149cf565b915060208301358015158114614eb457600080fd5b809150509250929050565b60006040820184835260206040602085015281855180845260608601915060208701935060005b81811015614f0257845183529383019391830191600101614ee6565b5090979650505050505050565b600080600080600060808688031215614f2757600080fd5b8535614f32816149cf565b94506020860135614f42816149cf565b935060408601359250606086013567ffffffffffffffff80821115614f6657600080fd5b818801915088601f830112614f7a57600080fd5b813581811115614f8957600080fd5b896020828501011115614f9b57600080fd5b9699959850939650602001949392505050565b803563ffffffff811681146115c957600080fd5b600082601f830112614fd357600080fd5b81356020614fe3614d4983614d04565b8083825260208201915060208460051b87010193508684111561500557600080fd5b602086015b84811015614d955761501b81614fae565b835291830191830161500a565b600082601f83011261503957600080fd5b81356020615049614d4983614d04565b82815260069290921b8401810191818101908684111561506857600080fd5b8286015b84811015614d9557604081890312156150855760008081fd5b61508d614c09565b61509682614fae565b81526150a3858301614da0565b8186015283529183019160400161506c565b60008060008060008060c087890312156150ce57600080fd5b86356150d9816149cf565b955060208701359450604087013567ffffffffffffffff808211156150fd57600080fd5b6151098a838b01614fc2565b9550606089013591508082111561511f57600080fd5b5061512c89828a01615028565b93505061513b60808801614fae565b915060a087013590509295509295509295565b6000806000806080858703121561516457600080fd5b843561516f816149cf565b935060208501359250604085013567ffffffffffffffff8082111561519357600080fd5b61519f88838901614d28565b935060608701359150808211156151b557600080fd5b506151c287828801614fc2565b91505092959194509250565b600080604083850312156151e157600080fd5b82356151ec816149cf565b91506020830135614eb4816149cf565b60008151808452602080850194506020840160005b83811015614af357815163ffffffff1687529582019590820190600101615211565b602081526001600160601b0382511660208201526001600160a01b036020830151166040820152604082015160608201526000606083015161527d608084018263ffffffff169052565b50608083015163ffffffff811660a08401525060a083015163ffffffff811660c08401525060c08301516152b460e0840182614b76565b5060e083015161010083810152614b176101208401826151fc565b600080600080608085870312156152e557600080fd5b84356152f0816149cf565b9350602085013592506040850135615307816149cf565b9150606085013567ffffffffffffffff81111561532357600080fd5b8501601f8101871361533457600080fd5b6151c287823560208401614c63565b600080600080600060a0868803121561535b57600080fd5b8535615366816149cf565b945060208601359350604086013567ffffffffffffffff8082111561538a57600080fd5b61539689838a01614fc2565b945060608801359150808211156153ac57600080fd5b506153b988828901615028565b9250506153c860808701614fae565b90509295509295909350565b600181811c908216806153e857607f821691505b60208210810361540857634e487b7160e01b600052602260045260246000fd5b50919050565b634e487b7160e01b600052603260045260246000fd5b60006020828403121561543657600080fd5b815161494c81614919565b634e487b7160e01b600052601160045260246000fd5b80820180821115610be157610be1615441565b601f821115611410576000816000526020600020601f850160051c810160208610156154935750805b601f850160051c820191505b818110156154b25782815560010161549f565b505050505050565b815167ffffffffffffffff8111156154d4576154d4614bf3565b6154e8816154e284546153d4565b8461546a565b602080601f83116001811461551d57600084156155055750858301515b600019600386901b1c1916600185901b1785556154b2565b600085815260208120601f198616915b8281101561554c5788860151825594840194600190910190840161552d565b508582101561556a5787850151600019600388901b60f8161c191681555b5050505050600190811b01905550565b6001600160601b0381811683821601908082111561559a5761559a615441565b5092915050565b6001600160601b0382811682821603908082111561559a5761559a615441565b63ffffffff82811682821603908082111561559a5761559a615441565b60006001600160a01b03808816835280871660208401525084604083015260806060830152826080830152828460a0840137600060a0848401015260a0601f19601f85011683010190509695505050505050565b6000808654615640816153d4565b60018281168015615658576001811461566d5761569c565b60ff198416875282151583028701945061569c565b8a60005260208060002060005b858110156156935781548a82015290840190820161567a565b50505082870194505b5050505085516156b0818360208a01614953565b019384525050602082015260400192915050565b6000600182016156d6576156d6615441565b5060010190565b600063ffffffff8083168181036156f6576156f6615441565b6001019392505050565b6060815260006157136060830186614ab9565b63ffffffff8516602084015282810360408401526157318185614977565b9695505050505050565b60006020828403121561574d57600080fd5b815161494c816149cf565b8082028115828204841417610be157610be1615441565b63ffffffff81811683821601908082111561559a5761559a615441565b63ffffffff81811683821602808216919082811461404f5761404f615441565b634e487b7160e01b600052601260045260246000fd5b6000826157d1576157d16157ac565b500690565b6000826157e5576157e56157ac565b50049056fea2646970667358221220001599f9a184266e9e5a874dffd64276a4e7bb33b4140a66a8fe43c5f040d06964736f6c63430008170033",
  "linkReferences": {},
  "deployedLinkReferences": {}
}