{
  "_format": "hh-sol-artifact-1",
  "contractName": "ServiceManagerToken",
  "sourceName": "contracts/ServiceManagerToken.sol",
  "abi": [
    {
      "inputs": [
        {
          "internalType": "address",
          "name": "_serviceRegistry",
          "type": "address"
        },
        {
          "internalType": "address",
          "name": "_serviceRegistryTokenUtility",
          "type": "address"
        },
        {
          "internalType": "address",
          "name": "_operatorWhitelist",
          "type": "address"
        }
      ],
      "stateMutability": "nonpayable",
      "type": "constructor"
    },
    {
      "inputs": [
        {
          "internalType": "address",
          "name": "operator",
          "type": "address"
        }
      ],
      "name": "AgentInstanceRegistered",
      "type": "error"
    },
    {
      "inputs": [
        {
          "internalType": "uint256",
          "name": "serviceId",
          "type": "uint256"
        }
      ],
      "name": "AgentInstancesSlotsFilled",
      "type": "error"
    },
    {
      "inputs": [
        {
          "internalType": "uint256",
          "name": "agentId",
          "type": "uint256"
        }
      ],
      "name": "AgentNotFound",
      "type": "error"
    },
    {
      "inputs": [
        {
          "internalType": "uint256",
          "name": "agentId",
          "type": "uint256"
        },
        {
          "internalType": "uint256",
          "name": "serviceId",
          "type": "uint256"
        }
      ],
      "name": "AgentNotInService",
      "type": "error"
    },
    {
      "inputs": [
        {
          "internalType": "uint256",
          "name": "componentId",
          "type": "uint256"
        }
      ],
      "name": "ComponentNotFound",
      "type": "error"
    },
    {
      "inputs": [],
      "name": "HashExists",
      "type": "error"
    },
    {
      "inputs": [
        {
          "internalType": "address",
          "name": "operator",
          "type": "address"
        },
        {
          "internalType": "bytes32",
          "name": "msgHash",
          "type": "bytes32"
        },
        {
          "internalType": "bytes",
          "name": "signature",
          "type": "bytes"
        }
      ],
      "name": "HashNotApproved",
      "type": "error"
    },
    {
      "inputs": [
        {
          "internalType": "address",
          "name": "operator",
          "type": "address"
        },
        {
          "internalType": "bytes32",
          "name": "msgHash",
          "type": "bytes32"
        },
        {
          "internalType": "bytes",
          "name": "signature",
          "type": "bytes"
        }
      ],
      "name": "HashNotValidated",
      "type": "error"
    },
    {
      "inputs": [
        {
          "internalType": "uint256",
          "name": "sent",
          "type": "uint256"
        },
        {
          "internalType": "uint256",
          "name": "expected",
          "type": "uint256"
        },
        {
          "internalType": "uint256",
          "name": "serviceId",
          "type": "uint256"
        }
      ],
      "name": "IncorrectAgentBondingValue",
      "type": "error"
    },
    {
      "inputs": [
        {
          "internalType": "uint256",
          "name": "sent",
          "type": "uint256"
        },
        {
          "internalType": "uint256",
          "name": "expected",
          "type": "uint256"
        },
        {
          "internalType": "uint256",
          "name": "serviceId",
          "type": "uint256"
        }
      ],
      "name": "IncorrectRegistrationDepositValue",
      "type": "error"
    },
    {
      "inputs": [
        {
          "internalType": "bytes",
          "name": "signature",
          "type": "bytes"
        },
        {
          "internalType": "uint256",
          "name": "provided",
          "type": "uint256"
        },
        {
          "internalType": "uint256",
          "name": "expected",
          "type": "uint256"
        }
      ],
      "name": "IncorrectSignatureLength",
      "type": "error"
    },
    {
      "inputs": [
        {
          "internalType": "address",
          "name": "sender",
          "type": "address"
        },
        {
          "internalType": "address",
          "name": "manager",
          "type": "address"
        }
      ],
      "name": "ManagerOnly",
      "type": "error"
    },
    {
      "inputs": [
        {
          "internalType": "address",
          "name": "provided",
          "type": "address"
        },
        {
          "internalType": "address",
          "name": "expected",
          "type": "address"
        },
        {
          "internalType": "uint256",
          "name": "serviceId",
          "type": "uint256"
        }
      ],
      "name": "OnlyOwnServiceMultisig",
      "type": "error"
    },
    {
      "inputs": [
        {
          "internalType": "address",
          "name": "operator",
          "type": "address"
        },
        {
          "internalType": "uint256",
          "name": "serviceId",
          "type": "uint256"
        }
      ],
      "name": "OperatorHasNoInstances",
      "type": "error"
    },
    {
      "inputs": [
        {
          "internalType": "uint256",
          "name": "provided",
          "type": "uint256"
        },
        {
          "internalType": "uint256",
          "name": "max",
          "type": "uint256"
        }
      ],
      "name": "Overflow",
      "type": "error"
    },
    {
      "inputs": [
        {
          "internalType": "address",
          "name": "sender",
          "type": "address"
        },
        {
          "internalType": "address",
          "name": "owner",
          "type": "address"
        }
      ],
      "name": "OwnerOnly",
      "type": "error"
    },
    {
      "inputs": [],
      "name": "Paused",
      "type": "error"
    },
    {
      "inputs": [],
      "name": "ReentrancyGuard",
      "type": "error"
    },
    {
      "inputs": [
        {
          "internalType": "uint256",
          "name": "serviceId",
          "type": "uint256"
        }
      ],
      "name": "ServiceMustBeInactive",
      "type": "error"
    },
    {
      "inputs": [
        {
          "internalType": "address",
          "name": "token",
          "type": "address"
        },
        {
          "internalType": "address",
          "name": "from",
          "type": "address"
        },
        {
          "internalType": "address",
          "name": "to",
          "type": "address"
        },
        {
          "internalType": "uint256",
          "name": "value",
          "type": "uint256"
        }
      ],
      "name": "TransferFailed",
      "type": "error"
    },
    {
      "inputs": [
        {
          "internalType": "address",
          "name": "multisig",
          "type": "address"
        }
      ],
      "name": "UnauthorizedMultisig",
      "type": "error"
    },
    {
      "inputs": [
        {
          "internalType": "uint256",
          "name": "agentId",
          "type": "uint256"
        }
      ],
      "name": "WrongAgentId",
      "type": "error"
    },
    {
      "inputs": [
        {
          "internalType": "uint256",
          "name": "numValues1",
          "type": "uint256"
        },
        {
          "internalType": "uint256",
          "name": "numValues2",
          "type": "uint256"
        }
      ],
      "name": "WrongArrayLength",
      "type": "error"
    },
    {
      "inputs": [
        {
          "internalType": "uint256",
          "name": "serviceId",
          "type": "uint256"
        }
      ],
      "name": "WrongOperator",
      "type": "error"
    },
    {
      "inputs": [
        {
          "internalType": "address",
          "name": "provided",
          "type": "address"
        },
        {
          "internalType": "address",
          "name": "expected",
          "type": "address"
        }
      ],
      "name": "WrongOperatorAddress",
      "type": "error"
    },
    {
      "inputs": [
        {
          "internalType": "uint256",
          "name": "state",
          "type": "uint256"
        },
        {
          "internalType": "uint256",
          "name": "serviceId",
          "type": "uint256"
        }
      ],
      "name": "WrongServiceState",
      "type": "error"
    },
    {
      "inputs": [
        {
          "internalType": "uint256",
          "name": "currentThreshold",
          "type": "uint256"
        },
        {
          "internalType": "uint256",
          "name": "minThreshold",
          "type": "uint256"
        },
        {
          "internalType": "uint256",
          "name": "maxThreshold",
          "type": "uint256"
        }
      ],
      "name": "WrongThreshold",
      "type": "error"
    },
    {
      "inputs": [],
      "name": "ZeroAddress",
      "type": "error"
    },
    {
      "inputs": [],
      "name": "ZeroOperatorAddress",
      "type": "error"
    },
    {
      "inputs": [],
      "name": "ZeroValue",
      "type": "error"
    },
    {
      "anonymous": false,
      "inputs": [
        {
          "indexed": true,
          "internalType": "address",
          "name": "multisig",
          "type": "address"
        }
      ],
      "name": "CreateMultisig",
      "type": "event"
    },
    {
      "anonymous": false,
      "inputs": [
        {
          "indexed": true,
          "internalType": "address",
          "name": "operator",
          "type": "address"
        },
        {
          "indexed": false,
          "internalType": "bytes32",
          "name": "hash",
          "type": "bytes32"
        }
      ],
      "name": "OperatorHashApproved",
      "type": "event"
    },
    {
      "anonymous": false,
      "inputs": [
        {
          "indexed": true,
          "internalType": "address",
          "name": "operatorWhitelist",
          "type": "address"
        }
      ],
      "name": "OperatorWhitelistUpdated",
      "type": "event"
    },
    {
      "anonymous": false,
      "inputs": [
        {
          "indexed": true,
          "internalType": "address",
          "name": "owner",
          "type": "address"
        }
      ],
      "name": "OwnerUpdated",
      "type": "event"
    },
    {
      "anonymous": false,
      "inputs": [
        {
          "indexed": true,
          "internalType": "address",
          "name": "owner",
          "type": "address"
        }
      ],
      "name": "Pause",
      "type": "event"
    },
    {
      "anonymous": false,
      "inputs": [
        {
          "indexed": true,
          "internalType": "address",
          "name": "owner",
          "type": "address"
        }
      ],
      "name": "Unpause",
      "type": "event"
    },
    {
      "inputs": [],
      "name": "BOND_WRAPPER",
      "outputs": [
        {
          "internalType": "uint96",
          "name": "",
          "type": "uint96"
        }
      ],
      "stateMutability": "view",
      "type": "function"
    },
    {
      "inputs": [],
      "name": "DOMAIN_SEPARATOR_TYPE_HASH",
      "outputs": [
        {
          "internalType": "bytes32",
          "name": "",
          "type": "bytes32"
        }
      ],
      "stateMutability": "view",
      "type": "function"
    },
    {
      "inputs": [],
      "name": "ETH_TOKEN_ADDRESS",
      "outputs": [
        {
          "internalType": "address",
          "name": "",
          "type": "address"
        }
      ],
      "stateMutability": "view",
      "type": "function"
    },
    {
      "inputs": [],
      "name": "REGISTER_AGENTS_TYPE_HASH",
      "outputs": [
        {
          "internalType": "bytes32",
          "name": "",
          "type": "bytes32"
        }
      ],
      "stateMutability": "view",
      "type": "function"
    },
    {
      "inputs": [],
      "name": "UNBOND_TYPE_HASH",
      "outputs": [
        {
          "internalType": "bytes32",
          "name": "",
          "type": "bytes32"
        }
      ],
      "stateMutability": "view",
      "type": "function"
    },
    {
      "inputs": [
        {
          "internalType": "uint256",
          "name": "serviceId",
          "type": "uint256"
        }
      ],
      "name": "activateRegistration",
      "outputs": [
        {
          "internalType": "bool",
          "name": "success",
          "type": "bool"
        }
      ],
      "stateMutability": "payable",
      "type": "function"
    },
    {
      "inputs": [],
      "name": "chainId",
      "outputs": [
        {
          "internalType": "uint256",
          "name": "",
          "type": "uint256"
        }
      ],
      "stateMutability": "view",
      "type": "function"
    },
    {
      "inputs": [
        {
          "internalType": "address",
          "name": "newOwner",
          "type": "address"
        }
      ],
      "name": "changeOwner",
      "outputs": [],
      "stateMutability": "nonpayable",
      "type": "function"
    },
    {
      "inputs": [
        {
          "internalType": "address",
          "name": "serviceOwner",
          "type": "address"
        },
        {
          "internalType": "address",
          "name": "token",
          "type": "address"
        },
        {
          "internalType": "bytes32",
          "name": "configHash",
          "type": "bytes32"
        },
        {
          "internalType": "uint32[]",
          "name": "agentIds",
          "type": "uint32[]"
        },
        {
          "components": [
            {
              "internalType": "uint32",
              "name": "slots",
              "type": "uint32"
            },
            {
              "internalType": "uint96",
              "name": "bond",
              "type": "uint96"
            }
          ],
          "internalType": "struct IService.AgentParams[]",
          "name": "agentParams",
          "type": "tuple[]"
        },
        {
          "internalType": "uint32",
          "name": "threshold",
          "type": "uint32"
        }
      ],
      "name": "create",
      "outputs": [
        {
          "internalType": "uint256",
          "name": "serviceId",
          "type": "uint256"
        }
      ],
      "stateMutability": "nonpayable",
      "type": "function"
    },
    {
      "inputs": [
        {
          "internalType": "uint256",
          "name": "serviceId",
          "type": "uint256"
        },
        {
          "internalType": "address",
          "name": "multisigImplementation",
          "type": "address"
        },
        {
          "internalType": "bytes",
          "name": "data",
          "type": "bytes"
        }
      ],
      "name": "deploy",
      "outputs": [
        {
          "internalType": "address",
          "name": "multisig",
          "type": "address"
        }
      ],
      "stateMutability": "nonpayable",
      "type": "function"
    },
    {
      "inputs": [],
      "name": "domainSeparator",
      "outputs": [
        {
          "internalType": "bytes32",
          "name": "",
          "type": "bytes32"
        }
      ],
      "stateMutability": "view",
      "type": "function"
    },
    {
      "inputs": [],
      "name": "getDomainSeparator",
      "outputs": [
        {
          "internalType": "bytes32",
          "name": "",
          "type": "bytes32"
        }
      ],
      "stateMutability": "view",
      "type": "function"
    },
    {
      "inputs": [
        {
          "internalType": "address",
          "name": "operator",
          "type": "address"
        },
        {
          "internalType": "uint256",
          "name": "serviceId",
          "type": "uint256"
        }
      ],
      "name": "getOperatorRegisterAgentsNonce",
      "outputs": [
        {
          "internalType": "uint256",
          "name": "nonce",
          "type": "uint256"
        }
      ],
      "stateMutability": "view",
      "type": "function"
    },
    {
      "inputs": [
        {
          "internalType": "address",
          "name": "operator",
          "type": "address"
        },
        {
          "internalType": "uint256",
          "name": "serviceId",
          "type": "uint256"
        }
      ],
      "name": "getOperatorUnbondNonce",
      "outputs": [
        {
          "internalType": "uint256",
          "name": "nonce",
          "type": "uint256"
        }
      ],
      "stateMutability": "view",
      "type": "function"
    },
    {
      "inputs": [
        {
          "internalType": "address",
          "name": "operator",
          "type": "address"
        },
        {
          "internalType": "address",
          "name": "serviceOwner",
          "type": "address"
        },
        {
          "internalType": "uint256",
          "name": "serviceId",
          "type": "uint256"
        },
        {
          "internalType": "address[]",
          "name": "agentInstances",
          "type": "address[]"
        },
        {
          "internalType": "uint32[]",
          "name": "agentIds",
          "type": "uint32[]"
        },
        {
          "internalType": "uint256",
          "name": "nonce",
          "type": "uint256"
        }
      ],
      "name": "getRegisterAgentsHash",
      "outputs": [
        {
          "internalType": "bytes32",
          "name": "",
          "type": "bytes32"
        }
      ],
      "stateMutability": "view",
      "type": "function"
    },
    {
      "inputs": [
        {
          "internalType": "address",
          "name": "operator",
          "type": "address"
        },
        {
          "internalType": "address",
          "name": "serviceOwner",
          "type": "address"
        },
        {
          "internalType": "uint256",
          "name": "serviceId",
          "type": "uint256"
        },
        {
          "internalType": "uint256",
          "name": "nonce",
          "type": "uint256"
        }
      ],
      "name": "getUnbondHash",
      "outputs": [
        {
          "internalType": "bytes32",
          "name": "",
          "type": "bytes32"
        }
      ],
      "stateMutability": "view",
      "type": "function"
    },
    {
      "inputs": [
        {
          "internalType": "address",
          "name": "operator",
          "type": "address"
        },
        {
          "internalType": "bytes32",
          "name": "hash",
          "type": "bytes32"
        }
      ],
      "name": "isOperatorHashApproved",
      "outputs": [
        {
          "internalType": "bool",
          "name": "",
          "type": "bool"
        }
      ],
      "stateMutability": "view",
      "type": "function"
    },
    {
      "inputs": [
        {
          "internalType": "address",
          "name": "",
          "type": "address"
        },
        {
          "internalType": "bytes32",
          "name": "",
          "type": "bytes32"
        }
      ],
      "name": "mapOperatorApprovedHashes",
      "outputs": [
        {
          "internalType": "bool",
          "name": "",
          "type": "bool"
        }
      ],
      "stateMutability": "view",
      "type": "function"
    },
    {
      "inputs": [
        {
          "internalType": "uint256",
          "name": "",
          "type": "uint256"
        }
      ],
      "name": "mapOperatorRegisterAgentsNonces",
      "outputs": [
        {
          "internalType": "uint256",
          "name": "",
          "type": "uint256"
        }
      ],
      "stateMutability": "view",
      "type": "function"
    },
    {
      "inputs": [
        {
          "internalType": "uint256",
          "name": "",
          "type": "uint256"
        }
      ],
      "name": "mapOperatorUnbondNonces",
      "outputs": [
        {
          "internalType": "uint256",
          "name": "",
          "type": "uint256"
        }
      ],
      "stateMutability": "view",
      "type": "function"
    },
    {
      "inputs": [],
      "name": "name",
      "outputs": [
        {
          "internalType": "string",
          "name": "",
          "type": "string"
        }
      ],
      "stateMutability": "view",
      "type": "function"
    },
    {
      "inputs": [],
      "name": "nameHash",
      "outputs": [
        {
          "internalType": "bytes32",
          "name": "",
          "type": "bytes32"
        }
      ],
      "stateMutability": "view",
      "type": "function"
    },
    {
      "inputs": [
        {
          "internalType": "bytes32",
          "name": "hash",
          "type": "bytes32"
        }
      ],
      "name": "operatorApproveHash",
      "outputs": [],
      "stateMutability": "nonpayable",
      "type": "function"
    },
    {
      "inputs": [],
      "name": "operatorWhitelist",
      "outputs": [
        {
          "internalType": "address",
          "name": "",
          "type": "address"
        }
      ],
      "stateMutability": "view",
      "type": "function"
    },
    {
      "inputs": [],
      "name": "owner",
      "outputs": [
        {
          "internalType": "address",
          "name": "",
          "type": "address"
        }
      ],
      "stateMutability": "view",
      "type": "function"
    },
    {
      "inputs": [],
      "name": "pause",
      "outputs": [],
      "stateMutability": "nonpayable",
      "type": "function"
    },
    {
      "inputs": [],
      "name": "paused",
      "outputs": [
        {
          "internalType": "bool",
          "name": "",
          "type": "bool"
        }
      ],
      "stateMutability": "view",
      "type": "function"
    },
    {
      "inputs": [
        {
          "internalType": "uint256",
          "name": "serviceId",
          "type": "uint256"
        },
        {
          "internalType": "address[]",
          "name": "agentInstances",
          "type": "address[]"
        },
        {
          "internalType": "uint32[]",
          "name": "agentIds",
          "type": "uint32[]"
        }
      ],
      "name": "registerAgents",
      "outputs": [
        {
          "internalType": "bool",
          "name": "success",
          "type": "bool"
        }
      ],
      "stateMutability": "payable",
      "type": "function"
    },
    {
      "inputs": [
        {
          "internalType": "address",
          "name": "operator",
          "type": "address"
        },
        {
          "internalType": "uint256",
          "name": "serviceId",
          "type": "uint256"
        },
        {
          "internalType": "address[]",
          "name": "agentInstances",
          "type": "address[]"
        },
        {
          "internalType": "uint32[]",
          "name": "agentIds",
          "type": "uint32[]"
        },
        {
          "internalType": "bytes",
          "name": "signature",
          "type": "bytes"
        }
      ],
      "name": "registerAgentsWithSignature",
      "outputs": [
        {
          "internalType": "bool",
          "name": "success",
          "type": "bool"
        }
      ],
      "stateMutability": "payable",
      "type": "function"
    },
    {
      "inputs": [],
      "name": "serviceRegistry",
      "outputs": [
        {
          "internalType": "address",
          "name": "",
          "type": "address"
        }
      ],
      "stateMutability": "view",
      "type": "function"
    },
    {
      "inputs": [],
      "name": "serviceRegistryTokenUtility",
      "outputs": [
        {
          "internalType": "address",
          "name": "",
          "type": "address"
        }
      ],
      "stateMutability": "view",
      "type": "function"
    },
    {
      "inputs": [
        {
          "internalType": "address",
          "name": "newOperatorWhitelist",
          "type": "address"
        }
      ],
      "name": "setOperatorWhitelist",
      "outputs": [],
      "stateMutability": "nonpayable",
      "type": "function"
    },
    {
      "inputs": [
        {
          "internalType": "uint256",
          "name": "serviceId",
          "type": "uint256"
        }
      ],
      "name": "terminate",
      "outputs": [
        {
          "internalType": "bool",
          "name": "success",
          "type": "bool"
        },
        {
          "internalType": "uint256",
          "name": "refund",
          "type": "uint256"
        }
      ],
      "stateMutability": "nonpayable",
      "type": "function"
    },
    {
      "inputs": [
        {
          "internalType": "uint256",
          "name": "serviceId",
          "type": "uint256"
        }
      ],
      "name": "unbond",
      "outputs": [
        {
          "internalType": "bool",
          "name": "success",
          "type": "bool"
        },
        {
          "internalType": "uint256",
          "name": "refund",
          "type": "uint256"
        }
      ],
      "stateMutability": "nonpayable",
      "type": "function"
    },
    {
      "inputs": [
        {
          "internalType": "address",
          "name": "operator",
          "type": "address"
        },
        {
          "internalType": "uint256",
          "name": "serviceId",
          "type": "uint256"
        },
        {
          "internalType": "bytes",
          "name": "signature",
          "type": "bytes"
        }
      ],
      "name": "unbondWithSignature",
      "outputs": [
        {
          "internalType": "bool",
          "name": "success",
          "type": "bool"
        },
        {
          "internalType": "uint256",
          "name": "refund",
          "type": "uint256"
        }
      ],
      "stateMutability": "nonpayable",
      "type": "function"
    },
    {
      "inputs": [],
      "name": "unpause",
      "outputs": [],
      "stateMutability": "nonpayable",
      "type": "function"
    },
    {
      "inputs": [
        {
          "internalType": "address",
          "name": "token",
          "type": "address"
        },
        {
          "internalType": "bytes32",
          "name": "configHash",
          "type": "bytes32"
        },
        {
          "internalType": "uint32[]",
          "name": "agentIds",
          "type": "uint32[]"
        },
        {
          "components": [
            {
              "internalType": "uint32",
              "name": "slots",
              "type": "uint32"
            },
            {
              "internalType": "uint96",
              "name": "bond",
              "type": "uint96"
            }
          ],
          "internalType": "struct IService.AgentParams[]",
          "name": "agentParams",
          "type": "tuple[]"
        },
        {
          "internalType": "uint32",
          "name": "threshold",
          "type": "uint32"
        },
        {
          "internalType": "uint256",
          "name": "serviceId",
          "type": "uint256"
        }
      ],
      "name": "update",
      "outputs": [
        {
          "internalType": "bool",
          "name": "success",
          "type": "bool"
        }
      ],
      "stateMutability": "nonpayable",
      "type": "function"
    },
    {
      "inputs": [],
      "name": "version",
      "outputs": [
        {
          "internalType": "string",
          "name": "",
          "type": "string"
        }
      ],
      "stateMutability": "view",
      "type": "function"
    },
    {
      "inputs": [],
      "name": "versionHash",
      "outputs": [
        {
          "internalType": "bytes32",
          "name": "",
          "type": "bytes32"
        }
      ],
      "stateMutability": "view",
      "type": "function"
    }
  ],
  "bytecode": "0x6101406040523480156200001257600080fd5b5060405162003655380380620036558339810160408190526200003591620001cf565b6040518060400160405280601581526020017f53657276696365204d616e6167657220546f6b656e000000000000000000000081525060405180604001604052806005815260200164312e312e3160d81b81525081600190816200009a9190620002c0565b506002620000a98282620002c0565b50815160208084019190912060c05281519082012060e0524660a0526200013160c0805160e051604080517f8b73c3c69bb8fe3d512ecc4cf759cc79239f7b179b0ffacaa9a75d522b39400f60208201529081019290925260608201524660808201523060a08201526000910160405160208183030381529060405280519060200120905090565b60805250506001600160a01b03831615806200015457506001600160a01b038216155b15620001735760405163d92e233d60e01b815260040160405180910390fd5b6001600160a01b03928316610100529082166101205260068054919092166001600160a01b03199182161790915560008054909116331790556200038c565b80516001600160a01b0381168114620001ca57600080fd5b919050565b600080600060608486031215620001e557600080fd5b620001f084620001b2565b92506200020060208501620001b2565b91506200021060408501620001b2565b90509250925092565b634e487b7160e01b600052604160045260246000fd5b600181811c908216806200024457607f821691505b6020821081036200026557634e487b7160e01b600052602260045260246000fd5b50919050565b601f821115620002bb576000816000526020600020601f850160051c81016020861015620002965750805b601f850160051c820191505b81811015620002b757828155600101620002a2565b5050505b505050565b81516001600160401b03811115620002dc57620002dc62000219565b620002f481620002ed84546200022f565b846200026b565b602080601f8311600181146200032c5760008415620003135750858301515b600019600386901b1c1916600185901b178555620002b7565b600085815260208120601f198616915b828110156200035d578886015182559484019460019091019084016200033c565b50858210156200037c5787850151600019600388901b60f8161c191681555b5050505050600190811b01905550565b60805160a05160c05160e05161010051610120516131ae620004a76000396000818161042001528181610bc301528181610dcb01528181611030015281816111ec015281816115320152818161199901528181611bf701528181611d3201526121e9015260008181610749015281816109c401528181610aa301528181610c4701528181610d0f01528181610e5701528181610ee8015281816110c80152818161127d01528181611318015281816115e0015281816118fe01528181611b5b01528181611db801528181611e8001528181611f9a015261214f01526000818161033c01526122d201526000818161083901526122aa01526000818161069901526122560152600081816108a1015261232b01526131ae6000f3fe6080604052600436106102a05760003560e01c8063757b11561161016e578063cbcf252a116100cb578063e5da07531161007f578063f172a4ce11610064578063f172a4ce14610827578063f5dcb7bb1461085b578063f698da251461088f57600080fd5b8063e5da0753146107f2578063ed24911d1461081257600080fd5b8063d03ca40a116100b0578063d03ca40a1461078b578063dc1d95251461079e578063e42cdd7c146107d257600080fd5b8063cbcf252a14610737578063cbf994f81461076b57600080fd5b80639488791111610122578063a2e2ad7e11610107578063a2e2ad7e146106bb578063a6a7187f146106f7578063a6f9dae11461071757600080fd5b806394887911146106535780639a8a05921461068757600080fd5b80638456cb59116101535780638456cb59146105f15780638a39fa16146106065780638da5cb5b1461063357600080fd5b8063757b1156146105b15780637a828b28146105d157600080fd5b806328f223421161021c5780635405ecb9116101d057806356bda507116101b557806356bda50714610543578063599be46f146105705780635c975abb1461059057600080fd5b80635405ecb9146104f257806354fd4d501461052e57600080fd5b80633f4ba83a116102015780633f4ba83a1461049d57806341b60677146104b25780634d5a5827146104df57600080fd5b806328f22342146104425780633af5d04e1461046257600080fd5b80631878d1f11161027357806321561bfc1161025857806321561bfc146103b757806327de9e32146103d7578063287140511461040e57600080fd5b80631878d1f11461036c5780631ee81fb51461039457600080fd5b806306fdde03146102a557806307a3e0a8146102d05780630d0d57a8146102f2578063152b5c0f1461032a575b600080fd5b3480156102b157600080fd5b506102ba6108c3565b6040516102c79190612608565b60405180910390f35b3480156102dc57600080fd5b506102f06102eb366004612622565b610951565b005b3480156102fe57600080fd5b5061031261030d366004612733565b6109aa565b6040516001600160a01b0390911681526020016102c7565b34801561033657600080fd5b5061035e7f000000000000000000000000000000000000000000000000000000000000000081565b6040519081526020016102c7565b34801561037857600080fd5b5061031273eeeeeeeeeeeeeeeeeeeeeeeeeeeeeeeeeeeeeeee81565b6103a76103a236600461289c565b610a80565b60405190151581526020016102c7565b3480156103c357600080fd5b50600654610312906001600160a01b031681565b3480156103e357600080fd5b506103f76103f2366004612622565b610da0565b6040805192151583526020830191909152016102c7565b34801561041a57600080fd5b506103127f000000000000000000000000000000000000000000000000000000000000000081565b34801561044e57600080fd5b506103f761045d366004612941565b610ee1565b34801561046e57600080fd5b506103a761047d366004612984565b600560209081526000928352604080842090915290825290205460ff1681565b3480156104a957600080fd5b506102f0611152565b3480156104be57600080fd5b5061035e6104cd366004612622565b60046020526000908152604090205481565b6103a76104ed366004612622565b6111c9565b3480156104fe57600080fd5b5061035e61050d366004612984565b60a01b6001600160a01b039091161760009081526003602052604090205490565b34801561053a57600080fd5b506102ba611398565b34801561054f57600080fd5b50610558600181565b6040516001600160601b0390911681526020016102c7565b34801561057c57600080fd5b506102f061058b3660046129b0565b6113a5565b34801561059c57600080fd5b506000546103a790600160a01b900460ff1681565b3480156105bd57600080fd5b5061035e6105cc3660046129cd565b61143c565b3480156105dd57600080fd5b506103f76105ec366004612622565b61152b565b3480156105fd57600080fd5b506102f0611617565b34801561061257600080fd5b5061035e610621366004612622565b60036020526000908152604090205481565b34801561063f57600080fd5b50600054610312906001600160a01b031681565b34801561065f57600080fd5b5061035e7f92b2008d2a99f26809ac9d1989fe92334aa84124767331997ba0eec16050ecf481565b34801561069357600080fd5b5061035e7f000000000000000000000000000000000000000000000000000000000000000081565b3480156106c757600080fd5b5061035e6106d6366004612984565b60a01b6001600160a01b039091161760009081526004602052604090205490565b34801561070357600080fd5b5061035e610712366004612a68565b611694565b34801561072357600080fd5b506102f06107323660046129b0565b611750565b34801561074357600080fd5b506103127f000000000000000000000000000000000000000000000000000000000000000081565b34801561077757600080fd5b506103a7610786366004612b4a565b61180c565b6103a7610799366004612be3565b611c71565b3480156107aa57600080fd5b5061035e7fde64b4c9fac43e1615e938b03573b078604f57b4d2e78d3a27d7b20ba017e12681565b3480156107de57600080fd5b5061035e6107ed366004612c46565b611f0b565b3480156107fe57600080fd5b506103a761080d366004612984565b612224565b34801561081e57600080fd5b5061035e612252565b34801561083357600080fd5b5061035e7f000000000000000000000000000000000000000000000000000000000000000081565b34801561086757600080fd5b5061035e7f8b73c3c69bb8fe3d512ecc4cf759cc79239f7b179b0ffacaa9a75d522b39400f81565b34801561089b57600080fd5b5061035e7f000000000000000000000000000000000000000000000000000000000000000081565b600180546108d090612ce8565b80601f01602080910402602001604051908101604052809291908181526020018280546108fc90612ce8565b80156109495780601f1061091e57610100808354040283529160200191610949565b820191906000526020600020905b81548152906001019060200180831161092c57829003601f168201915b505050505081565b336000818152600560209081526040808320858452825291829020805460ff1916600117905590518381527f85eb1f050732417c0566422b6004a6c5cbded9ded1a406de04060719af52a13a910160405180910390a250565b60405163f908bc7760e01b81526000906001600160a01b037f0000000000000000000000000000000000000000000000000000000000000000169063f908bc77906109ff903390889088908890600401612d1c565b6020604051808303816000875af1158015610a1e573d6000803e3d6000fd5b505050506040513d601f19601f82011682018060405250810190610a429190612d4e565b6040519091506001600160a01b038216907fec97633905b1dbe9773a7536e9a986dcf89803e1193934b7b6d76587c68beb4090600090a29392505050565b6040516331a9108f60e11b81526004810185905260009081906001600160a01b037f00000000000000000000000000000000000000000000000000000000000000001690636352211e90602401602060405180830381865afa158015610aea573d6000803e3d6000fd5b505050506040513d601f19601f82011682018060405250810190610b0e9190612d4e565b9050336001600160a01b03821614610b4f5760405163521eb56d60e11b81523360048201526001600160a01b03821660248201526044015b60405180910390fd5b60a086901b6001600160a01b0388161760008181526004602052604081205490610b7d8a858b8b8b8761143c565b9050610b8a8a828861234d565b81610b9481612d81565b60008581526004602081905260408083208490555163dc4f8bc560e01b81529295509092506001600160a01b037f0000000000000000000000000000000000000000000000000000000000000000169163dc4f8bc591610bfa918f918f918e9101612ddc565b6020604051808303816000875af1158015610c19573d6000803e3d6000fd5b505050506040513d601f19601f82011682018060405250810190610c3d9190612e1d565b90508015610cf8577f00000000000000000000000000000000000000000000000000000000000000006001600160a01b031663dff7672460016001600160601b03168b51610c8b9190612e38565b8d8d8d8d6040518663ffffffff1660e01b8152600401610cae9493929190612e89565b60206040518083038185885af1158015610ccc573d6000803e3d6000fd5b50505050506040513d601f19601f82011682018060405250810190610cf19190612e1d565b9550610d92565b6040516337fdd9c960e21b81526001600160a01b037f0000000000000000000000000000000000000000000000000000000000000000169063dff76724903490610d4c908f908f908f908f90600401612e89565b60206040518083038185885af1158015610d6a573d6000803e3d6000fd5b50505050506040513d601f19601f82011682018060405250810190610d8f9190612e1d565b95505b505050505095945050505050565b60405163161e984960e31b815233600482015260248101829052600090819081906001600160a01b037f0000000000000000000000000000000000000000000000000000000000000000169063b0f4c248906044016020604051808303816000875af1158015610e14573d6000803e3d6000fd5b505050506040513d601f19601f82011682018060405250810190610e389190612ece565b6040516352e82ce560e11b8152336004820152602481018690529091507f00000000000000000000000000000000000000000000000000000000000000006001600160a01b03169063a5d059ca906044015b60408051808303816000875af1158015610ea8573d6000803e3d6000fd5b505050506040513d601f19601f82011682018060405250810190610ecc9190612ee7565b90935091508015610edb578091505b50915091565b60008060007f00000000000000000000000000000000000000000000000000000000000000006001600160a01b0316636352211e866040518263ffffffff1660e01b8152600401610f3491815260200190565b602060405180830381865afa158015610f51573d6000803e3d6000fd5b505050506040513d601f19601f82011682018060405250810190610f759190612d4e565b9050336001600160a01b03821614610fb15760405163521eb56d60e11b81523360048201526001600160a01b0382166024820152604401610b46565b60a085901b6001600160a01b0387161760008181526003602052604081205490610fdd89858a85611694565b9050610fea89828961234d565b81610ff481612d81565b6000858152600360205260408082208390555163161e984960e31b81526001600160a01b038d81166004830152602482018d90529295509092507f00000000000000000000000000000000000000000000000000000000000000009091169063b0f4c248906044016020604051808303816000875af115801561107b573d6000803e3d6000fd5b505050506040513d601f19601f8201168201806040525081019061109f9190612ece565b6040516352e82ce560e11b81526001600160a01b038c81166004830152602482018c90529192507f00000000000000000000000000000000000000000000000000000000000000009091169063a5d059ca9060440160408051808303816000875af1158015611112573d6000803e3d6000fd5b505050506040513d601f19601f820116820180604052508101906111369190612ee7565b90975095508015611145578095505b5050505050935093915050565b6000546001600160a01b031633146111925760005460405163521eb56d60e11b81523360048201526001600160a01b039091166024820152604401610b46565b6000805460ff60a01b1916815560405133917faeb196d352664784d1900b0e7414a8face7d29f4dae8c4b0cf68ed477423bbf491a2565b60405163542db44960e01b81526004810182905260009081906001600160a01b037f0000000000000000000000000000000000000000000000000000000000000000169063542db449906024016020604051808303816000875af1158015611235573d6000803e3d6000fd5b505050506040513d601f19601f820116820180604052508101906112599190612e1d565b905080156112fc5760405163388fdbed60e21b8152336004820152602481018490527f00000000000000000000000000000000000000000000000000000000000000006001600160a01b03169063e23f6fb49060019060440160206040518083038185885af11580156112d0573d6000803e3d6000fd5b50505050506040513d601f19601f820116820180604052508101906112f59190612e1d565b9150611392565b60405163388fdbed60e21b8152336004820152602481018490527f00000000000000000000000000000000000000000000000000000000000000006001600160a01b03169063e23f6fb490349060440160206040518083038185885af115801561136a573d6000803e3d6000fd5b50505050506040513d601f19601f8201168201806040525081019061138f9190612e1d565b91505b50919050565b600280546108d090612ce8565b6000546001600160a01b031633146113e55760005460405163521eb56d60e11b81523360048201526001600160a01b039091166024820152604401610b46565b6006805473ffffffffffffffffffffffffffffffffffffffff19166001600160a01b0383169081179091556040517ff8e76e8a7c35558598a944d509f1ed32b104e77b1098ef1dfa5b97b86b09df8f90600090a250565b6000611446612252565b7fde64b4c9fac43e1615e938b03573b078604f57b4d2e78d3a27d7b20ba017e126888888888860405160200161147d929190612f13565b60408051601f198184030181528282528051602091820120908301969096526001600160a01b0394851690820152929091166060830152608082015260a081019190915260c0810184905260e0016040516020818303038152906040528051906020012060405160200161150892919061190160f01b81526002810192909252602282015260420190565b6040516020818303038152906040528051906020012090505b9695505050505050565b60008060007f00000000000000000000000000000000000000000000000000000000000000006001600160a01b03166325e1afc3856040518263ffffffff1660e01b815260040161157e91815260200190565b6020604051808303816000875af115801561159d573d6000803e3d6000fd5b505050506040513d601f19601f820116820180604052508101906115c19190612ece565b60405163ccc9305d60e01b8152336004820152602481018690529091507f00000000000000000000000000000000000000000000000000000000000000006001600160a01b03169063ccc9305d90604401610e8a565b6000546001600160a01b031633146116575760005460405163521eb56d60e11b81523360048201526001600160a01b039091166024820152604401610b46565b6000805460ff60a01b1916600160a01b17815560405133917f5ee71a369c8672edded508e624ffc9257fa1ae6886ef32905c18e60196bca39991a2565b600061169e612252565b604080517f92b2008d2a99f26809ac9d1989fe92334aa84124767331997ba0eec16050ecf460208201526001600160a01b038089169282019290925290861660608201526080810185905260a0810184905260c0016040516020818303038152906040528051906020012060405160200161173092919061190160f01b81526002810192909252602282015260420190565b604051602081830303815290604052805190602001209050949350505050565b6000546001600160a01b031633146117905760005460405163521eb56d60e11b81523360048201526001600160a01b039091166024820152604401610b46565b6001600160a01b0381166117b75760405163d92e233d60e01b815260040160405180910390fd5b6000805473ffffffffffffffffffffffffffffffffffffffff19166001600160a01b038316908117825560405190917f4ffd725fc4a22075e9ec71c59edf9c38cdeb588a91b24fc5b61388c5be41282b91a250565b60006001600160a01b0387166118355760405163d92e233d60e01b815260040160405180910390fd5b835173eeeeeeeeeeeeeeeeeeeeeeeeeeeeeeeeeeeeeeed196001600160a01b03891601611a025760005b818110156118e657600086828151811061187b5761187b612f38565b60200260200101516000015163ffffffff161180156118c057508581815181106118a7576118a7612f38565b6020026020010151602001516001600160601b03166000145b156118de57604051637c946ed760e01b815260040160405180910390fd5b60010161185f565b5060405163197f329f60e31b81526001600160a01b037f0000000000000000000000000000000000000000000000000000000000000000169063cbf994f89061193d9033908b908b908b908b908b90600401612f99565b6020604051808303816000875af115801561195c573d6000803e3d6000fd5b505050506040513d601f19601f820116820180604052508101906119809190612e1d565b604051630be6cc4b60e31b8152600481018590529092507f00000000000000000000000000000000000000000000000000000000000000006001600160a01b031690635f36625890602401600060405180830381600087803b1580156119e557600080fd5b505af11580156119f9573d6000803e3d6000fd5b50505050611c66565b60008167ffffffffffffffff811115611a1d57611a1d612653565b604051908082528060200260200182016040528015611a46578160200160208202803683370190505b50905060005b82811015611b43576000878281518110611a6857611a68612f38565b60200260200101516000015163ffffffff161115611b3b57868181518110611a9257611a92612f38565b6020026020010151602001516001600160601b0316600003611ac757604051637c946ed760e01b815260040160405180910390fd5b868181518110611ad957611ad9612f38565b6020026020010151602001516001600160601b0316828281518110611b0057611b00612f38565b6020026020010181815250506001878281518110611b2057611b20612f38565b6020908102919091018101516001600160601b039092169101525b600101611a4c565b5060405163197f329f60e31b81526001600160a01b037f0000000000000000000000000000000000000000000000000000000000000000169063cbf994f890611b9a9033908c908c908c908c908c90600401612f99565b6020604051808303816000875af1158015611bb9573d6000803e3d6000fd5b505050506040513d601f19601f82011682018060405250810190611bdd9190612e1d565b6040516338f3a6a160e21b81529093506001600160a01b037f0000000000000000000000000000000000000000000000000000000000000000169063e3ce9a8490611c329087908d908c908790600401612fef565b600060405180830381600087803b158015611c4c57600080fd5b505af1158015611c60573d6000803e3d6000fd5b50505050505b509695505050505050565b6006546000906001600160a01b031615611d18576006546040516356a7b60760e01b8152600481018690523360248201526001600160a01b03909116906356a7b60790604401602060405180830381865afa158015611cd4573d6000803e3d6000fd5b505050506040513d601f19601f82011682018060405250810190611cf89190612e1d565b611d18576040516322ddebd960e21b815260048101859052602401610b46565b60405163dc4f8bc560e01b81526000906001600160a01b037f0000000000000000000000000000000000000000000000000000000000000000169063dc4f8bc590611d6b90339089908890600401612ddc565b6020604051808303816000875af1158015611d8a573d6000803e3d6000fd5b505050506040513d601f19601f82011682018060405250810190611dae9190612e1d565b90508015611e69577f00000000000000000000000000000000000000000000000000000000000000006001600160a01b031663dff7672460016001600160601b03168651611dfc9190612e38565b338888886040518663ffffffff1660e01b8152600401611e1f9493929190612e89565b60206040518083038185885af1158015611e3d573d6000803e3d6000fd5b50505050506040513d601f19601f82011682018060405250810190611e629190612e1d565b9150611f03565b6040516337fdd9c960e21b81526001600160a01b037f0000000000000000000000000000000000000000000000000000000000000000169063dff76724903490611ebd9033908a908a908a90600401612e89565b60206040518083038185885af1158015611edb573d6000803e3d6000fd5b50505050506040513d601f19601f82011682018060405250810190611f009190612e1d565b91505b509392505050565b60008054600160a01b900460ff1615611f37576040516313d0ff5960e31b815260040160405180910390fd5b6001600160a01b038616611f5e5760405163d92e233d60e01b815260040160405180910390fd5b73eeeeeeeeeeeeeeeeeeeeeeeeeeeeeeeeeeeeeeed196001600160a01b038716016120215760405163fbdeb3d760e01b81526001600160a01b037f0000000000000000000000000000000000000000000000000000000000000000169063fbdeb3d790611fd7908a90899089908990899060040161305c565b6020604051808303816000875af1158015611ff6573d6000803e3d6000fd5b505050506040513d601f19601f8201168201806040525081019061201a9190612ece565b9050611521565b825160008167ffffffffffffffff81111561203e5761203e612653565b604051908082528060200260200182016040528015612067578160200160208202803683370190505b50905060005b828110156121375785818151811061208757612087612f38565b6020026020010151602001516001600160601b03166000036120bc57604051637c946ed760e01b815260040160405180910390fd5b8581815181106120ce576120ce612f38565b6020026020010151602001516001600160601b03168282815181106120f5576120f5612f38565b602002602001018181525050600186828151811061211557612115612f38565b6020908102919091018101516001600160601b0390921691015260010161206d565b5060405163fbdeb3d760e01b81526001600160a01b037f0000000000000000000000000000000000000000000000000000000000000000169063fbdeb3d79061218c908c908b908b908b908b9060040161305c565b6020604051808303816000875af11580156121ab573d6000803e3d6000fd5b505050506040513d601f19601f820116820180604052508101906121cf9190612ece565b6040516338f3a6a160e21b81529093506001600160a01b037f0000000000000000000000000000000000000000000000000000000000000000169063e3ce9a8490611c329086908c908b908790600401612fef565b6001600160a01b038216600090815260056020908152604080832084845290915290205460ff165b92915050565b60007f0000000000000000000000000000000000000000000000000000000000000000461461232857612323604080517f8b73c3c69bb8fe3d512ecc4cf759cc79239f7b179b0ffacaa9a75d522b39400f60208201527f0000000000000000000000000000000000000000000000000000000000000000918101919091527f000000000000000000000000000000000000000000000000000000000000000060608201524660808201523060a082015260009060c00160405160208183030381529060405280519060200120905090565b905090565b507f000000000000000000000000000000000000000000000000000000000000000090565b6001600160a01b0383166123745760405163e63f571f60e01b815260040160405180910390fd5b805160411461239d578051604051631d9f5a5f60e01b8152610b469183916041906004016130af565b6000816040815181106123b2576123b2612f38565b016020015160f81c90506004811080156123d457506001600160a01b0384163b155b156123e7576123e4601b826130d4565b90505b60208201516040830151600060ff84166004036124bc5750604051630b135d3f60e11b80825283916001600160a01b03831690631626ba7e90612430908a908a906004016130ed565b602060405180830381865afa15801561244d573d6000803e3d6000fd5b505050506040513d601f19601f82011682018060405250810190612471919061310e565b7fffffffff0000000000000000000000000000000000000000000000000000000016146124b75780868660405163694d54dd60e01b8152600401610b4693929190613150565b612574565b8360ff1660050361251457506001600160a01b0382166000908152600560209081526040808320888452909152902054829060ff166124b7578086866040516312cf832560e01b8152600401610b4693929190613150565b60408051600081526020810180835288905260ff861691810191909152606081018490526080810183905260019060a0016020604051602081039080840390855afa158015612567573d6000803e3d6000fd5b5050506020604051035190505b866001600160a01b0316816001600160a01b0316146125b95760405163a806216d60e01b81526001600160a01b03808316600483015288166024820152604401610b46565b50505050505050565b6000815180845260005b818110156125e8576020818501810151868301820152016125cc565b506000602082860101526020601f19601f83011685010191505092915050565b60208152600061261b60208301846125c2565b9392505050565b60006020828403121561263457600080fd5b5035919050565b6001600160a01b038116811461265057600080fd5b50565b634e487b7160e01b600052604160045260246000fd5b6040805190810167ffffffffffffffff8111828210171561268c5761268c612653565b60405290565b604051601f8201601f1916810167ffffffffffffffff811182821017156126bb576126bb612653565b604052919050565b600082601f8301126126d457600080fd5b813567ffffffffffffffff8111156126ee576126ee612653565b612701601f8201601f1916602001612692565b81815284602083860101111561271657600080fd5b816020850160208301376000918101602001919091529392505050565b60008060006060848603121561274857600080fd5b83359250602084013561275a8161263b565b9150604084013567ffffffffffffffff81111561277657600080fd5b612782868287016126c3565b9150509250925092565b600067ffffffffffffffff8211156127a6576127a6612653565b5060051b60200190565b600082601f8301126127c157600080fd5b813560206127d66127d18361278c565b612692565b8083825260208201915060208460051b8701019350868411156127f857600080fd5b602086015b84811015611c665780356128108161263b565b83529183019183016127fd565b803563ffffffff8116811461283157600080fd5b919050565b600082601f83011261284757600080fd5b813560206128576127d18361278c565b8083825260208201915060208460051b87010193508684111561287957600080fd5b602086015b84811015611c665761288f8161281d565b835291830191830161287e565b600080600080600060a086880312156128b457600080fd5b85356128bf8161263b565b945060208601359350604086013567ffffffffffffffff808211156128e357600080fd5b6128ef89838a016127b0565b9450606088013591508082111561290557600080fd5b61291189838a01612836565b9350608088013591508082111561292757600080fd5b50612934888289016126c3565b9150509295509295909350565b60008060006060848603121561295657600080fd5b83356129618161263b565b925060208401359150604084013567ffffffffffffffff81111561277657600080fd5b6000806040838503121561299757600080fd5b82356129a28161263b565b946020939093013593505050565b6000602082840312156129c257600080fd5b813561261b8161263b565b60008060008060008060c087890312156129e657600080fd5b86356129f18161263b565b95506020870135612a018161263b565b945060408701359350606087013567ffffffffffffffff80821115612a2557600080fd5b612a318a838b016127b0565b94506080890135915080821115612a4757600080fd5b50612a5489828a01612836565b92505060a087013590509295509295509295565b60008060008060808587031215612a7e57600080fd5b8435612a898161263b565b93506020850135612a998161263b565b93969395505050506040820135916060013590565b600082601f830112612abf57600080fd5b81356020612acf6127d18361278c565b82815260069290921b84018101918181019086841115612aee57600080fd5b8286015b84811015611c665760408189031215612b0b5760008081fd5b612b13612669565b612b1c8261281d565b8152848201356001600160601b0381168114612b385760008081fd5b81860152835291830191604001612af2565b60008060008060008060c08789031215612b6357600080fd5b8635612b6e8161263b565b955060208701359450604087013567ffffffffffffffff80821115612b9257600080fd5b612b9e8a838b01612836565b95506060890135915080821115612bb457600080fd5b50612bc189828a01612aae565b935050612bd06080880161281d565b915060a087013590509295509295509295565b600080600060608486031215612bf857600080fd5b83359250602084013567ffffffffffffffff80821115612c1757600080fd5b612c23878388016127b0565b93506040860135915080821115612c3957600080fd5b5061278286828701612836565b60008060008060008060c08789031215612c5f57600080fd5b8635612c6a8161263b565b95506020870135612c7a8161263b565b945060408701359350606087013567ffffffffffffffff80821115612c9e57600080fd5b612caa8a838b01612836565b94506080890135915080821115612cc057600080fd5b50612ccd89828a01612aae565b925050612cdc60a0880161281d565b90509295509295509295565b600181811c90821680612cfc57607f821691505b60208210810361139257634e487b7160e01b600052602260045260246000fd5b60006001600160a01b0380871683528560208401528085166040840152506080606083015261152160808301846125c2565b600060208284031215612d6057600080fd5b815161261b8161263b565b634e487b7160e01b600052601160045260246000fd5b600060018201612d9357612d93612d6b565b5060010190565b60008151808452602080850194506020840160005b83811015612dd157815163ffffffff1687529582019590820190600101612daf565b509495945050505050565b6001600160a01b0384168152826020820152606060408201526000612e046060830184612d9a565b95945050505050565b8051801515811461283157600080fd5b600060208284031215612e2f57600080fd5b61261b82612e0d565b808202811582820484141761224c5761224c612d6b565b60008151808452602080850194506020840160005b83811015612dd15781516001600160a01b031687529582019590820190600101612e64565b6001600160a01b0385168152836020820152608060408201526000612eb16080830185612e4f565b8281036060840152612ec38185612d9a565b979650505050505050565b600060208284031215612ee057600080fd5b5051919050565b60008060408385031215612efa57600080fd5b612f0383612e0d565b9150602083015190509250929050565b604081526000612f266040830185612e4f565b8281036020840152611f008185612d9a565b634e487b7160e01b600052603260045260246000fd5b60008151808452602080850194506020840160005b83811015612dd1578151805163ffffffff1688528301516001600160601b03168388015260409096019590820190600101612f63565b6001600160a01b038716815285602082015260c060408201526000612fc160c0830187612d9a565b8281036060840152612fd38187612f4e565b63ffffffff959095166080840152505060a00152949350505050565b848152600060206001600160a01b0386166020840152608060408401526130196080840186612d9a565b83810360608501528451808252602080870192019060005b8181101561304d57835183529284019291840191600101613031565b50909998505050505050505050565b6001600160a01b038616815284602082015260a06040820152600061308460a0830186612d9a565b82810360608401526130968186612f4e565b91505063ffffffff831660808301529695505050505050565b6060815260006130c260608301866125c2565b60208301949094525060400152919050565b60ff818116838216019081111561224c5761224c612d6b565b82815260406020820152600061310660408301846125c2565b949350505050565b60006020828403121561312057600080fd5b81517fffffffff000000000000000000000000000000000000000000000000000000008116811461261b57600080fd5b6001600160a01b0384168152826020820152606060408201526000612e0460608301846125c256fea2646970667358221220f8a07ba7c24022c116c55e84fbff8b47ad2bb8efd4a98f2fb531b0dde50c325c64736f6c63430008170033",
  "linkReferences": {},
  "deployedLinkReferences": {}
}