{
  "_format": "hh-sol-artifact-1",
  "contractName": "MockTimelock",
  "sourceName": "contracts/bridges/test/MockTimelock.sol",
  "abi": [
    {
      "inputs": [
        {
          "internalType": "address",
          "name": "_fxRoot",
          "type": "address"
        }
      ],
      "stateMutability": "nonpayable",
      "type": "constructor"
    },
    {
      "inputs": [
        {
          "internalType": "address",
          "name": "fxRoot",
          "type": "address"
        },
        {
          "internalType": "bytes",
          "name": "payload",
          "type": "bytes"
        }
      ],
      "name": "ExecFailed",
      "type": "error"
    },
    {
      "inputs": [
        {
          "internalType": "bytes",
          "name": "payload",
          "type": "bytes"
        }
      ],
      "name": "execute",
      "outputs": [],
      "stateMutability": "nonpayable",
      "type": "function"
    },
    {
      "inputs": [],
      "name": "fxRoot",
      "outputs": [
        {
          "internalType": "address",
          "name": "",
          "type": "address"
        }
      ],
      "stateMutability": "view",
      "type": "function"
    }
  ],
  "bytecode": "0x60a060405234801561000f575f80fd5b5060405161038538038061038583398101604081905261002e9161003f565b6001600160a01b031660805261006c565b5f6020828403121561004f575f80fd5b81516001600160a01b0381168114610065575f80fd5b9392505050565b6080516102f56100905f395f818160520152818160a0015261012c01526102f55ff3fe608060405234801561000f575f80fd5b5060043610610034575f3560e01c806309c5eabe14610038578063de9b771f1461004d575b5f80fd5b61004b610046366004610188565b61009d565b005b6100747f000000000000000000000000000000000000000000000000000000000000000081565b60405173ffffffffffffffffffffffffffffffffffffffff909116815260200160405180910390f35b5f7f000000000000000000000000000000000000000000000000000000000000000073ffffffffffffffffffffffffffffffffffffffff16826040516100e39190610255565b5f604051808303815f865af19150503d805f811461011c576040519150601f19603f3d011682016040523d82523d5f602084013e610121565b606091505b5050905080610170577f000000000000000000000000000000000000000000000000000000000000000082604051632f52560f60e01b8152600401610167929190610270565b60405180910390fd5b5050565b634e487b7160e01b5f52604160045260245ffd5b5f60208284031215610198575f80fd5b813567ffffffffffffffff808211156101af575f80fd5b818401915084601f8301126101c2575f80fd5b8135818111156101d4576101d4610174565b604051601f8201601f19908116603f011681019083821181831017156101fc576101fc610174565b81604052828152876020848701011115610214575f80fd5b826020860160208301375f928101602001929092525095945050505050565b5f5b8381101561024d578181015183820152602001610235565b50505f910152565b5f8251610266818460208701610233565b9190910192915050565b73ffffffffffffffffffffffffffffffffffffffff83168152604060208201525f82518060408401526102aa816060850160208701610233565b601f01601f191691909101606001939250505056fea2646970667358221220ce5e4d3f989e9ec1030a97420dd3fb8617349d79e818407f5298585c3b7164aa64736f6c63430008140033",
  "linkReferences": {},
  "deployedLinkReferences": {}
}