{
  "_format": "hh-sol-artifact-1",
  "contractName": "FxRoot",
  "sourceName": "fx-portal/contracts/FxRoot.sol",
  "abi": [
    {
      "inputs": [
        {
          "internalType": "address",
          "name": "_stateSender",
          "type": "address"
        }
      ],
      "stateMutability": "nonpayable",
      "type": "constructor"
    },
    {
      "inputs": [],
      "name": "fxChild",
      "outputs": [
        {
          "internalType": "address",
          "name": "",
          "type": "address"
        }
      ],
      "stateMutability": "view",
      "type": "function"
    },
    {
      "inputs": [
        {
          "internalType": "address",
          "name": "_receiver",
          "type": "address"
        },
        {
          "internalType": "bytes",
          "name": "_data",
          "type": "bytes"
        }
      ],
      "name": "sendMessageToChild",
      "outputs": [],
      "stateMutability": "nonpayable",
      "type": "function"
    },
    {
      "inputs": [
        {
          "internalType": "address",
          "name": "_fxChild",
          "type": "address"
        }
      ],
      "name": "setFxChild",
      "outputs": [],
      "stateMutability": "nonpayable",
      "type": "function"
    },
    {
      "inputs": [],
      "name": "stateSender",
      "outputs": [
        {
          "internalType": "contract IStateSender",
          "name": "",
          "type": "address"
        }
      ],
      "stateMutability": "view",
      "type": "function"
    }
  ],
  "bytecode": "0x608060405234801561000f575f80fd5b506040516103b63803806103b683398101604081905261002e91610052565b5f80546001600160a01b0319166001600160a01b039290921691909117905561007f565b5f60208284031215610062575f80fd5b81516001600160a01b0381168114610078575f80fd5b9392505050565b61032a8061008c5f395ff3fe608060405234801561000f575f80fd5b506004361061004a575f3560e01c8063450d11f01461004e578063b47204771461007d578063b86cfdcf14610092578063cb10f94c146100a5575b5f80fd5b600154610061906001600160a01b031681565b6040516001600160a01b03909116815260200160405180910390f35b61009061008b3660046101b1565b6100b7565b005b6100906100a036600461022d565b610147565b5f54610061906001600160a01b031681565b5f338484846040516020016100cf949392919061024d565b60408051601f19818403018152908290525f546001546316f1983160e01b84529193506001600160a01b03908116926316f19831926101149216908590600401610298565b5f604051808303815f87803b15801561012b575f80fd5b505af115801561013d573d5f803e3d5ffd5b5050505050505050565b6001546001600160a01b03161561015c575f80fd5b600180547fffffffffffffffffffffffff0000000000000000000000000000000000000000166001600160a01b0392909216919091179055565b80356001600160a01b03811681146101ac575f80fd5b919050565b5f805f604084860312156101c3575f80fd5b6101cc84610196565b9250602084013567ffffffffffffffff808211156101e8575f80fd5b818601915086601f8301126101fb575f80fd5b813581811115610209575f80fd5b87602082850101111561021a575f80fd5b6020830194508093505050509250925092565b5f6020828403121561023d575f80fd5b61024682610196565b9392505050565b5f6001600160a01b03808716835280861660208401525060606040830152826060830152828460808401375f608084840101526080601f19601f850116830101905095945050505050565b6001600160a01b03831681525f602060408184015283518060408501525f5b818110156102d3578581018301518582016060015282016102b7565b505f606082860101526060601f19601f83011685010192505050939250505056fea264697066735822122034b436ceca39d41bc54ce903dcaf5b10622414280e06740f566b9a116f61387164736f6c63430008140033",
  "linkReferences": {},
  "deployedLinkReferences": {}
}