{
  "_format": "hh-sol-artifact-1",
  "contractName": "StakingFactory",
  "sourceName": "contracts/staking/StakingFactory.sol",
  "abi": [
    {
      "inputs": [
        {
          "internalType": "address",
          "name": "_verifier",
          "type": "address"
        }
      ],
      "stateMutability": "nonpayable",
      "type": "constructor"
    },
    {
      "inputs": [
        {
          "internalType": "address",
          "name": "implementation",
          "type": "address"
        }
      ],
      "name": "ContractOnly",
      "type": "error"
    },
    {
      "inputs": [
        {
          "internalType": "uint256",
          "name": "expected",
          "type": "uint256"
        },
        {
          "internalType": "uint256",
          "name": "provided",
          "type": "uint256"
        }
      ],
      "name": "IncorrectDataLength",
      "type": "error"
    },
    {
      "inputs": [
        {
          "internalType": "address",
          "name": "instance",
          "type": "address"
        }
      ],
      "name": "InitializationFailed",
      "type": "error"
    },
    {
      "inputs": [
        {
          "internalType": "address",
          "name": "sender",
          "type": "address"
        },
        {
          "internalType": "address",
          "name": "owner",
          "type": "address"
        }
      ],
      "name": "OwnerOnly",
      "type": "error"
    },
    {
      "inputs": [
        {
          "internalType": "address",
          "name": "implementation",
          "type": "address"
        }
      ],
      "name": "ProxyCreationFailed",
      "type": "error"
    },
    {
      "inputs": [],
      "name": "ReentrancyGuard",
      "type": "error"
    },
    {
      "inputs": [
        {
          "internalType": "address",
          "name": "implementation",
          "type": "address"
        }
      ],
      "name": "UnverifiedImplementation",
      "type": "error"
    },
    {
      "inputs": [
        {
          "internalType": "address",
          "name": "instance",
          "type": "address"
        }
      ],
      "name": "UnverifiedProxy",
      "type": "error"
    },
    {
      "inputs": [],
      "name": "ZeroAddress",
      "type": "error"
    },
    {
      "anonymous": false,
      "inputs": [
        {
          "indexed": true,
          "internalType": "address",
          "name": "sender",
          "type": "address"
        },
        {
          "indexed": true,
          "internalType": "address",
          "name": "instance",
          "type": "address"
        },
        {
          "indexed": true,
          "internalType": "address",
          "name": "implementation",
          "type": "address"
        }
      ],
      "name": "InstanceCreated",
      "type": "event"
    },
    {
      "anonymous": false,
      "inputs": [
        {
          "indexed": true,
          "internalType": "address",
          "name": "instance",
          "type": "address"
        },
        {
          "indexed": false,
          "internalType": "bool",
          "name": "isEnabled",
          "type": "bool"
        }
      ],
      "name": "InstanceStatusChanged",
      "type": "event"
    },
    {
      "anonymous": false,
      "inputs": [
        {
          "indexed": true,
          "internalType": "address",
          "name": "owner",
          "type": "address"
        }
      ],
      "name": "OwnerUpdated",
      "type": "event"
    },
    {
      "anonymous": false,
      "inputs": [
        {
          "indexed": true,
          "internalType": "address",
          "name": "verifier",
          "type": "address"
        }
      ],
      "name": "VerifierUpdated",
      "type": "event"
    },
    {
      "inputs": [],
      "name": "SELECTOR_DATA_LENGTH",
      "outputs": [
        {
          "internalType": "uint256",
          "name": "",
          "type": "uint256"
        }
      ],
      "stateMutability": "view",
      "type": "function"
    },
    {
      "inputs": [
        {
          "internalType": "address",
          "name": "newOwner",
          "type": "address"
        }
      ],
      "name": "changeOwner",
      "outputs": [],
      "stateMutability": "nonpayable",
      "type": "function"
    },
    {
      "inputs": [
        {
          "internalType": "address",
          "name": "newVerifier",
          "type": "address"
        }
      ],
      "name": "changeVerifier",
      "outputs": [],
      "stateMutability": "nonpayable",
      "type": "function"
    },
    {
      "inputs": [
        {
          "internalType": "address",
          "name": "implementation",
          "type": "address"
        },
        {
          "internalType": "bytes",
          "name": "initPayload",
          "type": "bytes"
        }
      ],
      "name": "createStakingInstance",
      "outputs": [
        {
          "internalType": "address payable",
          "name": "instance",
          "type": "address"
        }
      ],
      "stateMutability": "nonpayable",
      "type": "function"
    },
    {
      "inputs": [
        {
          "internalType": "address",
          "name": "implementation",
          "type": "address"
        }
      ],
      "name": "getProxyAddress",
      "outputs": [
        {
          "internalType": "address",
          "name": "",
          "type": "address"
        }
      ],
      "stateMutability": "view",
      "type": "function"
    },
    {
      "inputs": [
        {
          "internalType": "address",
          "name": "implementation",
          "type": "address"
        },
        {
          "internalType": "uint256",
          "name": "localNonce",
          "type": "uint256"
        }
      ],
      "name": "getProxyAddressWithNonce",
      "outputs": [
        {
          "internalType": "address",
          "name": "",
          "type": "address"
        }
      ],
      "stateMutability": "view",
      "type": "function"
    },
    {
      "inputs": [
        {
          "internalType": "address",
          "name": "",
          "type": "address"
        }
      ],
      "name": "mapInstanceParams",
      "outputs": [
        {
          "internalType": "address",
          "name": "implementation",
          "type": "address"
        },
        {
          "internalType": "address",
          "name": "deployer",
          "type": "address"
        },
        {
          "internalType": "bool",
          "name": "isEnabled",
          "type": "bool"
        }
      ],
      "stateMutability": "view",
      "type": "function"
    },
    {
      "inputs": [],
      "name": "nonce",
      "outputs": [
        {
          "internalType": "uint256",
          "name": "",
          "type": "uint256"
        }
      ],
      "stateMutability": "view",
      "type": "function"
    },
    {
      "inputs": [],
      "name": "owner",
      "outputs": [
        {
          "internalType": "address",
          "name": "",
          "type": "address"
        }
      ],
      "stateMutability": "view",
      "type": "function"
    },
    {
      "inputs": [
        {
          "internalType": "address",
          "name": "instance",
          "type": "address"
        },
        {
          "internalType": "bool",
          "name": "isEnabled",
          "type": "bool"
        }
      ],
      "name": "setInstanceStatus",
      "outputs": [],
      "stateMutability": "nonpayable",
      "type": "function"
    },
    {
      "inputs": [],
      "name": "verifier",
      "outputs": [
        {
          "internalType": "address",
          "name": "",
          "type": "address"
        }
      ],
      "stateMutability": "view",
      "type": "function"
    },
    {
      "inputs": [
        {
          "internalType": "address",
          "name": "instance",
          "type": "address"
        }
      ],
      "name": "verifyInstance",
      "outputs": [
        {
          "internalType": "bool",
          "name": "",
          "type": "bool"
        }
      ],
      "stateMutability": "view",
      "type": "function"
    },
    {
      "inputs": [
        {
          "internalType": "address",
          "name": "instance",
          "type": "address"
        }
      ],
      "name": "verifyInstanceAndGetEmissionsAmount",
      "outputs": [
        {
          "internalType": "uint256",
          "name": "amount",
          "type": "uint256"
        }
      ],
      "stateMutability": "view",
      "type": "function"
    }
  ],
  "bytecode": "0x608060405260016003553480156013575f80fd5b506040516110893803806110898339810160408190526030916062565b60018054336001600160a01b031991821617909155600280549091166001600160a01b0392909216919091179055608d565b5f602082840312156071575f80fd5b81516001600160a01b03811681146086575f80fd5b9392505050565b610fef8061009a5f395ff3fe608060405234801561000f575f80fd5b50600436106100da575f3560e01c80638da5cb5b11610088578063cf04fb9411610063578063cf04fb94146101b0578063e8dc705a146101c3578063ec2ee1f61461022a578063fa2a5b011461023d575f80fd5b80638da5cb5b14610182578063a6f9dae114610195578063affed0e0146101a8575f80fd5b80633ce3778c116100b85780633ce3778c14610144578063479e372e1461014c578063555b8adb1461016f575f80fd5b8063118e24bd146100de5780631eda94d7146100f35780632b7ac3f314610119575b5f80fd5b6100f16100ec366004610bfa565b610250565b005b610106610101366004610c2f565b610329565b6040519081526020015b60405180910390f35b60025461012c906001600160a01b031681565b6040516001600160a01b039091168152602001610110565b610106600481565b61015f61015a366004610c2f565b610434565b6040519015158152602001610110565b61012c61017d366004610c4f565b610513565b60015461012c906001600160a01b031681565b6100f16101a3366004610c2f565b610609565b6101065f5481565b6100f16101be366004610c2f565b6106c6565b6102026101d1366004610c2f565b60046020525f9081526040902080546001909101546001600160a01b0391821691811690600160a01b900460ff1683565b604080516001600160a01b039485168152939092166020840152151590820152606001610110565b61012c610238366004610c8b565b61075c565b61012c61024b366004610c2f565b610bb6565b6001600160a01b038083165f90815260046020526040902060018101549091163381146102a65760405163521eb56d60e11b81523360048201526001600160a01b03821660248201526044015b60405180910390fd5b600182018054841515600160a01b027fffffffffffffffffffffff00ffffffffffffffffffffffffffffffffffffffff9091161790556040516001600160a01b038516907f11126b4c1d3b69d7dd553c2f8b2be5f8fabfe22552ceffc3240126fdc087eca09061031b90861515815260200190565b60405180910390a250505050565b5f8061033483610434565b9050801561042e57826001600160a01b031663957323616040518163ffffffff1660e01b8152600401602060405180830381865afa158015610378573d5f803e3d5ffd5b505050506040513d601f19601f8201168201806040525081019061039c9190610d47565b6002549092506001600160a01b0316801561042c57604051630e1e19e160e21b81526001600160a01b0385811660048301525f9190831690633878678490602401602060405180830381865afa1580156103f8573d5f803e3d5ffd5b505050506040513d601f19601f8201168201806040525081019061041c9190610d47565b90508084111561042a578093505b505b505b50919050565b6001600160a01b038082165f908152600460205260408120805491929091168061046157505f9392505050565b6001820154600160a01b900460ff1661047d57505f9392505050565b6002546001600160a01b03168015610508576040516369be670b60e01b81526001600160a01b03868116600483015283811660248301528216906369be670b90604401602060405180830381865afa1580156104db573d5f803e3d5ffd5b505050506040513d601f19601f820116820180604052508101906104ff9190610d5e565b95945050505050565b506001949350505050565b604080514660208201529081018290525f9081906060016040516020818303038152906040528051906020012090505f6040518060200161055390610bc2565b601f1982820381018352601f90910116604081905261058091906001600160a01b03881690602001610d90565b60408051808303601f1901815282825280516020918201207fff00000000000000000000000000000000000000000000000000000000000000828501523060601b6bffffffffffffffffffffffff191660218501526035840195909552605580840195909552815180840390950185526075909201905282519201919091209150505b92915050565b6001546001600160a01b031633146106495760015460405163521eb56d60e11b81523360048201526001600160a01b03909116602482015260440161029d565b6001600160a01b0381166106705760405163d92e233d60e01b815260040160405180910390fd5b6001805473ffffffffffffffffffffffffffffffffffffffff19166001600160a01b0383169081179091556040517f4ffd725fc4a22075e9ec71c59edf9c38cdeb588a91b24fc5b61388c5be41282b905f90a250565b6001546001600160a01b031633146107065760015460405163521eb56d60e11b81523360048201526001600160a01b03909116602482015260440161029d565b6002805473ffffffffffffffffffffffffffffffffffffffff19166001600160a01b0383169081179091556040517fd24015cc99cc1700cafca3042840a1d8ac1e3964fd2e0e37ea29c654056ee327905f90a250565b5f60016003541115610781576040516345f5ce8b60e11b815260040160405180910390fd5b60026003556001600160a01b0383166107ad5760405163d92e233d60e01b815260040160405180910390fd5b826001600160a01b03163b5f036107e25760405163601c0c2160e01b81526001600160a01b038416600482015260240161029d565b6004825110156108145781516004604051631a64813d60e11b815260040161029d929190918252602082015260400190565b6002546001600160a01b031680158015906108945750604051634b19276b60e11b81526001600160a01b0385811660048301528216906396324ed690602401602060405180830381865afa15801561086e573d5f803e3d5ffd5b505050506040513d601f19601f820116820180604052508101906108929190610d5e565b155b156108bd57604051633df7a39d60e21b81526001600160a01b038516600482015260240161029d565b5f8054604080514660208201529081018290529091906060016040516020818303038152906040528051906020012090505f604051806020016108ff90610bc2565b601f1982820381018352601f90910116604081905261092c91906001600160a01b038a1690602001610d90565b6040516020818303038152906040529050818151826020015ff594506001600160a01b03851661097a576040516329c25ebd60e11b81526001600160a01b038816600482015260240161029d565b5f80866001600160a01b0316886040516109949190610da8565b5f604051808303815f865af19150503d805f81146109cd576040519150601f19603f3d011682016040523d82523d5f602084013e6109d2565b606091505b509150915081610a10578051156109ec5780518082602001fd5b604051633c4c93c960e21b81526001600160a01b038816600482015260240161029d565b6001600160a01b03861615801590610a9557506040516369be670b60e01b81526001600160a01b0388811660048301528a811660248301528716906369be670b90604401602060405180830381865afa158015610a6f573d5f803e3d5ffd5b505050506040513d601f19601f82011682018060405250810190610a939190610d5e565b155b15610abe57604051630a7f26af60e21b81526001600160a01b038816600482015260240161029d565b604080516060810182526001600160a01b038b8116825233602080840191825260018486018181528d85165f9081526004909352959091208451815473ffffffffffffffffffffffffffffffffffffffff1916908516178155915191810180549551929093167fffffffffffffffffffffff00000000000000000000000000000000000000000090951694909417600160a01b9115159190910217905590610b67908790610db3565b5f9081556040516001600160a01b03808d1692908b169133917fc88bd7cfbe8bae024ebb6f3cf291adfd7db2588a07e1c78768ea3c81b992496b91a45050600160035550939695505050505050565b5f610603825f54610513565b6101e780610dd383390190565b80356001600160a01b0381168114610be5575f80fd5b919050565b8015158114610bf7575f80fd5b50565b5f8060408385031215610c0b575f80fd5b610c1483610bcf565b91506020830135610c2481610bea565b809150509250929050565b5f60208284031215610c3f575f80fd5b610c4882610bcf565b9392505050565b5f8060408385031215610c60575f80fd5b610c6983610bcf565b946020939093013593505050565b634e487b7160e01b5f52604160045260245ffd5b5f8060408385031215610c9c575f80fd5b610ca583610bcf565b9150602083013567ffffffffffffffff80821115610cc1575f80fd5b818501915085601f830112610cd4575f80fd5b813581811115610ce657610ce6610c77565b604051601f8201601f19908116603f01168101908382118183101715610d0e57610d0e610c77565b81604052828152886020848701011115610d26575f80fd5b826020860160208301375f6020848301015280955050505050509250929050565b5f60208284031215610d57575f80fd5b5051919050565b5f60208284031215610d6e575f80fd5b8151610c4881610bea565b5f81518060208401855e5f93019283525090919050565b5f610d9b8285610d79565b9283525050602001919050565b5f610c488284610d79565b8082018082111561060357634e487b7160e01b5f52601160045260245ffdfe6080604052348015600e575f80fd5b506040516101e73803806101e7833981016040819052602b916077565b6001600160a01b03811660515760405163d02c623d60e01b815260040160405180910390fd5b7f9e5e169c1098011e4e5940a3ec1797686b2a8294a9b77a4c676b121bdc0ebb5e5560a2565b5f602082840312156086575f80fd5b81516001600160a01b0381168114609b575f80fd5b9392505050565b610138806100af5f395ff3fe608060405260043610610028575f3560e01c806346032dbc14610069578063aaf10f42146100af575b7f9e5e169c1098011e4e5940a3ec1797686b2a8294a9b77a4c676b121bdc0ebb5e54365f80375f80365f845af490503d5f803e80610064573d5ffd5b503d5ff35b348015610074575f80fd5b5061009c7f9e5e169c1098011e4e5940a3ec1797686b2a8294a9b77a4c676b121bdc0ebb5e81565b6040519081526020015b60405180910390f35b3480156100ba575f80fd5b507f9e5e169c1098011e4e5940a3ec1797686b2a8294a9b77a4c676b121bdc0ebb5e5460405173ffffffffffffffffffffffffffffffffffffffff90911681526020016100a656fea2646970667358221220cd2f3d25e9410d8ca6f1f5af516d26b4d6351d087dd182806de06350446497fb64736f6c63430008190033a26469706673582212207a7356735a28c52c5cd035d734d9c4bb44709cfb5d2cc6551f35faf79a9f4b3264736f6c63430008190033",
  "linkReferences": {},
  "deployedLinkReferences": {}
}