{
  "_format": "hh-sol-artifact-1",
  "contractName": "StakingVerifier",
  "sourceName": "contracts/staking/StakingVerifier.sol",
  "abi": [
    {
      "inputs": [
        {
          "internalType": "address",
          "name": "_olas",
          "type": "address"
        },
        {
          "internalType": "uint256",
          "name": "_rewardsPerSecondLimit",
          "type": "uint256"
        },
        {
          "internalType": "uint256",
          "name": "_timeForEmissionsLimit",
          "type": "uint256"
        },
        {
          "internalType": "uint256",
          "name": "_numServicesLimit",
          "type": "uint256"
        }
      ],
      "stateMutability": "nonpayable",
      "type": "constructor"
    },
    {
      "inputs": [
        {
          "internalType": "address",
          "name": "sender",
          "type": "address"
        },
        {
          "internalType": "address",
          "name": "owner",
          "type": "address"
        }
      ],
      "name": "OwnerOnly",
      "type": "error"
    },
    {
      "inputs": [
        {
          "internalType": "uint256",
          "name": "numValues1",
          "type": "uint256"
        },
        {
          "internalType": "uint256",
          "name": "numValues2",
          "type": "uint256"
        }
      ],
      "name": "WrongArrayLength",
      "type": "error"
    },
    {
      "inputs": [],
      "name": "ZeroAddress",
      "type": "error"
    },
    {
      "inputs": [],
      "name": "ZeroValue",
      "type": "error"
    },
    {
      "anonymous": false,
      "inputs": [
        {
          "indexed": false,
          "internalType": "address[]",
          "name": "implementations",
          "type": "address[]"
        },
        {
          "indexed": false,
          "internalType": "bool[]",
          "name": "statuses",
          "type": "bool[]"
        },
        {
          "indexed": false,
          "internalType": "bool",
          "name": "setCheck",
          "type": "bool"
        }
      ],
      "name": "ImplementationsWhitelistUpdated",
      "type": "event"
    },
    {
      "anonymous": false,
      "inputs": [
        {
          "indexed": true,
          "internalType": "address",
          "name": "owner",
          "type": "address"
        }
      ],
      "name": "OwnerUpdated",
      "type": "event"
    },
    {
      "anonymous": false,
      "inputs": [
        {
          "indexed": false,
          "internalType": "bool",
          "name": "setCheck",
          "type": "bool"
        }
      ],
      "name": "SetImplementationsCheck",
      "type": "event"
    },
    {
      "anonymous": false,
      "inputs": [
        {
          "indexed": false,
          "internalType": "uint256",
          "name": "rewardsPerSecondLimit",
          "type": "uint256"
        },
        {
          "indexed": false,
          "internalType": "uint256",
          "name": "timeForEmissionsLimit",
          "type": "uint256"
        },
        {
          "indexed": false,
          "internalType": "uint256",
          "name": "_numServicesLimit",
          "type": "uint256"
        },
        {
          "indexed": false,
          "internalType": "uint256",
          "name": "emissionsLimit",
          "type": "uint256"
        }
      ],
      "name": "StakingLimitsUpdated",
      "type": "event"
    },
    {
      "inputs": [
        {
          "internalType": "address",
          "name": "newOwner",
          "type": "address"
        }
      ],
      "name": "changeOwner",
      "outputs": [],
      "stateMutability": "nonpayable",
      "type": "function"
    },
    {
      "inputs": [
        {
          "internalType": "uint256",
          "name": "_rewardsPerSecondLimit",
          "type": "uint256"
        },
        {
          "internalType": "uint256",
          "name": "_timeForEmissionsLimit",
          "type": "uint256"
        },
        {
          "internalType": "uint256",
          "name": "_numServicesLimit",
          "type": "uint256"
        }
      ],
      "name": "changeStakingLimits",
      "outputs": [],
      "stateMutability": "nonpayable",
      "type": "function"
    },
    {
      "inputs": [],
      "name": "emissionsLimit",
      "outputs": [
        {
          "internalType": "uint256",
          "name": "",
          "type": "uint256"
        }
      ],
      "stateMutability": "view",
      "type": "function"
    },
    {
      "inputs": [
        {
          "internalType": "address",
          "name": "",
          "type": "address"
        }
      ],
      "name": "getEmissionsAmountLimit",
      "outputs": [
        {
          "internalType": "uint256",
          "name": "",
          "type": "uint256"
        }
      ],
      "stateMutability": "view",
      "type": "function"
    },
    {
      "inputs": [],
      "name": "implementationsCheck",
      "outputs": [
        {
          "internalType": "bool",
          "name": "",
          "type": "bool"
        }
      ],
      "stateMutability": "view",
      "type": "function"
    },
    {
      "inputs": [
        {
          "internalType": "address",
          "name": "",
          "type": "address"
        }
      ],
      "name": "mapImplementations",
      "outputs": [
        {
          "internalType": "bool",
          "name": "",
          "type": "bool"
        }
      ],
      "stateMutability": "view",
      "type": "function"
    },
    {
      "inputs": [],
      "name": "numServicesLimit",
      "outputs": [
        {
          "internalType": "uint256",
          "name": "",
          "type": "uint256"
        }
      ],
      "stateMutability": "view",
      "type": "function"
    },
    {
      "inputs": [],
      "name": "olas",
      "outputs": [
        {
          "internalType": "address",
          "name": "",
          "type": "address"
        }
      ],
      "stateMutability": "view",
      "type": "function"
    },
    {
      "inputs": [],
      "name": "owner",
      "outputs": [
        {
          "internalType": "address",
          "name": "",
          "type": "address"
        }
      ],
      "stateMutability": "view",
      "type": "function"
    },
    {
      "inputs": [],
      "name": "rewardsPerSecondLimit",
      "outputs": [
        {
          "internalType": "uint256",
          "name": "",
          "type": "uint256"
        }
      ],
      "stateMutability": "view",
      "type": "function"
    },
    {
      "inputs": [
        {
          "internalType": "bool",
          "name": "setCheck",
          "type": "bool"
        }
      ],
      "name": "setImplementationsCheck",
      "outputs": [],
      "stateMutability": "nonpayable",
      "type": "function"
    },
    {
      "inputs": [
        {
          "internalType": "address[]",
          "name": "implementations",
          "type": "address[]"
        },
        {
          "internalType": "bool[]",
          "name": "statuses",
          "type": "bool[]"
        },
        {
          "internalType": "bool",
          "name": "setCheck",
          "type": "bool"
        }
      ],
      "name": "setImplementationsStatuses",
      "outputs": [],
      "stateMutability": "nonpayable",
      "type": "function"
    },
    {
      "inputs": [],
      "name": "timeForEmissionsLimit",
      "outputs": [
        {
          "internalType": "uint256",
          "name": "",
          "type": "uint256"
        }
      ],
      "stateMutability": "view",
      "type": "function"
    },
    {
      "inputs": [
        {
          "internalType": "address",
          "name": "implementation",
          "type": "address"
        }
      ],
      "name": "verifyImplementation",
      "outputs": [
        {
          "internalType": "bool",
          "name": "",
          "type": "bool"
        }
      ],
      "stateMutability": "view",
      "type": "function"
    },
    {
      "inputs": [
        {
          "internalType": "address",
          "name": "instance",
          "type": "address"
        },
        {
          "internalType": "address",
          "name": "implementation",
          "type": "address"
        }
      ],
      "name": "verifyInstance",
      "outputs": [
        {
          "internalType": "bool",
          "name": "",
          "type": "bool"
        }
      ],
      "stateMutability": "view",
      "type": "function"
    }
  ],
  "bytecode": "0x60a060405234801561000f575f80fd5b50604051610dea380380610dea83398101604081905261002e916100d6565b6001600160a01b0384166100555760405163d92e233d60e01b815260040160405180910390fd5b821580610060575081155b80610069575080155b1561008757604051637c946ed760e01b815260040160405180910390fd5b600480546001600160a01b031916331790556001600160a01b0384166080525f83905560018290556002819055806100bf838561011d565b6100c9919061011d565b6003555061014692505050565b5f805f80608085870312156100e9575f80fd5b84516001600160a01b03811681146100ff575f80fd5b60208601516040870151606090970151919890975090945092505050565b808202811582820484141761014057634e487b7160e01b5f52601160045260245ffd5b92915050565b608051610c866101645f395f818160f801526105e90152610c865ff3fe608060405234801561000f575f80fd5b50600436106100ef575f3560e01c80638da5cb5b11610093578063a6f9dae111610063578063a6f9dae114610208578063c44684181461021b578063c78c050e1461022e578063fcf7684e14610236575f80fd5b80638da5cb5b146101c657806396324ed6146101d95780639ac28fa0146101ec5780639ce05885146101f5575f80fd5b80631aa402f0116100ce5780631aa402f01461017e5780633878678414610195578063517c0a8f146101aa57806369be670b146101b3575f80fd5b806231d115146100f35780630bea55ed146101375780630d93650c1461014c575b5f80fd5b61011a7f000000000000000000000000000000000000000000000000000000000000000081565b6040516001600160a01b0390911681526020015b60405180910390f35b61014a6101453660046109d8565b61024a565b005b61016e61015a366004610aa3565b60056020525f908152604090205460ff1681565b604051901515815260200161012e565b61018760035481565b60405190815260200161012e565b6101876101a3366004610aa3565b5060035490565b61018760025481565b61016e6101c1366004610ac5565b6103e3565b60045461011a906001600160a01b031681565b61016e6101e7366004610aa3565b610651565b61018760015481565b61014a610203366004610afc565b61068b565b61014a610216366004610aa3565b61076e565b61014a610229366004610b25565b610837565b6101875f5481565b60045461016e90600160a01b900460ff1681565b6004546001600160a01b03163314610292576004805460405163521eb56d60e11b81526001600160a01b03909116918101919091523360248201526044015b60405180910390fd5b825115806102a257508151835114155b156102cd57825182516040516308151c1160e41b815260048101929092526024820152604401610289565b6004805460ff60a01b1916600160a01b831515021790555f5b83518110156103a2575f6001600160a01b031684828151811061030b5761030b610b3e565b60200260200101516001600160a01b03160361033a5760405163d92e233d60e01b815260040160405180910390fd5b82818151811061034c5761034c610b3e565b602002602001015160055f86848151811061036957610369610b3e565b6020908102919091018101516001600160a01b031682528101919091526040015f20805460ff19169115159190911790556001016102e6565b507fa75993bdbe9ad771324babfee934d208587d3321632d15aa92547ee7122635418383836040516103d693929190610b52565b60405180910390a1505050565b6004545f90600160a01b900460ff16801561041657506001600160a01b0382165f9081526005602052604090205460ff16155b1561042257505f61064b565b826001600160a01b03163b5f0361043a57505f61064b565b5f836001600160a01b031663eacdaabc6040518163ffffffff1660e01b8152600401602060405180830381865afa158015610477573d5f803e3d5ffd5b505050506040513d601f19601f8201168201806040525081019061049b9190610be5565b90505f548111156104af575f91505061064b565b5f846001600160a01b03166316a751726040518163ffffffff1660e01b8152600401602060405180830381865afa1580156104ec573d5f803e3d5ffd5b505050506040513d601f19601f820116820180604052508101906105109190610be5565b9050600254811115610526575f9250505061064b565b60408051600481526024810182526020810180517bffffffffffffffffffffffffffffffffffffffffffffffffffffffff166372f702f360e01b17905290515f9081906001600160a01b0389169061057f908590610bfc565b5f60405180830381855afa9150503d805f81146105b7576040519150601f19603f3d011682016040523d82523d5f602084013e6105bc565b606091505b50915091508115610641578051602003610634575f818060200190518101906105e59190610c12565b90507f00000000000000000000000000000000000000000000000000000000000000006001600160a01b0316816001600160a01b03161461062e575f965050505050505061064b565b50610641565b5f9550505050505061064b565b6001955050505050505b92915050565b6004545f90600160a01b900460ff161561068357506001600160a01b03165f9081526005602052604090205460ff1690565b506001919050565b6004546001600160a01b031633146106ce576004805460405163521eb56d60e11b81526001600160a01b0390911691810191909152336024820152604401610289565b8215806106d9575081155b806106e2575080155b1561070057604051637c946ed760e01b815260040160405180910390fd5b5f83905560018290556002819055806107198385610c2d565b6107239190610c2d565b6003819055604080518581526020810185905290810183905260608101919091527faf40dfd820e3c4d9869867d01bef72bc7355b89f888bde8f0e24025202b0d745906080016103d6565b6004546001600160a01b031633146107af576004805460405163521eb56d60e11b815233928101929092526001600160a01b03166024820152604401610289565b6001600160a01b0381166107d65760405163d92e233d60e01b815260040160405180910390fd5b600480547fffffffffffffffffffffffff0000000000000000000000000000000000000000166001600160a01b0383169081179091556040517f4ffd725fc4a22075e9ec71c59edf9c38cdeb588a91b24fc5b61388c5be41282b905f90a250565b6004546001600160a01b0316331461087a576004805460405163521eb56d60e11b81526001600160a01b0390911691810191909152336024820152604401610289565b60048054821515600160a01b0260ff60a01b199091161790556040517fdc17e046a4e55c5445deae0e2503d60b1ce5ecce83a0dc62c9066bbc7f39db56906108c790831515815260200190565b60405180910390a150565b634e487b7160e01b5f52604160045260245ffd5b604051601f8201601f1916810167ffffffffffffffff8111828210171561090f5761090f6108d2565b604052919050565b5f67ffffffffffffffff821115610930576109306108d2565b5060051b60200190565b6001600160a01b038116811461094e575f80fd5b50565b80358015158114610960575f80fd5b919050565b5f82601f830112610974575f80fd5b8135602061098961098483610917565b6108e6565b8083825260208201915060208460051b8701019350868411156109aa575f80fd5b602086015b848110156109cd576109c081610951565b83529183019183016109af565b509695505050505050565b5f805f606084860312156109ea575f80fd5b833567ffffffffffffffff80821115610a01575f80fd5b818601915086601f830112610a14575f80fd5b81356020610a2461098483610917565b82815260059290921b8401810191818101908a841115610a42575f80fd5b948201945b83861015610a69578535610a5a8161093a565b82529482019490820190610a47565b97505087013592505080821115610a7e575f80fd5b50610a8b86828701610965565b925050610a9a60408501610951565b90509250925092565b5f60208284031215610ab3575f80fd5b8135610abe8161093a565b9392505050565b5f8060408385031215610ad6575f80fd5b8235610ae18161093a565b91506020830135610af18161093a565b809150509250929050565b5f805f60608486031215610b0e575f80fd5b505081359360208301359350604090920135919050565b5f60208284031215610b35575f80fd5b610abe82610951565b634e487b7160e01b5f52603260045260245ffd5b606080825284519082018190525f906020906080840190828801845b82811015610b935781516001600160a01b031684529284019290840190600101610b6e565b505050838103828501528551808252868301918301905f5b81811015610bc9578351151583529284019291840191600101610bab565b505085151560408601529250610bdd915050565b949350505050565b5f60208284031215610bf5575f80fd5b5051919050565b5f82518060208501845e5f920191825250919050565b5f60208284031215610c22575f80fd5b8151610abe8161093a565b808202811582820484141761064b57634e487b7160e01b5f52601160045260245ffdfea264697066735822122015bcf7e93ce2984a20ee1c23374dcaaebfb1eb1ec8d13a3f1b49a2162ea210ef64736f6c63430008190033",
  "linkReferences": {},
  "deployedLinkReferences": {}
}