{
  "_format": "hh-sol-artifact-1",
  "contractName": "StakingNativeToken",
  "sourceName": "contracts/staking/StakingNativeToken.sol",
  "abi": [
    {
      "inputs": [],
      "name": "AlreadyInitialized",
      "type": "error"
    },
    {
      "inputs": [
        {
          "internalType": "address",
          "name": "activityChecker",
          "type": "address"
        }
      ],
      "name": "ContractOnly",
      "type": "error"
    },
    {
      "inputs": [
        {
          "internalType": "uint256",
          "name": "provided",
          "type": "uint256"
        },
        {
          "internalType": "uint256",
          "name": "expected",
          "type": "uint256"
        }
      ],
      "name": "LowerThan",
      "type": "error"
    },
    {
      "inputs": [
        {
          "internalType": "uint256",
          "name": "maxNumServices",
          "type": "uint256"
        }
      ],
      "name": "MaxNumServicesReached",
      "type": "error"
    },
    {
      "inputs": [],
      "name": "NoRewardsAvailable",
      "type": "error"
    },
    {
      "inputs": [
        {
          "internalType": "uint256",
          "name": "serviceId",
          "type": "uint256"
        },
        {
          "internalType": "uint256",
          "name": "tsProvided",
          "type": "uint256"
        },
        {
          "internalType": "uint256",
          "name": "tsExpected",
          "type": "uint256"
        }
      ],
      "name": "NotEnoughTimeStaked",
      "type": "error"
    },
    {
      "inputs": [
        {
          "internalType": "address",
          "name": "sender",
          "type": "address"
        },
        {
          "internalType": "address",
          "name": "owner",
          "type": "address"
        }
      ],
      "name": "OwnerOnly",
      "type": "error"
    },
    {
      "inputs": [
        {
          "internalType": "uint256",
          "name": "serviceId",
          "type": "uint256"
        }
      ],
      "name": "ServiceNotUnstaked",
      "type": "error"
    },
    {
      "inputs": [
        {
          "internalType": "address",
          "name": "token",
          "type": "address"
        },
        {
          "internalType": "address",
          "name": "from",
          "type": "address"
        },
        {
          "internalType": "address",
          "name": "to",
          "type": "address"
        },
        {
          "internalType": "uint256",
          "name": "value",
          "type": "uint256"
        }
      ],
      "name": "TransferFailed",
      "type": "error"
    },
    {
      "inputs": [
        {
          "internalType": "address",
          "name": "multisig",
          "type": "address"
        }
      ],
      "name": "UnauthorizedMultisig",
      "type": "error"
    },
    {
      "inputs": [
        {
          "internalType": "uint256",
          "name": "agentId",
          "type": "uint256"
        }
      ],
      "name": "WrongAgentId",
      "type": "error"
    },
    {
      "inputs": [
        {
          "internalType": "uint256",
          "name": "serviceId",
          "type": "uint256"
        }
      ],
      "name": "WrongServiceConfiguration",
      "type": "error"
    },
    {
      "inputs": [
        {
          "internalType": "uint256",
          "name": "state",
          "type": "uint256"
        },
        {
          "internalType": "uint256",
          "name": "serviceId",
          "type": "uint256"
        }
      ],
      "name": "WrongServiceState",
      "type": "error"
    },
    {
      "inputs": [],
      "name": "ZeroAddress",
      "type": "error"
    },
    {
      "inputs": [],
      "name": "ZeroValue",
      "type": "error"
    },
    {
      "anonymous": false,
      "inputs": [
        {
          "indexed": true,
          "internalType": "uint256",
          "name": "epoch",
          "type": "uint256"
        },
        {
          "indexed": false,
          "internalType": "uint256",
          "name": "availableRewards",
          "type": "uint256"
        },
        {
          "indexed": false,
          "internalType": "uint256[]",
          "name": "serviceIds",
          "type": "uint256[]"
        },
        {
          "indexed": false,
          "internalType": "uint256[]",
          "name": "rewards",
          "type": "uint256[]"
        },
        {
          "indexed": false,
          "internalType": "uint256",
          "name": "epochLength",
          "type": "uint256"
        }
      ],
      "name": "Checkpoint",
      "type": "event"
    },
    {
      "anonymous": false,
      "inputs": [
        {
          "indexed": true,
          "internalType": "address",
          "name": "sender",
          "type": "address"
        },
        {
          "indexed": false,
          "internalType": "uint256",
          "name": "amount",
          "type": "uint256"
        },
        {
          "indexed": false,
          "internalType": "uint256",
          "name": "balance",
          "type": "uint256"
        },
        {
          "indexed": false,
          "internalType": "uint256",
          "name": "availableRewards",
          "type": "uint256"
        }
      ],
      "name": "Deposit",
      "type": "event"
    },
    {
      "anonymous": false,
      "inputs": [
        {
          "indexed": false,
          "internalType": "uint256",
          "name": "epoch",
          "type": "uint256"
        },
        {
          "indexed": true,
          "internalType": "uint256",
          "name": "serviceId",
          "type": "uint256"
        },
        {
          "indexed": true,
          "internalType": "address",
          "name": "owner",
          "type": "address"
        },
        {
          "indexed": true,
          "internalType": "address",
          "name": "multisig",
          "type": "address"
        },
        {
          "indexed": false,
          "internalType": "uint256[]",
          "name": "nonces",
          "type": "uint256[]"
        },
        {
          "indexed": false,
          "internalType": "uint256",
          "name": "reward",
          "type": "uint256"
        }
      ],
      "name": "RewardClaimed",
      "type": "event"
    },
    {
      "anonymous": false,
      "inputs": [
        {
          "indexed": false,
          "internalType": "uint256",
          "name": "epoch",
          "type": "uint256"
        },
        {
          "indexed": true,
          "internalType": "uint256",
          "name": "serviceId",
          "type": "uint256"
        },
        {
          "indexed": false,
          "internalType": "uint256",
          "name": "serviceInactivity",
          "type": "uint256"
        }
      ],
      "name": "ServiceInactivityWarning",
      "type": "event"
    },
    {
      "anonymous": false,
      "inputs": [
        {
          "indexed": false,
          "internalType": "uint256",
          "name": "epoch",
          "type": "uint256"
        },
        {
          "indexed": true,
          "internalType": "uint256",
          "name": "serviceId",
          "type": "uint256"
        },
        {
          "indexed": true,
          "internalType": "address",
          "name": "owner",
          "type": "address"
        },
        {
          "indexed": true,
          "internalType": "address",
          "name": "multisig",
          "type": "address"
        },
        {
          "indexed": false,
          "internalType": "uint256[]",
          "name": "nonces",
          "type": "uint256[]"
        }
      ],
      "name": "ServiceStaked",
      "type": "event"
    },
    {
      "anonymous": false,
      "inputs": [
        {
          "indexed": false,
          "internalType": "uint256",
          "name": "epoch",
          "type": "uint256"
        },
        {
          "indexed": true,
          "internalType": "uint256",
          "name": "serviceId",
          "type": "uint256"
        },
        {
          "indexed": true,
          "internalType": "address",
          "name": "owner",
          "type": "address"
        },
        {
          "indexed": true,
          "internalType": "address",
          "name": "multisig",
          "type": "address"
        },
        {
          "indexed": false,
          "internalType": "uint256[]",
          "name": "nonces",
          "type": "uint256[]"
        },
        {
          "indexed": false,
          "internalType": "uint256",
          "name": "reward",
          "type": "uint256"
        }
      ],
      "name": "ServiceUnstaked",
      "type": "event"
    },
    {
      "anonymous": false,
      "inputs": [
        {
          "indexed": true,
          "internalType": "uint256",
          "name": "epoch",
          "type": "uint256"
        },
        {
          "indexed": false,
          "internalType": "uint256[]",
          "name": "serviceIds",
          "type": "uint256[]"
        },
        {
          "indexed": false,
          "internalType": "address[]",
          "name": "owners",
          "type": "address[]"
        },
        {
          "indexed": false,
          "internalType": "address[]",
          "name": "multisigs",
          "type": "address[]"
        },
        {
          "indexed": false,
          "internalType": "uint256[]",
          "name": "serviceInactivity",
          "type": "uint256[]"
        }
      ],
      "name": "ServicesEvicted",
      "type": "event"
    },
    {
      "anonymous": false,
      "inputs": [
        {
          "indexed": true,
          "internalType": "address",
          "name": "to",
          "type": "address"
        },
        {
          "indexed": false,
          "internalType": "uint256",
          "name": "amount",
          "type": "uint256"
        }
      ],
      "name": "Withdraw",
      "type": "event"
    },
    {
      "inputs": [],
      "name": "VERSION",
      "outputs": [
        {
          "internalType": "string",
          "name": "",
          "type": "string"
        }
      ],
      "stateMutability": "view",
      "type": "function"
    },
    {
      "inputs": [],
      "name": "activityChecker",
      "outputs": [
        {
          "internalType": "address",
          "name": "",
          "type": "address"
        }
      ],
      "stateMutability": "view",
      "type": "function"
    },
    {
      "inputs": [
        {
          "internalType": "uint256",
          "name": "",
          "type": "uint256"
        }
      ],
      "name": "agentIds",
      "outputs": [
        {
          "internalType": "uint256",
          "name": "",
          "type": "uint256"
        }
      ],
      "stateMutability": "view",
      "type": "function"
    },
    {
      "inputs": [],
      "name": "availableRewards",
      "outputs": [
        {
          "internalType": "uint256",
          "name": "",
          "type": "uint256"
        }
      ],
      "stateMutability": "view",
      "type": "function"
    },
    {
      "inputs": [],
      "name": "balance",
      "outputs": [
        {
          "internalType": "uint256",
          "name": "",
          "type": "uint256"
        }
      ],
      "stateMutability": "view",
      "type": "function"
    },
    {
      "inputs": [
        {
          "internalType": "uint256",
          "name": "serviceId",
          "type": "uint256"
        }
      ],
      "name": "calculateStakingLastReward",
      "outputs": [
        {
          "internalType": "uint256",
          "name": "reward",
          "type": "uint256"
        }
      ],
      "stateMutability": "view",
      "type": "function"
    },
    {
      "inputs": [
        {
          "internalType": "uint256",
          "name": "serviceId",
          "type": "uint256"
        }
      ],
      "name": "calculateStakingReward",
      "outputs": [
        {
          "internalType": "uint256",
          "name": "reward",
          "type": "uint256"
        }
      ],
      "stateMutability": "view",
      "type": "function"
    },
    {
      "inputs": [],
      "name": "checkpoint",
      "outputs": [
        {
          "internalType": "uint256[]",
          "name": "",
          "type": "uint256[]"
        },
        {
          "internalType": "uint256[][]",
          "name": "",
          "type": "uint256[][]"
        },
        {
          "internalType": "uint256[]",
          "name": "",
          "type": "uint256[]"
        },
        {
          "internalType": "uint256[]",
          "name": "",
          "type": "uint256[]"
        },
        {
          "internalType": "uint256[]",
          "name": "evictServiceIds",
          "type": "uint256[]"
        }
      ],
      "stateMutability": "nonpayable",
      "type": "function"
    },
    {
      "inputs": [
        {
          "internalType": "uint256",
          "name": "serviceId",
          "type": "uint256"
        }
      ],
      "name": "checkpointAndClaim",
      "outputs": [
        {
          "internalType": "uint256",
          "name": "",
          "type": "uint256"
        }
      ],
      "stateMutability": "nonpayable",
      "type": "function"
    },
    {
      "inputs": [
        {
          "internalType": "uint256",
          "name": "serviceId",
          "type": "uint256"
        }
      ],
      "name": "claim",
      "outputs": [
        {
          "internalType": "uint256",
          "name": "",
          "type": "uint256"
        }
      ],
      "stateMutability": "nonpayable",
      "type": "function"
    },
    {
      "inputs": [],
      "name": "configHash",
      "outputs": [
        {
          "internalType": "bytes32",
          "name": "",
          "type": "bytes32"
        }
      ],
      "stateMutability": "view",
      "type": "function"
    },
    {
      "inputs": [],
      "name": "emissionsAmount",
      "outputs": [
        {
          "internalType": "uint256",
          "name": "",
          "type": "uint256"
        }
      ],
      "stateMutability": "view",
      "type": "function"
    },
    {
      "inputs": [],
      "name": "epochCounter",
      "outputs": [
        {
          "internalType": "uint256",
          "name": "",
          "type": "uint256"
        }
      ],
      "stateMutability": "view",
      "type": "function"
    },
    {
      "inputs": [],
      "name": "getAgentIds",
      "outputs": [
        {
          "internalType": "uint256[]",
          "name": "",
          "type": "uint256[]"
        }
      ],
      "stateMutability": "view",
      "type": "function"
    },
    {
      "inputs": [],
      "name": "getNextRewardCheckpointTimestamp",
      "outputs": [
        {
          "internalType": "uint256",
          "name": "tsNext",
          "type": "uint256"
        }
      ],
      "stateMutability": "view",
      "type": "function"
    },
    {
      "inputs": [],
      "name": "getServiceIds",
      "outputs": [
        {
          "internalType": "uint256[]",
          "name": "",
          "type": "uint256[]"
        }
      ],
      "stateMutability": "view",
      "type": "function"
    },
    {
      "inputs": [
        {
          "internalType": "uint256",
          "name": "serviceId",
          "type": "uint256"
        }
      ],
      "name": "getServiceInfo",
      "outputs": [
        {
          "components": [
            {
              "internalType": "address",
              "name": "multisig",
              "type": "address"
            },
            {
              "internalType": "address",
              "name": "owner",
              "type": "address"
            },
            {
              "internalType": "uint256[]",
              "name": "nonces",
              "type": "uint256[]"
            },
            {
              "internalType": "uint256",
              "name": "tsStart",
              "type": "uint256"
            },
            {
              "internalType": "uint256",
              "name": "reward",
              "type": "uint256"
            },
            {
              "internalType": "uint256",
              "name": "inactivity",
              "type": "uint256"
            }
          ],
          "internalType": "struct ServiceInfo",
          "name": "sInfo",
          "type": "tuple"
        }
      ],
      "stateMutability": "view",
      "type": "function"
    },
    {
      "inputs": [
        {
          "internalType": "uint256",
          "name": "serviceId",
          "type": "uint256"
        }
      ],
      "name": "getStakingState",
      "outputs": [
        {
          "internalType": "enum StakingBase.StakingState",
          "name": "stakingState",
          "type": "uint8"
        }
      ],
      "stateMutability": "view",
      "type": "function"
    },
    {
      "inputs": [
        {
          "components": [
            {
              "internalType": "bytes32",
              "name": "metadataHash",
              "type": "bytes32"
            },
            {
              "internalType": "uint256",
              "name": "maxNumServices",
              "type": "uint256"
            },
            {
              "internalType": "uint256",
              "name": "rewardsPerSecond",
              "type": "uint256"
            },
            {
              "internalType": "uint256",
              "name": "minStakingDeposit",
              "type": "uint256"
            },
            {
              "internalType": "uint256",
              "name": "minNumStakingPeriods",
              "type": "uint256"
            },
            {
              "internalType": "uint256",
              "name": "maxNumInactivityPeriods",
              "type": "uint256"
            },
            {
              "internalType": "uint256",
              "name": "livenessPeriod",
              "type": "uint256"
            },
            {
              "internalType": "uint256",
              "name": "timeForEmissions",
              "type": "uint256"
            },
            {
              "internalType": "uint256",
              "name": "numAgentInstances",
              "type": "uint256"
            },
            {
              "internalType": "uint256[]",
              "name": "agentIds",
              "type": "uint256[]"
            },
            {
              "internalType": "uint256",
              "name": "threshold",
              "type": "uint256"
            },
            {
              "internalType": "bytes32",
              "name": "configHash",
              "type": "bytes32"
            },
            {
              "internalType": "bytes32",
              "name": "proxyHash",
              "type": "bytes32"
            },
            {
              "internalType": "address",
              "name": "serviceRegistry",
              "type": "address"
            },
            {
              "internalType": "address",
              "name": "activityChecker",
              "type": "address"
            }
          ],
          "internalType": "struct StakingBase.StakingParams",
          "name": "_stakingParams",
          "type": "tuple"
        }
      ],
      "name": "initialize",
      "outputs": [],
      "stateMutability": "nonpayable",
      "type": "function"
    },
    {
      "inputs": [],
      "name": "livenessPeriod",
      "outputs": [
        {
          "internalType": "uint256",
          "name": "",
          "type": "uint256"
        }
      ],
      "stateMutability": "view",
      "type": "function"
    },
    {
      "inputs": [
        {
          "internalType": "uint256",
          "name": "",
          "type": "uint256"
        }
      ],
      "name": "mapServiceInfo",
      "outputs": [
        {
          "internalType": "address",
          "name": "multisig",
          "type": "address"
        },
        {
          "internalType": "address",
          "name": "owner",
          "type": "address"
        },
        {
          "internalType": "uint256",
          "name": "tsStart",
          "type": "uint256"
        },
        {
          "internalType": "uint256",
          "name": "reward",
          "type": "uint256"
        },
        {
          "internalType": "uint256",
          "name": "inactivity",
          "type": "uint256"
        }
      ],
      "stateMutability": "view",
      "type": "function"
    },
    {
      "inputs": [],
      "name": "maxInactivityDuration",
      "outputs": [
        {
          "internalType": "uint256",
          "name": "",
          "type": "uint256"
        }
      ],
      "stateMutability": "view",
      "type": "function"
    },
    {
      "inputs": [],
      "name": "maxNumInactivityPeriods",
      "outputs": [
        {
          "internalType": "uint256",
          "name": "",
          "type": "uint256"
        }
      ],
      "stateMutability": "view",
      "type": "function"
    },
    {
      "inputs": [],
      "name": "maxNumServices",
      "outputs": [
        {
          "internalType": "uint256",
          "name": "",
          "type": "uint256"
        }
      ],
      "stateMutability": "view",
      "type": "function"
    },
    {
      "inputs": [],
      "name": "metadataHash",
      "outputs": [
        {
          "internalType": "bytes32",
          "name": "",
          "type": "bytes32"
        }
      ],
      "stateMutability": "view",
      "type": "function"
    },
    {
      "inputs": [],
      "name": "minStakingDeposit",
      "outputs": [
        {
          "internalType": "uint256",
          "name": "",
          "type": "uint256"
        }
      ],
      "stateMutability": "view",
      "type": "function"
    },
    {
      "inputs": [],
      "name": "minStakingDuration",
      "outputs": [
        {
          "internalType": "uint256",
          "name": "",
          "type": "uint256"
        }
      ],
      "stateMutability": "view",
      "type": "function"
    },
    {
      "inputs": [],
      "name": "numAgentInstances",
      "outputs": [
        {
          "internalType": "uint256",
          "name": "",
          "type": "uint256"
        }
      ],
      "stateMutability": "view",
      "type": "function"
    },
    {
      "inputs": [
        {
          "internalType": "address",
          "name": "",
          "type": "address"
        },
        {
          "internalType": "address",
          "name": "",
          "type": "address"
        },
        {
          "internalType": "uint256",
          "name": "",
          "type": "uint256"
        },
        {
          "internalType": "bytes",
          "name": "",
          "type": "bytes"
        }
      ],
      "name": "onERC721Received",
      "outputs": [
        {
          "internalType": "bytes4",
          "name": "",
          "type": "bytes4"
        }
      ],
      "stateMutability": "nonpayable",
      "type": "function"
    },
    {
      "inputs": [],
      "name": "proxyHash",
      "outputs": [
        {
          "internalType": "bytes32",
          "name": "",
          "type": "bytes32"
        }
      ],
      "stateMutability": "view",
      "type": "function"
    },
    {
      "inputs": [],
      "name": "rewardsPerSecond",
      "outputs": [
        {
          "internalType": "uint256",
          "name": "",
          "type": "uint256"
        }
      ],
      "stateMutability": "view",
      "type": "function"
    },
    {
      "inputs": [],
      "name": "serviceRegistry",
      "outputs": [
        {
          "internalType": "address",
          "name": "",
          "type": "address"
        }
      ],
      "stateMutability": "view",
      "type": "function"
    },
    {
      "inputs": [
        {
          "internalType": "uint256",
          "name": "",
          "type": "uint256"
        }
      ],
      "name": "setServiceIds",
      "outputs": [
        {
          "internalType": "uint256",
          "name": "",
          "type": "uint256"
        }
      ],
      "stateMutability": "view",
      "type": "function"
    },
    {
      "inputs": [
        {
          "internalType": "uint256",
          "name": "serviceId",
          "type": "uint256"
        }
      ],
      "name": "stake",
      "outputs": [],
      "stateMutability": "nonpayable",
      "type": "function"
    },
    {
      "inputs": [],
      "name": "threshold",
      "outputs": [
        {
          "internalType": "uint256",
          "name": "",
          "type": "uint256"
        }
      ],
      "stateMutability": "view",
      "type": "function"
    },
    {
      "inputs": [],
      "name": "timeForEmissions",
      "outputs": [
        {
          "internalType": "uint256",
          "name": "",
          "type": "uint256"
        }
      ],
      "stateMutability": "view",
      "type": "function"
    },
    {
      "inputs": [],
      "name": "tsCheckpoint",
      "outputs": [
        {
          "internalType": "uint256",
          "name": "",
          "type": "uint256"
        }
      ],
      "stateMutability": "view",
      "type": "function"
    },
    {
      "inputs": [
        {
          "internalType": "uint256",
          "name": "serviceId",
          "type": "uint256"
        }
      ],
      "name": "unstake",
      "outputs": [
        {
          "internalType": "uint256",
          "name": "reward",
          "type": "uint256"
        }
      ],
      "stateMutability": "nonpayable",
      "type": "function"
    },
    {
      "stateMutability": "payable",
      "type": "receive"
    }
  ],
  "bytecode": "0x6080604052348015600e575f80fd5b506135e28061001c5f395ff3fe60806040526004361061027a575f3560e01c80638f9e0a621161014b578063cbcf252a116100c6578063f189e85a1161007c578063f86ad2b611610062578063f86ad2b614610758578063fd0bba8c1461076d578063ffa1ad7414610799575f80fd5b8063f189e85a14610730578063f4dce71414610744575f80fd5b8063e77cdcc9116100ac578063e77cdcc9146106e7578063eacdaabc146106fc578063eb338c9614610711575f80fd5b8063cbcf252a146106b3578063e1f1176d146106d2575f80fd5b8063a74466ad1161011b578063b69ef8a811610101578063b69ef8a814610665578063c2c4c5c11461067a578063c5a1d7f01461069f575f80fd5b8063a74466ad146105bd578063b150876014610644575f80fd5b80638f9e0a621461053d5780639573236114610574578063a0ed60e014610589578063a694fc3a1461059e575f80fd5b806342cde4e8116101f55780637fbe2833116101ab57806382a8ea581161019157806382a8ea58146104dd57806383f9eb2214610509578063879d909014610528575f80fd5b80637fbe2833146104a9578063809cee2f146104c8575f80fd5b8063546af2e0116101db578063546af2e01461045657806356e76058146104755780635829c5ec14610494575f80fd5b806342cde4e81461042c57806352c824f514610441575f80fd5b806316a751721161024a5780632e17de78116102305780632e17de78146103d9578063379607f5146103f85780633e73299714610417575f80fd5b806316a75172146103af5780631f779408146103c4575f80fd5b806308ae7e54146102f55780630a07dc301461031d57806314b19c5a1461033e578063150b7a0214610353575f80fd5b366102f1575f3460105461028e9190612b44565b90505f3460115461029f9190612b44565b60108390556011819055604080513481526020810185905290810182905290915033907f36af321ec8d3c75236829c5317affd40ddb308863a1236d2d277a4025cccee1e9060600160405180910390a2005b5f80fd5b348015610300575f80fd5b5061030a600d5481565b6040519081526020015b60405180910390f35b348015610328575f80fd5b5061033c610337366004612cc0565b6107d6565b005b348015610349575f80fd5b5061030a600f5481565b34801561035e575f80fd5b5061037e61036d366004612dd4565b630a85bd0160e11b95945050505050565b6040517fffffffff000000000000000000000000000000000000000000000000000000009091168152602001610314565b3480156103ba575f80fd5b5061030a60015481565b3480156103cf575f80fd5b5061030a60065481565b3480156103e4575f80fd5b5061030a6103f3366004612e6b565b6107e2565b348015610403575f80fd5b5061030a610412366004612e6b565b610b68565b348015610422575f80fd5b5061030a60135481565b348015610437575f80fd5b5061030a60085481565b34801561044c575f80fd5b5061030a60055481565b348015610461575f80fd5b5061030a610470366004612e6b565b610b79565b348015610480575f80fd5b5061030a61048f366004612e6b565b610b85565b34801561049f575f80fd5b5061030a60075481565b3480156104b4575f80fd5b5061030a6104c3366004612e6b565b610ba4565b3480156104d3575f80fd5b5061030a600a5481565b3480156104e8575f80fd5b506104fc6104f7366004612e6b565b610c6b565b6040516103149190612ebc565b348015610514575f80fd5b5061030a610523366004612e6b565b610d5a565b348015610533575f80fd5b5061030a60115481565b348015610548575f80fd5b50600c5461055c906001600160a01b031681565b6040516001600160a01b039091168152602001610314565b34801561057f575f80fd5b5061030a60125481565b348015610594575f80fd5b5061030a60045481565b3480156105a9575f80fd5b5061033c6105b8366004612e6b565b610e12565b3480156105c8575f80fd5b506106116105d7366004612e6b565b60156020525f9081526040902080546001820154600383015460048401546005909401546001600160a01b03938416949390921692909185565b604080516001600160a01b039687168152959094166020860152928401919091526060830152608082015260a001610314565b34801561064f575f80fd5b506106586112fe565b6040516103149190612f22565b348015610670575f80fd5b5061030a60105481565b348015610685575f80fd5b5061068e611354565b604051610314959493929190612f34565b3480156106aa575f80fd5b5061030a5f5481565b3480156106be575f80fd5b50600b5461055c906001600160a01b031681565b3480156106dd575f80fd5b5061030a60095481565b3480156106f2575f80fd5b5061030a60035481565b348015610707575f80fd5b5061030a60025481565b34801561071c575f80fd5b5061030a61072b366004612e6b565b6119c0565b34801561073b575f80fd5b506106586119cf565b34801561074f575f80fd5b5061030a611a23565b348015610763575f80fd5b5061030a600e5481565b348015610778575f80fd5b5061078c610787366004612e6b565b611a39565b6040516103149190612ff5565b3480156107a4575f80fd5b506107c9604051806040016040528060058152602001640302e322e360dc1b81525081565b604051610314919061301b565b6107df81611b0b565b50565b5f81815260156020526040812060018101546001600160a01b0316331461083857600181015460405163521eb56d60e11b81523360048201526001600160a01b0390911660248201526044015b60405180910390fd5b60038101545f6108488242613050565b9050600d54811115801561085d57505f601154115b1561089057600d5460405163ba2bbc6b60e01b81526004810187905260248101839052604481019190915260640161082f565b5f8061089a611354565b9450505050915081515f036108fa576108b16119cf565b9150815167ffffffffffffffff8111156108cd576108cd612b57565b6040519080825280602002602001820160405280156108f6578160200160208202803683370190505b5090505b5f805b835182101561095a578883838151811061091957610919613063565b6020026020010151031561095a578884838151811061093a5761093a613063565b60200260200101510361094f5750600161095a565b8160010191506108fd565b866004015497505f876002018054806020026020016040519081016040528092919081815260200182805480156109ae57602002820191905f5260205f20905b81548152602001906001019080831161099a575b50508b545f8f8152601560205260408120805473ffffffffffffffffffffffffffffffffffffffff19908116825560018201805490911690559596506001600160a01b039091169493509150610a0990506002830182612ab8565b505f60038201819055600482018190556005909101558215610a915760168054610a3590600190613050565b81548110610a4557610a45613063565b905f5260205f20015460168581548110610a6157610a61613063565b5f918252602090912001556016805480610a7d57610a7d613077565b600190038181905f5260205f20015f905590555b600b54604051632142170760e11b8152306004820152336024820152604481018d90526001600160a01b03909116906342842e0e906064015f604051808303815f87803b158015610ae0575f80fd5b505af1158015610af2573d5f803e3d5ffd5b505050505f8a1115610b0857610b08818b611e96565b806001600160a01b0316336001600160a01b03168c7f950733f4c0bf951b8e770f3cc619a4288e7b59b1236d59aeaf2c238488e8ae81600f54868f604051610b529392919061308b565b60405180910390a4505050505050505050919050565b5f610b73825f611f3e565b92915050565b5f610b73826001611f3e565b60148181548110610b94575f80fd5b5f91825260209091200154905081565b5f818152601560209081526040808320815160c08101835281546001600160a01b0390811682526001830154168185015260028201805484518187028101870186528181528796939586019390929190830182828015610c2157602002820191905f5260205f20905b815481526020019060010190808311610c0d575b505050505081526020016003820154815260200160048201548152602001600582015481525050905080608001519150610c5a83610d5a565b610c649083612b44565b9392505050565b610cb16040518060c001604052805f6001600160a01b031681526020015f6001600160a01b03168152602001606081526020015f81526020015f81526020015f81525090565b5f82815260156020908152604091829020825160c08101845281546001600160a01b0390811682526001830154168184015260028201805485518186028101860187528181529295939493860193830182828015610d2c57602002820191905f5260205f20905b815481526020019060010190808311610d18575b5050505050815260200160038201548152602001600482015481526020016005820154815250509050919050565b5f805f805f80610d68612042565b505050945094509450945094505f5b84811015610e075787838281518110610d9257610d92613063565b602002602001015103610dff5785841115610dde578386838381518110610dbb57610dbb613063565b6020026020010151610dcd91906130b3565b610dd791906130de565b9650610e07565b818181518110610df057610df0613063565b60200260200101519650610e07565b600101610d77565b505050505050919050565b6011545f03610e345760405163afb0be3360e01b815260040160405180910390fd5b5f818152601560205260409020600381015415610e675760405163b4817ce760e01b81526004810183905260240161082f565b6016546001548103610e925760015460405163fd20861560e01b815260040161082f91815260200190565b600b5460405163ef0e239b60e01b8152600481018590525f916001600160a01b03169063ef0e239b906024015f60405180830381865afa158015610ed8573d5f803e3d5ffd5b505050506040513d5f823e601f3d908101601f19168201604052610eff919081019061319b565b9050806080015163ffffffff1660075414610f3057604051637ad404bf60e11b81526004810185905260240161082f565b60095415801590610f475750806040015160095414155b15610f6857604051637ad404bf60e11b81526004810185905260240161082f565b5f600854118015610f855750806060015163ffffffff1660085414155b15610fa657604051637ad404bf60e11b81526004810185905260240161082f565b60048160c001516005811115610fbe57610fbe612fe1565b14610ffd578060c001516005811115610fd957610fd9612fe1565b604051633c053f9d60e21b815260048101919091526024810185905260440161082f565b5f81602001516001600160a01b0316803b806020016040519081016040528181525f908060200190933c80519060200120905080600a541461106257602082015160405162a2307960e51b81526001600160a01b03909116600482015260240161082f565b60145480156111265760e08301515181811461109457604051637ad404bf60e11b81526004810188905260240161082f565b5f5b81811015611123578460e0015181815181106110b4576110b4613063565b602002602001015163ffffffff16601482815481106110d5576110d5613063565b905f5260205f2001541461111b57601481815481106110f6576110f6613063565b905f5260205f200154604051632ab10b0b60e21b815260040161082f91815260200190565b600101611096565b50505b61114686845f01516bffffffffffffffffffffffff168560e001516123d8565b602083015185546001600160a01b0391821673ffffffffffffffffffffffffffffffffffffffff19918216811788556001880180549092163317909155600c5460405163d564c4bf60e01b815260048101929092525f92169063d564c4bf906024015f60405180830381865afa1580156111c2573d5f803e3d5ffd5b505050506040513d5f823e601f3d908101601f191682016040526111e99190810190613274565b80519091506112019060028801906020840190612ad3565b50426003870155601680546001810182555f919091527fd833147d7dc355ba459fc788f669e58cfaf9dc25ddcd0702e87d69c7b512428901879055600b54604051632142170760e11b8152336004820152306024820152604481018990526001600160a01b03909116906342842e0e906064015f604051808303815f87803b15801561128b575f80fd5b505af115801561129d573d5f803e3d5ffd5b5050505083602001516001600160a01b0316336001600160a01b0316887faa6b005b4958114a0c90492461c24af6525ae0178db7fbf44125ae9217c69ccb600f54856040516112ed929190613300565b60405180910390a450505050505050565b6060601480548060200260200160405190810160405280929190818152602001828054801561134a57602002820191905f5260205f20905b815481526020019060010190808311611336575b5050505050905090565b60608060608060605f805f805f805f8061136c612042565b97509750975097509750975097509750606080845167ffffffffffffffff81111561139957611399612b57565b6040519080825280602002602001820160405280156113c2578160200160208202803683370190505b509a505f8915611743578967ffffffffffffffff8111156113e5576113e5612b57565b60405190808252806020026020018201604052801561140e578160200160208202803683370190505b5092508967ffffffffffffffff81111561142a5761142a612b57565b604051908082528060200260200182016040528015611453578160200160208202803683370190505b5091508a891115611650575f8060015b8c81101561154c578b8e8b838151811061147f5761147f613063565b602002602001015161149191906130b3565b61149b91906130de565b92506114a78383612b44565b91508a81815181106114bb576114bb613063565b602002602001015193508a81815181106114d7576114d7613063565b60200260200101518682815181106114f1576114f1613063565b6020026020010181815250508285828151811061151057611510613063565b6020026020010181815250508260155f8681526020019081526020015f206004015f82825461153f9190612b44565b9091555050600101611463565b508a8d8a5f8151811061156157611561613063565b602002602001015161157391906130b3565b61157d91906130de565b91506115898282612b44565b9050895f8151811061159d5761159d613063565b60200260200101519250895f815181106115b9576115b9613063565b6020026020010151855f815181106115d3576115d3613063565b602002602001018181525050808d11156115fe576115f1818e613050565b6115fb9083612b44565b91505b81845f8151811061161157611611613063565b6020026020010181815250508160155f8581526020019081526020015f206004015f8282546116409190612b44565b909155505f9d5061173d92505050565b5f5b8a81101561172f5788818151811061166c5761166c613063565b6020026020010151915088818151811061168857611688613063565b60200260200101518482815181106116a2576116a2613063565b6020026020010181815250508781815181106116c0576116c0613063565b60200260200101518382815181106116da576116da613063565b6020026020010181815250508781815181106116f8576116f8613063565b602002602001015160155f8481526020019081526020015f206004015f8282546117229190612b44565b9091555050600101611652565b5061173a898c613050565b9a505b60118b90555b8551156119aa57600f545f9a508a5b87518110156119315787818151811061176d5761176d613063565b6020026020010151925086818151811061178957611789613063565b602002602001015160155f8581526020019081526020015f2060020190805190602001906117b8929190612ad3565b505f8682815181106117cc576117cc613063565b60200260200101511115611917578581815181106117ec576117ec613063565b602002602001015160155f8581526020019081526020015f20600501546118139190612b44565b86828151811061182557611825613063565b60200260200101818152505085818151811061184357611843613063565b602002602001015160155f8581526020019081526020015f2060050181905550600e5486828151811061187857611878613063565b602002602001015111156118b657828e828151811061189957611899613063565b60209081029190910101528b6118ae81613320565b9c5050611929565b827f33dc5cdf1e035de8a7fe16ad7a30a441d30ee51719d3f07703ee35d4348f0779838884815181106118eb576118eb613063565b602002602001015160405161190a929190918252602082015260400190565b60405180910390a2611929565b5f838152601560205260408120600501555b600101611752565b508a15611943576119438d868d61251c565b5f601354426119529190613050565b426013559050611963826001612b44565b600f81905550817f48b735a18ed32318d316214e41387be29c52e29df4598f2b8e40fa843be3f9408e87878560405161199f9493929190613338565b60405180910390a250505b50939e929d509b50919950969750505050505050565b60168181548110610b94575f80fd5b6060601680548060200260200160405190810160405280929190818152602001828054801561134a57602002820191905f5260205f2090815481526020019060010190808311611336575050505050905090565b5f600554601354611a349190612b44565b905090565b5f818152601560209081526040808320815160c08101835281546001600160a01b0390811682526001830154168185015260028201805484518187028101870186528181528796939586019390929190830182828015611ab657602002820191905f5260205f20905b815481526020019060010190808311611aa2575b5050505050815260200160038201548152602001600482015481526020016005820154815250509050600e548160a001511115611af65760029150611b05565b606081015115611b0557600191505b50919050565b600b546001600160a01b031615611b345760405162dc149f60e41b815260040160405180910390fd5b80511580611b4457506020810151155b80611b5157506040810151155b80611b5e575060c0810151155b80611b6c5750610100810151155b80611b79575060e0810151155b80611b8657506080810151155b80611b93575060a0810151155b15611bb157604051637c946ed760e01b815260040160405180910390fd5b8060a0015181608001511015611bed57608081015160a082015160405163491a2bb160e01b81526004810192909252602482015260440161082f565b600281606001511015611c2357606081015160405163491a2bb160e01b815260048101919091526002602482015260440161082f565b6101a08101516001600160a01b03161580611c4a57506101c08101516001600160a01b0316155b15611c685760405163d92e233d60e01b815260040160405180910390fd5b806101c001516001600160a01b03163b5f03611ca9576101c081015160405163601c0c2160e01b81526001600160a01b03909116600482015260240161082f565b80515f90815560208201516001556040820151600255606082015160035560a082015160045560c082015160055560e08201516006556101008201516007556101a0820151600b80546001600160a01b0392831673ffffffffffffffffffffffffffffffffffffffff19918216179091556101c0840151600c8054919093169116179055610140820151600855610160820151600955805b82610120015151811015611e0f57818361012001518281518110611d6757611d67613063565b602002602001015111611daf578261012001518181518110611d8b57611d8b613063565b6020026020010151604051632ab10b0b60e21b815260040161082f91815260200190565b8261012001518181518110611dc657611dc6613063565b602090810291909101015160148054600181810183555f929092527fce6d7b5282bd9a3661ae061feed1dbda4e52ab073b1f9285be6e155d9c38d4ec0182905590925001611d41565b506101808201515f03611e3557604051637c946ed760e01b815260040160405180910390fd5b610180820151600a556005546080830151611e5091906130b3565b600d5560055460a0830151611e6591906130b3565b600e5560e082015160208301516040840151611e8191906130b3565b611e8b91906130b3565b601255505042601355565b8060105f828254611ea79190613050565b90915550506040515f906001600160a01b0384169083908381818185875af1925050503d805f8114611ef4576040519150601f19603f3d011682016040523d82523d5f602084013e611ef9565b606091505b5050905080611f395760405163cd3f165960e01b81525f60048201523060248201526001600160a01b03841660448201526064810183905260840161082f565b505050565b5f82815260156020526040812060018101546001600160a01b03163314611f8f57600181015460405163521eb56d60e11b81523360048201526001600160a01b03909116602482015260440161082f565b8215611fa357611f9d611354565b50505050505b80600401549150815f03611fca57604051637c946ed760e01b815260040160405180910390fd5b5f600482015580546001600160a01b0316611fe58184611e96565b806001600160a01b0316336001600160a01b0316867f31add0166dae59ea66bbc180e4fae85b72fc9b7b5fc7b0f7257e4721a840c96e600f54866002018860405161203293929190613374565b60405180910390a4505092915050565b5f805f60608060608060605f6013549050601154985060055481426120679190613050565b1015801561207457505f89115b156123cd576016548067ffffffffffffffff81111561209557612095612b57565b6040519080825280602002602001820160405280156120be578160200160208202803683370190505b5094508067ffffffffffffffff8111156120da576120da612b57565b604051908082528060200260200182016040528015612103578160200160208202803683370190505b5096508067ffffffffffffffff81111561211f5761211f612b57565b604051908082528060200260200182016040528015612148578160200160208202803683370190505b5095508067ffffffffffffffff81111561216457612164612b57565b60405190808252806020026020018201604052801561219757816020015b60608152602001906001900390816121825790505b5093508067ffffffffffffffff8111156121b3576121b3612b57565b6040519080825280602002602001820160405280156121dc578160200160208202803683370190505b5092505f5b818110156123ca57601681815481106121fc576121fc613063565b905f5260205f20015486828151811061221757612217613063565b6020026020010181815250505f60155f88848151811061223957612239613063565b602002602001015181526020019081526020015f2090505f8490505f8260030154905081811115612268578091505b6122728242613050565b8354600285018054604080516020808402820181019092528281529495505f946122dc946001600160a01b031693909290918301828280156122d157602002820191905f5260205f20905b8154815260200190600101908083116122bd575b5050505050846128d1565b8a87815181106122ee576122ee613063565b60209081029190910101529050801561239b578160025461230f91906130b3565b8b8f8151811061232157612321613063565b6020026020010181815250508a8e8151811061233f5761233f613063565b60200260200101518d6123529190612b44565b9c5089858151811061236657612366613063565b60200260200101518c8f8151811061238057612380613063565b60209081029190910101526123948e613320565b9d506123bb565b818886815181106123ae576123ae613063565b6020026020010181815250505b505050508060010190506121e1565b50505b509091929394959697565b600354808310156124065760405163491a2bb160e01b8152600481018490526024810182905260440161082f565b600b54604051630ef1435d60e11b8152600481018690525f9182916001600160a01b0390911690631de286ba906024015f60405180830381865afa158015612450573d5f803e3d5ffd5b505050506040513d5f823e601f3d908101601f1916820160405261247791908101906133ce565b915091505f5b82811015612513578382828151811061249857612498613063565b6020026020010151602001516bffffffffffffffffffffffff16101561250b578181815181106124ca576124ca613063565b6020026020010151602001518460405163491a2bb160e01b815260040161082f9291906bffffffffffffffffffffffff929092168252602082015260400190565b60010161247d565b50505050505050565b82515f8267ffffffffffffffff81111561253857612538612b57565b604051908082528060200260200182016040528015612561578160200160208202803683370190505b5090505f8367ffffffffffffffff81111561257e5761257e612b57565b6040519080825280602002602001820160405280156125a7578160200160208202803683370190505b5090505f8467ffffffffffffffff8111156125c4576125c4612b57565b6040519080825280602002602001820160405280156125ed578160200160208202803683370190505b5090505f8567ffffffffffffffff81111561260a5761260a612b57565b604051908082528060200260200182016040528015612633578160200160208202803683370190505b5090505f8667ffffffffffffffff81111561265057612650612b57565b604051908082528060200260200182016040528015612679578160200160208202803683370190505b5090505f805f5b888110156127d5575f8c828151811061269b5761269b613063565b602002602001015111156127cd578b81815181106126bb576126bb613063565b60200260200101519150818884815181106126d8576126d8613063565b6020908102919091018101919091525f838152601590915260409020600181015488516001600160a01b039091169089908690811061271957612719613063565b6001600160a01b0392831660209182029290920101528154885191169088908690811061274857612748613063565b60200260200101906001600160a01b031690816001600160a01b0316815250508b828151811061277a5761277a613063565b602002602001015186858151811061279457612794613063565b602002602001018181525050818585815181106127b3576127b3613063565b6020908102919091010152836127c881613320565b945050505b600101612680565b50885b801561288357886127e881613496565b99505f9050846127f9600184613050565b8151811061280957612809613063565b6020026020010151905060168a8154811061282657612826613063565b905f5260205f2001546016828154811061284257612842613063565b5f91825260209091200155601680548061285e5761285e613077565b600190038181905f5260205f20015f90559055508061287c90613496565b90506127d8565b50600f547fd19a3d42ed383465e4058c322d9411aeac76ddb8454d22e139fc99808bd56952888888886040516128bc94939291906134e3565b60405180910390a25050505050505050505050565b6040516001600160a01b03841660248201525f90606090829060440160408051601f198184030181529181526020820180517bffffffffffffffffffffffffffffffffffffffffffffffffffffffff1663d564c4bf60e01b179052600c5490519192505f9182916001600160a01b03169061294d90859061352f565b5f60405180830381855afa9150503d805f8114612985576040519150601f19603f3d011682016040523d82523d5f602084013e61298a565b606091505b509150915081801561299d5750603f8151115b80156129b45750602081516129b29190613545565b155b15612aad57808060200190518101906129cd9190613274565b93508387876040516024016129e493929190613558565b60408051601f198184030181529181526020820180517bffffffffffffffffffffffffffffffffffffffffffffffffffffffff1663184023a560e01b179052600c5490519194506001600160a01b031690612a4090859061352f565b5f60405180830381855afa9150503d805f8114612a78576040519150601f19603f3d011682016040523d82523d5f602084013e612a7d565b606091505b509092509050818015612a91575080516020145b15612aad5780806020019051810190612aaa919061358d565b94505b505050935093915050565b5080545f8255905f5260205f20908101906107df9190612b1c565b828054828255905f5260205f20908101928215612b0c579160200282015b82811115612b0c578251825591602001919060010190612af1565b50612b18929150612b1c565b5090565b5b80821115612b18575f8155600101612b1d565b634e487b7160e01b5f52601160045260245ffd5b80820180821115610b7357610b73612b30565b634e487b7160e01b5f52604160045260245ffd5b6040516101e0810167ffffffffffffffff81118282101715612b8f57612b8f612b57565b60405290565b604051610100810167ffffffffffffffff81118282101715612b8f57612b8f612b57565b6040805190810167ffffffffffffffff81118282101715612b8f57612b8f612b57565b604051601f8201601f1916810167ffffffffffffffff81118282101715612c0557612c05612b57565b604052919050565b5f67ffffffffffffffff821115612c2657612c26612b57565b5060051b60200190565b5f82601f830112612c3f575f80fd5b81356020612c54612c4f83612c0d565b612bdc565b8083825260208201915060208460051b870101935086841115612c75575f80fd5b602086015b84811015612c915780358352918301918301612c7a565b509695505050505050565b6001600160a01b03811681146107df575f80fd5b8035612cbb81612c9c565b919050565b5f60208284031215612cd0575f80fd5b813567ffffffffffffffff80821115612ce7575f80fd5b908301906101e08286031215612cfb575f80fd5b612d03612b6b565b823581526020830135602082015260408301356040820152606083013560608201526080830135608082015260a083013560a082015260c083013560c082015260e083013560e08201526101008084013581830152506101208084013583811115612d6c575f80fd5b612d7888828701612c30565b91830191909152506101408381013590820152610160808401359082015261018080840135908201526101a09150612db1828401612cb0565b828201526101c09150612dc5828401612cb0565b91810191909152949350505050565b5f805f805f60808688031215612de8575f80fd5b8535612df381612c9c565b94506020860135612e0381612c9c565b935060408601359250606086013567ffffffffffffffff80821115612e26575f80fd5b818801915088601f830112612e39575f80fd5b813581811115612e47575f80fd5b896020828501011115612e58575f80fd5b9699959850939650602001949392505050565b5f60208284031215612e7b575f80fd5b5035919050565b5f815180845260208085019450602084015f5b83811015612eb157815187529582019590820190600101612e95565b509495945050505050565b602081525f6001600160a01b0380845116602084015280602085015116604084015250604083015160c06060840152612ef860e0840182612e82565b905060608401516080840152608084015160a084015260a084015160c08401528091505092915050565b602081525f610c646020830184612e82565b60a081525f612f4660a0830188612e82565b6020838203818501528188518084528284019150828160051b850101838b015f5b83811015612f9557601f19878403018552612f83838351612e82565b94860194925090850190600101612f67565b50508681036040880152612fa9818b612e82565b9450505050508281036060840152612fc18186612e82565b90508281036080840152612fd58185612e82565b98975050505050505050565b634e487b7160e01b5f52602160045260245ffd5b602081016003831061301557634e487b7160e01b5f52602160045260245ffd5b91905290565b602081525f82518060208401528060208501604085015e5f604082850101526040601f19601f83011684010191505092915050565b81810381811115610b7357610b73612b30565b634e487b7160e01b5f52603260045260245ffd5b634e487b7160e01b5f52603160045260245ffd5b838152606060208201525f6130a36060830185612e82565b9050826040830152949350505050565b8082028115828204841417610b7357610b73612b30565b634e487b7160e01b5f52601260045260245ffd5b5f826130ec576130ec6130ca565b500490565b80516bffffffffffffffffffffffff81168114612cbb575f80fd5b8051612cbb81612c9c565b805163ffffffff81168114612cbb575f80fd5b805160068110612cbb575f80fd5b5f82601f830112613147575f80fd5b81516020613157612c4f83612c0d565b8083825260208201915060208460051b870101935086841115613178575f80fd5b602086015b84811015612c915761318e81613117565b835291830191830161317d565b5f602082840312156131ab575f80fd5b815167ffffffffffffffff808211156131c2575f80fd5b9083019061010082860312156131d6575f80fd5b6131de612b95565b6131e7836130f1565b81526131f56020840161310c565b60208201526040830151604082015261321060608401613117565b606082015261322160808401613117565b608082015261323260a08401613117565b60a082015261324360c0840161312a565b60c082015260e083015182811115613259575f80fd5b61326587828601613138565b60e08301525095945050505050565b5f6020808385031215613285575f80fd5b825167ffffffffffffffff81111561329b575f80fd5b8301601f810185136132ab575f80fd5b80516132b9612c4f82612c0d565b81815260059190911b820183019083810190878311156132d7575f80fd5b928401925b828410156132f5578351825292840192908401906132dc565b979650505050505050565b828152604060208201525f6133186040830184612e82565b949350505050565b5f6001820161333157613331612b30565b5060010190565b848152608060208201525f6133506080830186612e82565b82810360408401526133628186612e82565b91505082606083015295945050505050565b5f60608201858352602060606020850152818654808452608086019150875f5260205f2093505f5b818110156133b85784548352600194850194928401920161339c565b5050809350505050826040830152949350505050565b5f8060408084860312156133e0575f80fd5b8351925060208085015167ffffffffffffffff8111156133fe575f80fd5b8501601f8101871361340e575f80fd5b805161341c612c4f82612c0d565b81815260069190911b8201830190838101908983111561343a575f80fd5b928401925b828410156134865785848b031215613455575f80fd5b61345d612bb9565b61346685613117565b81526134738686016130f1565b818701528252928501929084019061343f565b8096505050505050509250929050565b5f816134a4576134a4612b30565b505f190190565b5f815180845260208085019450602084015f5b83811015612eb15781516001600160a01b0316875295820195908201906001016134be565b608081525f6134f56080830187612e82565b828103602084015261350781876134ab565b9050828103604084015261351b81866134ab565b905082810360608401526132f58185612e82565b5f82518060208501845e5f920191825250919050565b5f82613553576135536130ca565b500690565b606081525f61356a6060830186612e82565b828103602084015261357c8186612e82565b915050826040830152949350505050565b5f6020828403121561359d575f80fd5b81518015158114610c64575f80fdfea26469706673582212205645499c229086d8bfdb446fef14d7263d1030d25955f532d96a15e11782ee6664736f6c63430008190033",
  "linkReferences": {},
  "deployedLinkReferences": {}
}