{
  "_format": "hh-sol-artifact-1",
  "contractName": "StakingActivityChecker",
  "sourceName": "contracts/staking/StakingActivityChecker.sol",
  "abi": [
    {
      "inputs": [
        {
          "internalType": "uint256",
          "name": "_livenessRatio",
          "type": "uint256"
        }
      ],
      "stateMutability": "nonpayable",
      "type": "constructor"
    },
    {
      "inputs": [],
      "name": "ZeroValue",
      "type": "error"
    },
    {
      "inputs": [
        {
          "internalType": "address",
          "name": "multisig",
          "type": "address"
        }
      ],
      "name": "getMultisigNonces",
      "outputs": [
        {
          "internalType": "uint256[]",
          "name": "nonces",
          "type": "uint256[]"
        }
      ],
      "stateMutability": "view",
      "type": "function"
    },
    {
      "inputs": [
        {
          "internalType": "uint256[]",
          "name": "curNonces",
          "type": "uint256[]"
        },
        {
          "internalType": "uint256[]",
          "name": "lastNonces",
          "type": "uint256[]"
        },
        {
          "internalType": "uint256",
          "name": "ts",
          "type": "uint256"
        }
      ],
      "name": "isRatioPass",
      "outputs": [
        {
          "internalType": "bool",
          "name": "ratioPass",
          "type": "bool"
        }
      ],
      "stateMutability": "view",
      "type": "function"
    },
    {
      "inputs": [],
      "name": "livenessRatio",
      "outputs": [
        {
          "internalType": "uint256",
          "name": "",
          "type": "uint256"
        }
      ],
      "stateMutability": "view",
      "type": "function"
    }
  ],
  "bytecode": "0x60a0604052348015600e575f80fd5b50604051610518380380610518833981016040819052602b916051565b805f03604a57604051637c946ed760e01b815260040160405180910390fd5b6080526067565b5f602082840312156060575f80fd5b5051919050565b6080516104936100855f395f81816070015261016401526104935ff3fe608060405234801561000f575f80fd5b506004361061003f575f3560e01c8063184023a514610043578063592cf3fb1461006b578063d564c4bf146100a0575b5f80fd5b6100566100513660046102f1565b6100c0565b60405190151581526020015b60405180910390f35b6100927f000000000000000000000000000000000000000000000000000000000000000081565b604051908152602001610062565b6100b36100ae366004610359565b610190565b604051610062919061038c565b5f80821180156101015750825f815181106100dd576100dd6103cf565b6020026020010151845f815181106100f7576100f76103cf565b6020026020010151115b15610189575f82845f8151811061011a5761011a6103cf565b6020026020010151865f81518110610134576101346103cf565b602002602001015161014691906103f7565b61015890670de0b6b3a7640000610410565b6101629190610427565b7f000000000000000000000000000000000000000000000000000000000000000011159150505b9392505050565b604080516001808252818301909252606091602080830190803683370190505090508173ffffffffffffffffffffffffffffffffffffffff1663affed0e06040518163ffffffff1660e01b8152600401602060405180830381865afa1580156101fb573d5f803e3d5ffd5b505050506040513d601f19601f8201168201806040525081019061021f9190610446565b815f81518110610231576102316103cf565b602002602001018181525050919050565b634e487b7160e01b5f52604160045260245ffd5b5f82601f830112610265575f80fd5b8135602067ffffffffffffffff8083111561028257610282610242565b8260051b604051601f19603f830116810181811084821117156102a7576102a7610242565b60405293845260208187018101949081019250878511156102c6575f80fd5b6020870191505b848210156102e6578135835291830191908301906102cd565b979650505050505050565b5f805f60608486031215610303575f80fd5b833567ffffffffffffffff8082111561031a575f80fd5b61032687838801610256565b9450602086013591508082111561033b575f80fd5b5061034886828701610256565b925050604084013590509250925092565b5f60208284031215610369575f80fd5b813573ffffffffffffffffffffffffffffffffffffffff81168114610189575f80fd5b602080825282518282018190525f9190848201906040850190845b818110156103c3578351835292840192918401916001016103a7565b50909695505050505050565b634e487b7160e01b5f52603260045260245ffd5b634e487b7160e01b5f52601160045260245ffd5b8181038181111561040a5761040a6103e3565b92915050565b808202811582820484141761040a5761040a6103e3565b5f8261044157634e487b7160e01b5f52601260045260245ffd5b500490565b5f60208284031215610456575f80fd5b505191905056fea2646970667358221220471211cdfc29112491c4d087612a218fd548c6541606f2acf99a1bb390448bf264736f6c63430008190033",
  "linkReferences": {},
  "deployedLinkReferences": {}
}