{
  "_format": "hh-sol-artifact-1",
  "contractName": "OperatorWhitelist",
  "sourceName": "contracts/utils/OperatorWhitelist.sol",
  "abi": [
    {
      "inputs": [
        {
          "internalType": "address",
          "name": "_serviceRegistry",
          "type": "address"
        }
      ],
      "stateMutability": "nonpayable",
      "type": "constructor"
    },
    {
      "inputs": [
        {
          "internalType": "address",
          "name": "sender",
          "type": "address"
        },
        {
          "internalType": "address",
          "name": "owner",
          "type": "address"
        }
      ],
      "name": "OwnerOnly",
      "type": "error"
    },
    {
      "inputs": [
        {
          "internalType": "uint256",
          "name": "numValues1",
          "type": "uint256"
        },
        {
          "internalType": "uint256",
          "name": "numValues2",
          "type": "uint256"
        }
      ],
      "name": "WrongArrayLength",
      "type": "error"
    },
    {
      "inputs": [],
      "name": "ZeroAddress",
      "type": "error"
    },
    {
      "anonymous": false,
      "inputs": [
        {
          "indexed": true,
          "internalType": "address",
          "name": "serviceOwner",
          "type": "address"
        },
        {
          "indexed": true,
          "internalType": "uint256",
          "name": "serviceId",
          "type": "uint256"
        }
      ],
      "name": "OperatorsWhitelistCheckSet",
      "type": "event"
    },
    {
      "anonymous": false,
      "inputs": [
        {
          "indexed": true,
          "internalType": "address",
          "name": "serviceOwner",
          "type": "address"
        },
        {
          "indexed": true,
          "internalType": "uint256",
          "name": "serviceId",
          "type": "uint256"
        },
        {
          "indexed": false,
          "internalType": "address[]",
          "name": "operators",
          "type": "address[]"
        },
        {
          "indexed": false,
          "internalType": "bool[]",
          "name": "statuses",
          "type": "bool[]"
        },
        {
          "indexed": false,
          "internalType": "bool",
          "name": "setCheck",
          "type": "bool"
        }
      ],
      "name": "OperatorsWhitelistUpdated",
      "type": "event"
    },
    {
      "anonymous": false,
      "inputs": [
        {
          "indexed": true,
          "internalType": "address",
          "name": "serviceOwner",
          "type": "address"
        },
        {
          "indexed": true,
          "internalType": "uint256",
          "name": "serviceId",
          "type": "uint256"
        },
        {
          "indexed": false,
          "internalType": "bool",
          "name": "setCheck",
          "type": "bool"
        }
      ],
      "name": "SetOperatorsCheck",
      "type": "event"
    },
    {
      "inputs": [
        {
          "internalType": "uint256",
          "name": "serviceId",
          "type": "uint256"
        },
        {
          "internalType": "address",
          "name": "operator",
          "type": "address"
        }
      ],
      "name": "isOperatorWhitelisted",
      "outputs": [
        {
          "internalType": "bool",
          "name": "status",
          "type": "bool"
        }
      ],
      "stateMutability": "view",
      "type": "function"
    },
    {
      "inputs": [
        {
          "internalType": "uint256",
          "name": "",
          "type": "uint256"
        },
        {
          "internalType": "address",
          "name": "",
          "type": "address"
        }
      ],
      "name": "mapServiceIdOperators",
      "outputs": [
        {
          "internalType": "bool",
          "name": "",
          "type": "bool"
        }
      ],
      "stateMutability": "view",
      "type": "function"
    },
    {
      "inputs": [
        {
          "internalType": "uint256",
          "name": "",
          "type": "uint256"
        }
      ],
      "name": "mapServiceIdOperatorsCheck",
      "outputs": [
        {
          "internalType": "bool",
          "name": "",
          "type": "bool"
        }
      ],
      "stateMutability": "view",
      "type": "function"
    },
    {
      "inputs": [],
      "name": "serviceRegistry",
      "outputs": [
        {
          "internalType": "address",
          "name": "",
          "type": "address"
        }
      ],
      "stateMutability": "view",
      "type": "function"
    },
    {
      "inputs": [
        {
          "internalType": "uint256",
          "name": "serviceId",
          "type": "uint256"
        },
        {
          "internalType": "bool",
          "name": "setCheck",
          "type": "bool"
        }
      ],
      "name": "setOperatorsCheck",
      "outputs": [],
      "stateMutability": "nonpayable",
      "type": "function"
    },
    {
      "inputs": [
        {
          "internalType": "uint256",
          "name": "serviceId",
          "type": "uint256"
        },
        {
          "internalType": "address[]",
          "name": "operators",
          "type": "address[]"
        },
        {
          "internalType": "bool[]",
          "name": "statuses",
          "type": "bool[]"
        },
        {
          "internalType": "bool",
          "name": "setCheck",
          "type": "bool"
        }
      ],
      "name": "setOperatorsStatuses",
      "outputs": [],
      "stateMutability": "nonpayable",
      "type": "function"
    }
  ],
  "bytecode": "0x60a060405234801561001057600080fd5b50604051610a05380380610a0583398101604081905261002f91610067565b6001600160a01b0381166100565760405163d92e233d60e01b815260040160405180910390fd5b6001600160a01b0316608052610097565b60006020828403121561007957600080fd5b81516001600160a01b038116811461009057600080fd5b9392505050565b60805161093f6100c66000396000818160fa015281816101b0015281816103bc01526104af015261093f6000f3fe608060405234801561001057600080fd5b50600436106100725760003560e01c8063bb4f56f011610050578063bb4f56f0146100e2578063cbcf252a146100f5578063ecc4060c1461013457600080fd5b806345131adb1461007757806356a7b6071461008c5780635c2f6ef4146100b4575b600080fd5b61008a6100853660046106c0565b610157565b005b61009f61009a36600461079e565b6103a0565b60405190151581526020015b60405180910390f35b61009f6100c236600461079e565b600160209081526000928352604080842090915290825290205460ff1681565b61008a6100f03660046107ce565b610496565b61011c7f000000000000000000000000000000000000000000000000000000000000000081565b6040516001600160a01b0390911681526020016100ab565b61009f6101423660046107fa565b60006020819052908152604090205460ff1681565b8251158061016757508151835114155b1561019757825182516040516308151c1160e41b8152600481019290925260248201526044015b60405180910390fd5b6040516331a9108f60e11b8152600481018590526000907f00000000000000000000000000000000000000000000000000000000000000006001600160a01b031690636352211e90602401602060405180830381865afa1580156101ff573d6000803e3d6000fd5b505050506040513d601f19601f820116820180604052508101906102239190610813565b90506001600160a01b038116331461025f5760405163521eb56d60e11b81526001600160a01b038216600482015233602482015260440161018e565b6000858152602081905260408120805460ff19168415151790555b84518110156103525760006001600160a01b03168582815181106102a0576102a0610837565b60200260200101516001600160a01b0316036102cf5760405163d92e233d60e01b815260040160405180910390fd5b8381815181106102e1576102e1610837565b602002602001015160016000888152602001908152602001600020600087848151811061031057610310610837565b6020908102919091018101516001600160a01b03168252810191909152604001600020805460ff191691151591909117905561034b8161084d565b905061027a565b5084336001600160a01b03167f468d072a954ba60f48b97590cdedbb50ed040a6c0b7419e7e26e8c30f0d4698986868660405161039193929190610874565b60405180910390a35050505050565b6040516331a9108f60e11b8152600481018390526001906000907f00000000000000000000000000000000000000000000000000000000000000006001600160a01b031690636352211e90602401602060405180830381865afa15801561040b573d6000803e3d6000fd5b505050506040513d601f19601f8201168201806040525081019061042f9190610813565b9050826001600160a01b0316816001600160a01b031614158015610461575060008481526020819052604090205460ff165b1561048f5760008481526001602090815260408083206001600160a01b038716845290915290205460ff1691505b5092915050565b6040516331a9108f60e11b8152600481018390526000907f00000000000000000000000000000000000000000000000000000000000000006001600160a01b031690636352211e90602401602060405180830381865afa1580156104fe573d6000803e3d6000fd5b505050506040513d601f19601f820116820180604052508101906105229190610813565b90506001600160a01b038116331461055e5760405163521eb56d60e11b81526001600160a01b038216600482015233602482015260440161018e565b60008381526020818152604091829020805460ff19168515159081179091559151918252849133917f23b65c8cb3df8015266b5a426d083d4b0c7ac26d5acba4be838cf8e01626742c910160405180910390a3505050565b634e487b7160e01b600052604160045260246000fd5b604051601f8201601f1916810167ffffffffffffffff811182821017156105f5576105f56105b6565b604052919050565b600067ffffffffffffffff821115610617576106176105b6565b5060051b60200190565b6001600160a01b038116811461063657600080fd5b50565b8035801515811461064957600080fd5b919050565b600082601f83011261065f57600080fd5b8135602061067461066f836105fd565b6105cc565b82815260059290921b8401810191818101908684111561069357600080fd5b8286015b848110156106b5576106a881610639565b8352918301918301610697565b509695505050505050565b600080600080608085870312156106d657600080fd5b8435935060208086013567ffffffffffffffff808211156106f657600080fd5b818801915088601f83011261070a57600080fd5b813561071861066f826105fd565b81815260059190911b8301840190848101908b83111561073757600080fd5b938501935b8285101561075e57843561074f81610621565b8252938501939085019061073c565b97505050604088013592508083111561077657600080fd5b50506107848782880161064e565b92505061079360608601610639565b905092959194509250565b600080604083850312156107b157600080fd5b8235915060208301356107c381610621565b809150509250929050565b600080604083850312156107e157600080fd5b823591506107f160208401610639565b90509250929050565b60006020828403121561080c57600080fd5b5035919050565b60006020828403121561082557600080fd5b815161083081610621565b9392505050565b634e487b7160e01b600052603260045260246000fd5b60006001820161086d57634e487b7160e01b600052601160045260246000fd5b5060010190565b606080825284519082018190526000906020906080840190828801845b828110156108b65781516001600160a01b031684529284019290840190600101610891565b5050508381038285015285518082528683019183019060005b818110156108ed5783511515835292840192918401916001016108cf565b505085151560408601529250610901915050565b94935050505056fea264697066735822122055ea8fb655049108d2cddfcfae3ae94b4944910f0af96834ce2a4c9aa8e55ca264736f6c63430008130033",
  "linkReferences": {},
  "deployedLinkReferences": {}
}