{
  "_format": "hh-sol-artifact-1",
  "contractName": "GnosisSafeSameAddressMultisig",
  "sourceName": "contracts/multisigs/GnosisSafeSameAddressMultisig.sol",
  "abi": [
    {
      "inputs": [
        {
          "internalType": "uint256",
          "name": "expected",
          "type": "uint256"
        },
        {
          "internalType": "uint256",
          "name": "provided",
          "type": "uint256"
        }
      ],
      "name": "IncorrectDataLength",
      "type": "error"
    },
    {
      "inputs": [
        {
          "internalType": "address",
          "name": "provided",
          "type": "address"
        }
      ],
      "name": "MultisigExecFailed",
      "type": "error"
    },
    {
      "inputs": [
        {
          "internalType": "uint256",
          "name": "expected",
          "type": "uint256"
        },
        {
          "internalType": "uint256",
          "name": "provided",
          "type": "uint256"
        }
      ],
      "name": "WrongNumOwners",
      "type": "error"
    },
    {
      "inputs": [
        {
          "internalType": "address",
          "name": "provided",
          "type": "address"
        }
      ],
      "name": "WrongOwner",
      "type": "error"
    },
    {
      "inputs": [
        {
          "internalType": "uint256",
          "name": "expected",
          "type": "uint256"
        },
        {
          "internalType": "uint256",
          "name": "provided",
          "type": "uint256"
        }
      ],
      "name": "WrongThreshold",
      "type": "error"
    },
    {
      "inputs": [],
      "name": "DEFAULT_DATA_LENGTH",
      "outputs": [
        {
          "internalType": "uint256",
          "name": "",
          "type": "uint256"
        }
      ],
      "stateMutability": "view",
      "type": "function"
    },
    {
      "inputs": [
        {
          "internalType": "address[]",
          "name": "owners",
          "type": "address[]"
        },
        {
          "internalType": "uint256",
          "name": "threshold",
          "type": "uint256"
        },
        {
          "internalType": "bytes",
          "name": "data",
          "type": "bytes"
        }
      ],
      "name": "create",
      "outputs": [
        {
          "internalType": "address",
          "name": "multisig",
          "type": "address"
        }
      ],
      "stateMutability": "nonpayable",
      "type": "function"
    }
  ],
  "bytecode": "0x608060405234801561001057600080fd5b50610781806100206000396000f3fe608060405234801561001057600080fd5b50600436106100365760003560e01c8063f02fb7741461003b578063f398dba814610056575b600080fd5b610043601481565b6040519081526020015b60405180910390f35b610069610064366004610519565b610081565b6040516001600160a01b03909116815260200161004d565b805160009060148110156100ba578251604051631a64813d60e11b81526014600482015260248101919091526044015b60405180910390fd5b6014830151915060148111156102325760006100d76014836105ff565b905060008167ffffffffffffffff8111156100f4576100f4610426565b6040519080825280601f01601f19166020018201604052801561011e576020820181803683370190505b50905060005b828110156101a45785610138601483610616565b815181106101485761014861062e565b602001015160f81c60f81b8282815181106101655761016561062e565b60200101907effffffffffffffffffffffffffffffffffffffffffffffffffffffffffffff1916908160001a90535061019d81610644565b9050610124565b506000846001600160a01b0316826040516101bf919061065d565b6000604051808303816000865af19150503d80600081146101fc576040519150601f19603f3d011682016040523d82523d6000602084013e610201565b606091505b505090508061022e57604051632aacb4bd60e21b81526001600160a01b03861660048201526024016100b1565b5050505b6000826001600160a01b031663a0e67e2b6040518163ffffffff1660e01b8152600401600060405180830381865afa158015610272573d6000803e3d6000fd5b505050506040513d6000823e601f3d908101601f1916820160405261029a9190810190610698565b90506000836001600160a01b031663e75235b86040518163ffffffff1660e01b8152600401602060405180830381865afa1580156102dc573d6000803e3d6000fd5b505050506040513d601f19601f820116820180604052508101906103009190610732565b905080861461032c57604051635372461560e01b815260048101829052602481018790526044016100b1565b86518251811461035c57825160405163f720290d60e01b81526004810191909152602481018290526044016100b1565b60005b8181101561041a5783600161037483856105ff565b61037e91906105ff565b8151811061038e5761038e61062e565b60200260200101516001600160a01b03168982815181106103b1576103b161062e565b60200260200101516001600160a01b03161461040a578881815181106103d9576103d961062e565b60200260200101516040516374dba67360e01b81526004016100b191906001600160a01b0391909116815260200190565b61041381610644565b905061035f565b50505050509392505050565b634e487b7160e01b600052604160045260246000fd5b604051601f8201601f1916810167ffffffffffffffff8111828210171561046557610465610426565b604052919050565b600067ffffffffffffffff82111561048757610487610426565b5060051b60200190565b6001600160a01b03811681146104a657600080fd5b50565b600082601f8301126104ba57600080fd5b813567ffffffffffffffff8111156104d4576104d4610426565b6104e7601f8201601f191660200161043c565b8181528460208386010111156104fc57600080fd5b816020850160208301376000918101602001919091529392505050565b60008060006060848603121561052e57600080fd5b833567ffffffffffffffff8082111561054657600080fd5b818601915086601f83011261055a57600080fd5b8135602061056f61056a8361046d565b61043c565b82815260059290921b8401810191818101908a84111561058e57600080fd5b948201945b838610156105b55785356105a681610491565b82529482019490820190610593565b97505087013594505060408601359150808211156105d257600080fd5b506105df868287016104a9565b9150509250925092565b634e487b7160e01b600052601160045260246000fd5b600082821015610611576106116105e9565b500390565b60008219821115610629576106296105e9565b500190565b634e487b7160e01b600052603260045260246000fd5b600060018201610656576106566105e9565b5060010190565b6000825160005b8181101561067e5760208186018101518583015201610664565b8181111561068d576000828501525b509190910192915050565b600060208083850312156106ab57600080fd5b825167ffffffffffffffff8111156106c257600080fd5b8301601f810185136106d357600080fd5b80516106e161056a8261046d565b81815260059190911b8201830190838101908783111561070057600080fd5b928401925b8284101561072757835161071881610491565b82529284019290840190610705565b979650505050505050565b60006020828403121561074457600080fd5b505191905056fea264697066735822122069e32806e23237f33cc0821d33376a68382df7f13df60a8a61f2133c78efdff064736f6c634300080f0033",
  "linkReferences": {},
  "deployedLinkReferences": {}
}